{
	"data": {
		"bytecode": {
			"linkReferences": {},
			"object": "60c06040526003805460ff60a01b1916600160a01b179055348015610022575f5ffd5b50604051613a85380380613a858339810160408190526100419161064f565b338061006757604051631e4fbdf760e01b81525f60048201526024015b60405180910390fd5b6100708161038e565b50600180556001600160a01b0387161580159061009557506001600160a01b03861615155b80156100a957506001600160a01b03851615155b80156100bd57506001600160a01b03841615155b6100f55760405162461bcd60e51b81526020600482015260096024820152683d32b9379030b2323960b91b604482015260640161005e565b6001600160a01b0387811660805286811660a052600280546001600160a01b03199081168884161790915560038054909116918616919091179055610139836103dd565b610142826103dd565b61014b816103dd565b8260055f8060ff908116825260208083019390935260409182015f908120855181559385015160019485018054948701516060880151608089015160a09099015115156b0100000000000000000000000260ff60581b19999096166a01000000000000000000000260ff60501b1963ffffffff9283166601000000000000021664ffffffffff60301b1992909316620100000265ffffffffffff1990981661ffff909516949094179690961795909516949094171794909416179055839160059160ff908116825260208083019390935260409182015f908120855181559385015160019094018054938601516060870151608088015160a09098015161ffff90971665ffffffffffff19909616959095176201000063ffffffff928316021764ffffffffff60301b19166601000000000000919095160260ff60501b1916939093176a010000000000000000000095909216949094021760ff60581b19166b010000000000000000000000921515929092029190911790558190600590600260ff908116825260208083019390935260409182015f20845181559284015160019093018054928501516060860151608087015160a09097015161ffff90961665ffffffffffff19909516949094176201000063ffffffff928316021764ffffffffff60301b19166601000000000000919094160260ff60501b1916929092176a010000000000000000000094909116939093029290921760ff60581b19166b01000000000000000000000091151591909102179055506106ff95505050505050565b5f80546001600160a01b038381166001600160a01b0319831681178455604051919092169283917f8be0079c531659141344cd1fd0a4f28419497f9722a3daafe3b4186f6b6457e09190a35050565b806020015161ffff166103e8146104285760405162461bcd60e51b815260206004820152600f60248201526e666565206d7573742062652031302560881b604482015260640161005e565b603c816040015163ffffffff16146104775760405162461bcd60e51b81526020600482015260126024820152716d696e4c6f636b206d75737420626520317960701b604482015260640161005e565b610483603c60056106d6565b816060015163ffffffff16146104d05760405162461bcd60e51b81526020600482015260126024820152716d61784c6f636b206d75737420626520357960701b604482015260640161005e565b80516105095760405162461bcd60e51b815260206004820152600860248201526706d696e5573643d360c41b604482015260640161005e565b8060a0015161054a5760405162461bcd60e51b815260206004820152600d60248201526c34b730b1ba34bb32903a34b2b960991b604482015260640161005e565b50565b80516001600160a01b0381168114610563575f5ffd5b919050565b805161ffff81168114610563575f5ffd5b805163ffffffff81168114610563575f5ffd5b805160ff81168114610563575f5ffd5b80518015158114610563575f5ffd5b5f60c082840312156105bb575f5ffd5b60405160c081016001600160401b03811182821017156105e957634e487b7160e01b5f52604160045260245ffd5b604052825181529050806105ff60208401610568565b602082015261061060408401610579565b604082015261062160608401610579565b60608201526106326080840161058c565b608082015261064360a0840161059c565b60a08201525092915050565b5f5f5f5f5f5f5f6102c0888a031215610666575f5ffd5b61066f8861054d565b965061067d6020890161054d565b955061068b6040890161054d565b94506106996060890161054d565b93506106a88960808a016105ab565b92506106b8896101408a016105ab565b91506106c8896102008a016105ab565b905092959891949750929550565b80820281158282048414176106f957634e487b7160e01b5f52601160045260245ffd5b92915050565b60805160a0516132f56107905f395f8181610367015281816109ec01528181610abf01528181610af901528181610b28015281816115fb015281816116be0152818161177c015281816117b601526117e501525f818161051f01528181610b4901528181610b8f01528181610c7f0152818161109a015281816118060152818161184c015261193c01526132f55ff3fe608060405234801561000f575f5ffd5b506004361061026b575f3560e01c80637879e84b1161014b578063c0d78655116100bf578063d21cacdf11610084578063d21cacdf146106f6578063ef35bf541461071e578063f2fde38b14610732578063f5e89caa14610745578063f8764cec146102c6578063f887ea401461074d575f5ffd5b8063c0d78655146105ee578063c415b95c14610601578063c6b61e4c14610614578063c9e18b1814610655578063d1d799741461065e575f5ffd5b80639163f0bd116101105780639163f0bd14610586578063916e1c5714610599578063a42dce80146105a2578063a4e090c5146105b5578063ae0b51df146105c8578063b26c71a8146105db575f5ffd5b80637879e84b1461051a5780637a4e4ecf146105415780637eb73388146105545780638456cb591461056e5780638da5cb5b14610576575f5ffd5b80633f67aefc116101e257806365a5d5f0116101a757806365a5d5f0146104495780636f9a815314610451578063715018a61461045a578063719f308914610462578063745f2a0414610482578063778b7d0a146104af575f5ffd5b80633f67aefc146103f65780634b081966146103ff5780634e1595b3146104125780635c975abb146104255780636289030b14610436575f5ffd5b806324dd80ae1161023357806324dd80ae146103025780632bb4b0ca1461033c5780632e1a7d4d1461034f5780632f48ab7d1461036257806335c06a32146103a15780633f4ba83a146103ee575f5ffd5b8063120aa8771461026f578063141c7b52146102b157806316d3bfbb146102c65780631b635db5146102dc578063214bf8b6146102ef575b5f5ffd5b61029c61027d366004612c28565b600b60209081525f928352604080842090915290825290205460ff1681565b60405190151581526020015b60405180910390f35b6102c46102bf366004612c52565b610760565b005b6102ce603c81565b6040519081526020016102a8565b6102c46102ea366004612c9e565b6108f7565b6102c46102fd366004612cdc565b6109bd565b610327610310366004612cfc565b60086020525f908152604090205463ffffffff1681565b60405163ffffffff90911681526020016102a8565b6102c461034a366004612d15565b610d44565b6102c461035d366004612d94565b610f62565b6103897f000000000000000000000000000000000000000000000000000000000000000081565b6040516001600160a01b0390911681526020016102a8565b6103b46103af366004612dab565b611108565b6040805195865267ffffffffffffffff9485166020870152929093169184019190915260ff1660608301521515608082015260a0016102a8565b6102c4611169565b6102ce600d5481565b61029c61040d366004612dd3565b61117b565b6102c4610420366004612dab565b6111b8565b5f54600160a01b900460ff1661029c565b6102c4610444366004612dab565b611210565b6102ce61129f565b6102ce600c5481565b6102c46112ae565b610475610470366004612cfc565b6112bf565b6040516102a89190612dfe565b61029c610490366004612c28565b600f60209081525f928352604080842090915290825290205460ff1681565b6104f06104bd366004612d94565b600e6020525f9081526040902080546001820154600283015460039093015491926001600160a01b039091169160ff1684565b604080519485526001600160a01b03909316602085015291830152151560608201526080016102a8565b6103897f000000000000000000000000000000000000000000000000000000000000000081565b6102c461054f366004612dab565b61137c565b61055c600581565b60405160ff90911681526020016102a8565b6102c46113d3565b5f546001600160a01b0316610389565b6102c4610594366004612ea1565b6113e3565b6102ce60095481565b6102c46105b0366004612cfc565b611443565b6102c46105c3366004612ebc565b6114d3565b6102c46105d6366004612d15565b611b69565b6102c46105e9366004612c52565b611e1a565b6102c46105fc366004612cfc565b611ff0565b600354610389906001600160a01b031681565b6104f0610622366004612d94565b600a6020525f9081526040902080546001820154600283015460039093015491926001600160a01b039091169160ff1684565b6102ce60045481565b6106b761066c366004612f14565b60056020525f90815260409020805460019091015461ffff81169063ffffffff620100008204811691600160301b81049091169060ff600160501b8204811691600160581b90041686565b6040805196875261ffff909516602087015263ffffffff938416948601949094529116606084015260ff166080830152151560a082015260c0016102a8565b610389610704366004612cfc565b60076020525f90815260409020546001600160a01b031681565b60035461029c90600160a01b900460ff1681565b6102c4610740366004612cfc565b612080565b600c546102ce565b600254610389906001600160a01b031681565b6107686120ba565b821580159061077f57506001600160a01b03821615155b801561078a57505f81115b6107c75760405162461bcd60e51b81526020600482015260096024820152680c4c2c840cae0dec6d60bb1b60448201526064015b60405180910390fd5b80600c5410156108115760405162461bcd60e51b81526020600482015260156024820152741a5b9cdd59999a58da595b9d08159254081c1bdbdb605a1b60448201526064016107be565b604080516080810182528481526001600160a01b038481166020808401918252838501868152600160608601818152600d545f908152600e90945296832095518655925192850180546001600160a01b031916939094169290921790925551600283015591516003909101805460ff1916911515919091179055600c805483929061089d908490612f43565b9091555050600d5460408051858152602081018490527f4a5f24b675c9d32605b03740c01eccd588d896164975755f7b77633c1d311cde910160405180910390a2600d8054905f6108ed83612f56565b9190505550505050565b6108ff6120ba565b60021960ff8316016109475760405162461bcd60e51b8152602060048201526011602482015270637573746f6d2069732064796e616d696360781b60448201526064016107be565b61095e61095936839003830183612fa4565b6120e6565b60ff82165f908152600560205260409020819061097b8282613060565b9050508160ff167fb301d171fa8a7242afc80588cf687e5e64658ffcd9aaff289fad202fe7f880a1826040516109b1919061313e565b60405180910390a25050565b6109c56120ba565b6109cd612253565b6109d561227d565b6040516370a0823160e01b81523060048201525f907f00000000000000000000000000000000000000000000000000000000000000006001600160a01b0316906370a0823190602401602060405180830381865afa158015610a39573d5f5f3e3d5ffd5b505050506040513d601f19601f82011682018060405250810190610a5d91906131c0565b90505f8160045411610a7157600454610a73565b815b90505f8111610aae5760405162461bcd60e51b81526020600482015260076024820152666e6f206665657360c81b60448201526064016107be565b600254610ae8906001600160a01b037f0000000000000000000000000000000000000000000000000000000000000000811691165f6122a7565b600254610b22906001600160a01b037f000000000000000000000000000000000000000000000000000000000000000081169116836122a7565b5f610b6d7f00000000000000000000000000000000000000000000000000000000000000007f0000000000000000000000000000000000000000000000000000000000000000612364565b6040516370a0823160e01b81523060048201529091505f906001600160a01b037f000000000000000000000000000000000000000000000000000000000000000016906370a0823190602401602060405180830381865afa158015610bd4573d5f5f3e3d5ffd5b505050506040513d601f19601f82011682018060405250810190610bf891906131c0565b600254604051635c11d79560e01b81529192506001600160a01b031690635c11d79590610c319086908a90879030908c906004016131d7565b5f604051808303815f87803b158015610c48575f5ffd5b505af1158015610c5a573d5f5f3e3d5ffd5b50506040516370a0823160e01b81523060048201525f92508391506001600160a01b037f000000000000000000000000000000000000000000000000000000000000000016906370a0823190602401602060405180830381865afa158015610cc4573d5f5f3e3d5ffd5b505050506040513d601f19601f82011682018060405250810190610ce891906131c0565b610cf29190612f43565b5f60045560408051868152602081018390529192507f440ff3ae555e6e78856c05bc2eea45928789919497ad6b48a9f5aa065094e286910160405180910390a15050505050610d4060018055565b5050565b610d4c61227d565b5f848152600e602090815260409182902082516080810184528154815260018201546001600160a01b03169281019290925260028101549282019290925260039091015460ff16151560608201819052610dd35760405162461bcd60e51b8152602060048201526008602482015267696e61637469766560c01b60448201526064016107be565b5f858152600f6020908152604080832033845290915290205460ff1615610e265760405162461bcd60e51b815260206004820152600760248201526618db185a5b595960ca1b60448201526064016107be565b6040516bffffffffffffffffffffffff193360601b166020820152603481018590525f90605401604051602081830303815290604052805190602001209050610ea48484808060200260200160405190810160405280939291908181526020018383602002808284375f9201919091525050855191508490506123f1565b610edc5760405162461bcd60e51b81526020600482015260096024820152683130b210383937b7b360b91b60448201526064016107be565b5f868152600f60209081526040808320338085529083529220805460ff19166001179055830151610f1a916001600160a01b03919091169087612406565b604051858152339087907fdadacccf388df5ada42008ef082096f37b84f589657b7e4d4f9ac4fab76c284e9060200160405180910390a35050610f5c60018055565b50505050565b610f6a61227d565b335f908152600660205260409020548110610fb05760405162461bcd60e51b8152602060048201526006602482015265189859081a5960d21b60448201526064016107be565b335f908152600660205260408120805483908110610fd057610fd0613247565b905f5260205f20906002020190508060010160119054906101000a900460ff16156110275760405162461bcd60e51b8152602060048201526007602482015266616c726561647960c81b60448201526064016107be565b6001810154600160401b900467ffffffffffffffff164210156110755760405162461bcd60e51b81526020600482015260066024820152651b1bd8dad95960d21b60448201526064016107be565b60018101805460ff60881b1916600160881b17905580546110c2906001600160a01b037f000000000000000000000000000000000000000000000000000000000000000016903390612406565b8054604051908152829033907f92ccf450a286a957af52509bc1c9939d1a6a481783e142e41e2499f0bb66ebc69060200160405180910390a35061110560018055565b50565b6006602052815f5260405f208181548110611121575f80fd5b5f9182526020909120600290910201805460019091015490925067ffffffffffffffff8082169250600160401b8204169060ff600160801b8204811691600160881b90041685565b6111716120ba565b61117961243c565b565b5f5f6111878484612490565b6001600160a01b0386165f9081526008602052604090205460ff90911663ffffffff90911610159150509392505050565b6111c06120ba565b6111d56001600160a01b0383163330846124db565b816001600160a01b03167f7f6bc5ee0338914ce9ac8966422f46d02e1847d6c44db0ac259a1f08c0063577826040516109b191815260200190565b6112186120ba565b61122d6001600160a01b0383163330846124db565b80600c5f82825461123e919061325b565b90915550506040517ff3ed9d9c5afee346389c0bd81ba01bcc44f4578f236926785dde83761445bb769061129390838152604060208201819052600690820152651b585b9d585b60d21b606082015260800190565b60405180910390a15050565b6112ab603c600561326e565b81565b6112b66120ba565b6111795f612514565b6001600160a01b0381165f908152600660209081526040808320805482518185028101850190935280835260609492939192909184015b82821015611371575f8481526020908190206040805160a081018252600286029092018054835260019081015467ffffffffffffffff80821685870152600160401b8204169284019290925260ff600160801b830481166060850152600160881b9092049091161515608083015290835290920191016112f6565b505050509050919050565b6113846120ba565b6113986001600160a01b0383163383612406565b816001600160a01b03167f542fa6bfee3b4746210fbdd1d83f9e49b65adde3639f8d8f165dd18347938af2826040516109b191815260200190565b6113db6120ba565b611179612563565b6113eb6120ba565b60038054821515600160a01b0260ff60a01b199091161790556040517f29fb9dcc174ea2ef95877fba980f5048fe239c4cb8860d5744dabc16138cdd449061143890831515815260200190565b60405180910390a150565b61144b6120ba565b6001600160a01b03811661148a5760405162461bcd60e51b81526004016107be906020808252600490820152637a65726f60e01b604082015260600190565b600380546001600160a01b0319166001600160a01b0383169081179091556040517fe5693914d19c789bdee50a362998c0bc8d035a835f9871da5d51152f0582c34f905f90a250565b6114db612253565b6114e361227d565b5f861161151d5760405162461bcd60e51b81526020600482015260086024820152670616d6f756e743d360c41b60448201526064016107be565b600360ff8416111561155b5760405162461bcd60e51b815260206004820152600760248201526662616420706b6760c81b60448201526064016107be565b5f61156684886125a5565b90508060a001516115a95760405162461bcd60e51b815260206004820152600d60248201526c7469657220696e61637469766560981b60448201526064016107be565b6115b38582612926565b6115ee5760405162461bcd60e51b815260206004820152600c60248201526b3130b210323ab930ba34b7b760a11b60448201526064016107be565b6116236001600160a01b037f00000000000000000000000000000000000000000000000000000000000000001633308a6124db565b5f612710826020015161ffff168961163b919061326e565b6116459190613299565b9050801561171d57600354600160a01b900460ff16156116ad578060045f828254611670919061325b565b90915550506040518181527f389faf23db47c020bf2bf8713822897a6a877592b613f1f3fc0a2a245380d4699060200160405180910390a16116e7565b6003546116e7906001600160a01b037f00000000000000000000000000000000000000000000000000000000000000008116911683612406565b60405181815233907f06c5efeff5c320943d265dc4e5f1af95ad523555ce0c1957e367dda5514572df9060200160405180910390a25b5f611728828a612f43565b90505f811161176b5760405162461bcd60e51b815260206004820152600f60248201526e06e6f7468696e6720746f207377617608c1b60448201526064016107be565b6002546117a5906001600160a01b037f0000000000000000000000000000000000000000000000000000000000000000811691165f6122a7565b6002546117df906001600160a01b037f000000000000000000000000000000000000000000000000000000000000000081169116836122a7565b5f61182a7f00000000000000000000000000000000000000000000000000000000000000007f0000000000000000000000000000000000000000000000000000000000000000612364565b6040516370a0823160e01b81523060048201529091505f906001600160a01b037f000000000000000000000000000000000000000000000000000000000000000016906370a0823190602401602060405180830381865afa158015611891573d5f5f3e3d5ffd5b505050506040513d601f19601f820116820180604052508101906118b591906131c0565b600254604051635c11d79560e01b81529192506001600160a01b031690635c11d795906118ee9086908e90879030908d906004016131d7565b5f604051808303815f87803b158015611905575f5ffd5b505af1158015611917573d5f5f3e3d5ffd5b50506040516370a0823160e01b81523060048201525f92508391506001600160a01b037f000000000000000000000000000000000000000000000000000000000000000016906370a0823190602401602060405180830381865afa158015611981573d5f5f3e3d5ffd5b505050506040513d601f19601f820116820180604052508101906119a591906131c0565b6119af9190612f43565b90508a81101580156119c057505f81115b6119ff5760405162461bcd60e51b815260206004820152601060248201526f1a5b9cdd59999a58da595b9d081bdd5d60821b60448201526064016107be565b5f6040518060a001604052808381526020014267ffffffffffffffff1681526020018c42611a2d919061325b565b67ffffffffffffffff908116825260ff808e166020808501919091525f604094850181905233808252600683528582208054600181810183558285528585208a51600290930201918255948901519085018054988a015160608b015160808c01511515600160881b0260ff60881b1991909916600160801b021661ffff60801b19918a16600160401b026fffffffffffffffffffffffffffffffff19909b16939099169290921798909817169590951793909317909455925254919250611af391612f43565b604082810151815160ff8e1681526020810186905267ffffffffffffffff90911681830152905133917f5e983011d4c7fb1a781260072ce1d9f1beb0485f07d36ea56f3c546b0c7b5bf7919081900360600190a3611b51338a6129a0565b50505050505050611b6160018055565b505050505050565b611b7161227d565b5f848152600a602090815260409182902082516080810184528154815260018201546001600160a01b03169281019290925260028101549282019290925260039091015460ff16151560608201819052611bf85760405162461bcd60e51b8152602060048201526008602482015267696e61637469766560c01b60448201526064016107be565b5f858152600b6020908152604080832033845290915290205460ff1615611c4b5760405162461bcd60e51b815260206004820152600760248201526618db185a5b595960ca1b60448201526064016107be565b6040516bffffffffffffffffffffffff193360601b166020820152603481018590525f90605401604051602081830303815290604052805190602001209050611cc98484808060200260200160405190810160405280939291908181526020018383602002808284375f9201919091525050855191508490506123f1565b611d015760405162461bcd60e51b81526020600482015260096024820152683130b210383937b7b360b91b60448201526064016107be565b5f868152600b602090815260408083203384529091528120805460ff19166001179055612710611d33876101f461326e565b611d3d9190613299565b90505f611d4a8288612f43565b905081600c5f828254611d5d919061325b565b90915550506040517ff3ed9d9c5afee346389c0bd81ba01bcc44f4578f236926785dde83761445bb7690611db59084815260406020820181905260099082015268636c61696d5f66656560b81b606082015260800190565b60405180910390a16020840151611dd6906001600160a01b03163383612406565b604051818152339089907f24b5efa61dd1cfc659205a97fb8ed868f3cb8c81922bab2b96423e5de1de2cb79060200160405180910390a350505050610f5c60018055565b611e226120ba565b8215801590611e3957506001600160a01b03821615155b8015611e4457505f81115b611e7c5760405162461bcd60e51b81526020600482015260096024820152680c4c2c840cae0dec6d60bb1b60448201526064016107be565b6040516370a0823160e01b815230600482015281906001600160a01b038416906370a0823190602401602060405180830381865afa158015611ec0573d5f5f3e3d5ffd5b505050506040513d601f19601f82011682018060405250810190611ee491906131c0565b1015611f265760405162461bcd60e51b81526020600482015260116024820152701a5b9cdd59999a58da595b9d081c1bdbdb607a1b60448201526064016107be565b604080516080810182528481526001600160a01b03848116602080840182815284860187815260016060808801828152600980545f908152600a88528b902099518a55945192890180546001600160a01b031916939098169290921790965590516002870155516003909501805460ff19169515159590951790945592548451888152938401919091529282018490527f94cc642e29340067a18c6745ea1efe16776add971d3b78b17aeca5c0cc6aa2f1910160405180910390a260098054905f6108ed83612f56565b611ff86120ba565b6001600160a01b0381166120375760405162461bcd60e51b81526004016107be906020808252600490820152637a65726f60e01b604082015260600190565b600280546001600160a01b0319166001600160a01b0383169081179091556040517f7aed1d3e8155a07ccf395e44ea3109a0e2d6c9b29bbbe9f142d9790596f4dc80905f90a250565b6120886120ba565b6001600160a01b0381166120b157604051631e4fbdf760e01b81525f60048201526024016107be565b61110581612514565b5f546001600160a01b031633146111795760405163118cdaa760e01b81523360048201526024016107be565b806020015161ffff166103e8146121315760405162461bcd60e51b815260206004820152600f60248201526e666565206d7573742062652031302560881b60448201526064016107be565b603c816040015163ffffffff16146121805760405162461bcd60e51b81526020600482015260126024820152716d696e4c6f636b206d75737420626520317960701b60448201526064016107be565b61218c603c600561326e565b816060015163ffffffff16146121d95760405162461bcd60e51b81526020600482015260126024820152716d61784c6f636b206d75737420626520357960701b60448201526064016107be565b80516122125760405162461bcd60e51b815260206004820152600860248201526706d696e5573643d360c41b60448201526064016107be565b8060a001516111055760405162461bcd60e51b815260206004820152600d60248201526c34b730b1ba34bb32903a34b2b960991b60448201526064016107be565b5f54600160a01b900460ff16156111795760405163d93c066560e01b815260040160405180910390fd5b6002600154036122a057604051633ee5aeb560e01b815260040160405180910390fd5b6002600155565b604080516001600160a01b038416602482015260448082018490528251808303909101815260649091019091526020810180516001600160e01b031663095ea7b360e01b1790526122f88482612abe565b610f5c576040516001600160a01b0384811660248301525f604483015261235a91869182169063095ea7b3906064015b604051602081830303815290604052915060e01b6020820180516001600160e01b038381831617835250505050612b07565b610f5c8482612b07565b604080516002808252606080830184529260208301908036833701905050905082815f8151811061239757612397613247565b60200260200101906001600160a01b031690816001600160a01b03168152505081816001815181106123cb576123cb613247565b60200260200101906001600160a01b031690816001600160a01b03168152505092915050565b5f826123fd8584612b73565b14949350505050565b6040516001600160a01b0383811660248301526044820183905261243791859182169063a9059cbb90606401612328565b505050565b612444612bb5565b5f805460ff60a01b191690557f5db9ee0a495bf2e6ff9c91a7834c1ba4fdd244a5e8aa4e537bd38aeae4b073aa335b6040516001600160a01b03909116815260200160405180910390a1565b5f60021960ff8416016124b5575f6124a884846125a5565b6080015191506124d59050565b5060ff8083165f90815260056020526040902060010154600160501b9004165b92915050565b6040516001600160a01b038481166024830152838116604483015260648201839052610f5c9186918216906323b872dd90608401612328565b5f80546001600160a01b038381166001600160a01b0319831681178455604051919092169283917f8be0079c531659141344cd1fd0a4f28419497f9722a3daafe3b4186f6b6457e09190a35050565b61256b612253565b5f805460ff60a01b1916600160a01b1790557f62e78cea01bee320cd4e420270b5ea74000d11b0c9f74754ebdbfc544b05a2586124733390565b6040805160c0810182525f80825260208201819052918101829052606081018290526080810182905260a081019190915260021960ff84160161282f575f6005818060ff908116825260208083019390935260409182015f908120835160c0810185528154815260019182015461ffff81169682019690965263ffffffff620100008704811695820195909552600160301b86049094166060850152600160501b850483166080850152600160581b909404909116151560a083015290925090600590829060ff908116825260208083019390935260409182015f908120835160c0810185528154815260019091015461ffff81169582019590955263ffffffff620100008604811694820194909452600160301b85049093166060840152600160501b840482166080840152600160581b90930416151560a08201529150600581600260ff908116825260208083019390935260409182015f20825160c0810184528154815260019091015461ffff81169482019490945263ffffffff620100008504811693820193909352600160301b84049092166060830152600160501b830481166080830152600160581b909204909116151560a080830191909152840151909150801561277857508160a001515b801561278557508060a001515b6127c25760405162461bcd60e51b815260206004820152600e60248201526d746965727320696e61637469766560901b60448201526064016107be565b82518510156128025760405162461bcd60e51b815260206004820152600c60248201526b31bab9ba37b6901e1036b4b760a11b60448201526064016107be565b805185111561281357809350612827565b8151851061282357819350612827565b8293505b5050506124d5565b5060ff8083165f90815260056020908152604091829020825160c0810184528154815260019091015461ffff81169282019290925263ffffffff620100008304811693820193909352600160301b82049092166060830152600160501b810483166080830152600160581b9004909116151560a082018190526128e45760405162461bcd60e51b815260206004820152600d60248201526c7469657220696e61637469766560981b60448201526064016107be565b80518210156129215760405162461bcd60e51b81526020600482015260096024820152683132b637bb9036b4b760b91b60448201526064016107be565b6124d5565b5f816040015163ffffffff168310806129485750816060015163ffffffff1683115b1561295457505f6124d5565b61295f603c846132ac565b1561296b57505f6124d5565b5f612977603c85613299565b905060018110806129885750600581115b15612996575f9150506124d5565b5060019392505050565b6001600160a01b038281165f90815260076020526040902054161580156129cf57506001600160a01b03811615155b80156129ed5750816001600160a01b0316816001600160a01b031614155b15612a45576001600160a01b038281165f8181526007602052604080822080546001600160a01b0319169486169485179055517f5f7165288eef601591cf549e15ff19ef9060b7f71b9c115be946fa1fe7ebf68a9190a35b6001600160a01b038083165f90815260076020526040902054168015801590612a8557506001600160a01b0383165f908152600660205260409020546001145b15612437576001600160a01b03165f908152600860205260409020805463ffffffff8082166001011663ffffffff199091161790555050565b5f5f5f5f60205f8651602088015f8a5af192503d91505f519050828015612afd57508115612aef5780600114612afd565b5f866001600160a01b03163b115b9695505050505050565b5f5f60205f8451602086015f885af180612b26576040513d5f823e3d81fd5b50505f513d91508115612b3d578060011415612b4a565b6001600160a01b0384163b155b15610f5c57604051635274afe760e01b81526001600160a01b03851660048201526024016107be565b5f81815b8451811015612bad57612ba382868381518110612b9657612b96613247565b6020026020010151612bde565b9150600101612b77565b509392505050565b5f54600160a01b900460ff1661117957604051638dfc202b60e01b815260040160405180910390fd5b5f818310612bf8575f828152602084905260409020612c06565b5f8381526020839052604090205b9392505050565b80356001600160a01b0381168114612c23575f5ffd5b919050565b5f5f60408385031215612c39575f5ffd5b82359150612c4960208401612c0d565b90509250929050565b5f5f5f60608486031215612c64575f5ffd5b83359250612c7460208501612c0d565b929592945050506040919091013590565b60ff81168114611105575f5ffd5b8035612c2381612c85565b5f5f82840360e0811215612cb0575f5ffd5b8335612cbb81612c85565b925060c0601f1982011215612cce575f5ffd5b506020830190509250929050565b5f5f60408385031215612ced575f5ffd5b50508035926020909101359150565b5f60208284031215612d0c575f5ffd5b612c0682612c0d565b5f5f5f5f60608587031215612d28575f5ffd5b8435935060208501359250604085013567ffffffffffffffff811115612d4c575f5ffd5b8501601f81018713612d5c575f5ffd5b803567ffffffffffffffff811115612d72575f5ffd5b8760208260051b8401011115612d86575f5ffd5b949793965060200194505050565b5f60208284031215612da4575f5ffd5b5035919050565b5f5f60408385031215612dbc575f5ffd5b612dc583612c0d565b946020939093013593505050565b5f5f5f60608486031215612de5575f5ffd5b612dee84612c0d565b92506020840135612c7481612c85565b602080825282518282018190525f918401906040840190835b81811015612e7e5783518051845267ffffffffffffffff602082015116602085015267ffffffffffffffff604082015116604085015260ff60608201511660608501526080810151151560808501525060a083019250602084019350600181019050612e17565b509095945050505050565b8015158114611105575f5ffd5b8035612c2381612e89565b5f60208284031215612eb1575f5ffd5b8135612c0681612e89565b5f5f5f5f5f5f60c08789031215612ed1575f5ffd5b8635955060208701359450604087013593506060870135612ef181612c85565b9250612eff60808801612c0d565b9598949750929591949360a090920135925050565b5f60208284031215612f24575f5ffd5b8135612c0681612c85565b634e487b7160e01b5f52601160045260245ffd5b818103818111156124d5576124d5612f2f565b5f60018201612f6757612f67612f2f565b5060010190565b61ffff81168114611105575f5ffd5b8035612c2381612f6e565b63ffffffff81168114611105575f5ffd5b8035612c2381612f88565b5f60c0828403128015612fb5575f5ffd5b5060405160c0810167ffffffffffffffff81118282101715612fe557634e487b7160e01b5f52604160045260245ffd5b60405282358152612ff860208401612f7d565b602082015261300960408401612f99565b604082015261301a60608401612f99565b606082015261302b60808401612c93565b608082015261303c60a08401612e96565b60a08201529392505050565b5f81356124d581612c85565b5f81356124d581612e89565b8135815560018101602083013561307681612f6e565b61ffff811661ffff1983541617825550604083013561309481612f88565b815465ffffffff0000191660109190911b65ffffffff0000161781555f60608401356130bf81612f88565b825469ffffffff000000000000191660309190911b69ffffffff00000000000016178255506131116130f360808501613048565b82805460ff60501b191660509290921b60ff60501b16919091179055565b61243761312060a08501613054565b82805460ff60581b191691151560581b60ff60581b16919091179055565b8135815260c08101602083013561315481612f6e565b61ffff166020830152604083013561316b81612f88565b63ffffffff166040830152606083013561318481612f88565b63ffffffff166060830152608083013561319d81612c85565b60ff1660808301526131b160a08401612e96565b80151560a08401525092915050565b5f602082840312156131d0575f5ffd5b5051919050565b5f60a0820187835286602084015260a0604084015280865180835260c0850191506020880192505f5b818110156132275783516001600160a01b0316835260209384019390920191600101613200565b50506001600160a01b039590951660608401525050608001529392505050565b634e487b7160e01b5f52603260045260245ffd5b808201808211156124d5576124d5612f2f565b80820281158282048414176124d5576124d5612f2f565b634e487b7160e01b5f52601260045260245ffd5b5f826132a7576132a7613285565b500490565b5f826132ba576132ba613285565b50069056fea2646970667358221220bb9f34d2188e37cc42a122f58e8689076c2375f1c4b6054f4939352c78f2adec64736f6c634300081f0033",
			"opcodes": "PUSH1 0xC0 PUSH1 0x40 MSTORE PUSH1 0x3 DUP1 SLOAD PUSH1 0xFF PUSH1 0xA0 SHL NOT AND PUSH1 0x1 PUSH1 0xA0 SHL OR SWAP1 SSTORE CALLVALUE DUP1 ISZERO PUSH2 0x22 JUMPI PUSH0 PUSH0 REVERT JUMPDEST POP PUSH1 0x40 MLOAD PUSH2 0x3A85 CODESIZE SUB DUP1 PUSH2 0x3A85 DUP4 CODECOPY DUP2 ADD PUSH1 0x40 DUP2 SWAP1 MSTORE PUSH2 0x41 SWAP2 PUSH2 0x64F JUMP JUMPDEST CALLER DUP1 PUSH2 0x67 JUMPI PUSH1 0x40 MLOAD PUSH4 0x1E4FBDF7 PUSH1 0xE0 SHL DUP2 MSTORE PUSH0 PUSH1 0x4 DUP3 ADD MSTORE PUSH1 0x24 ADD JUMPDEST PUSH1 0x40 MLOAD DUP1 SWAP2 SUB SWAP1 REVERT JUMPDEST PUSH2 0x70 DUP2 PUSH2 0x38E JUMP JUMPDEST POP PUSH1 0x1 DUP1 SSTORE PUSH1 0x1 PUSH1 0x1 PUSH1 0xA0 SHL SUB DUP8 AND ISZERO DUP1 ISZERO SWAP1 PUSH2 0x95 JUMPI POP PUSH1 0x1 PUSH1 0x1 PUSH1 0xA0 SHL SUB DUP7 AND ISZERO ISZERO JUMPDEST DUP1 ISZERO PUSH2 0xA9 JUMPI POP PUSH1 0x1 PUSH1 0x1 PUSH1 0xA0 SHL SUB DUP6 AND ISZERO ISZERO JUMPDEST DUP1 ISZERO PUSH2 0xBD JUMPI POP PUSH1 0x1 PUSH1 0x1 PUSH1 0xA0 SHL SUB DUP5 AND ISZERO ISZERO JUMPDEST PUSH2 0xF5 JUMPI PUSH1 0x40 MLOAD PUSH3 0x461BCD PUSH1 0xE5 SHL DUP2 MSTORE PUSH1 0x20 PUSH1 0x4 DUP3 ADD MSTORE PUSH1 0x9 PUSH1 0x24 DUP3 ADD MSTORE PUSH9 0x3D32B9379030B23239 PUSH1 0xB9 SHL PUSH1 0x44 DUP3 ADD MSTORE PUSH1 0x64 ADD PUSH2 0x5E JUMP JUMPDEST PUSH1 0x1 PUSH1 0x1 PUSH1 0xA0 SHL SUB DUP8 DUP2 AND PUSH1 0x80 MSTORE DUP7 DUP2 AND PUSH1 0xA0 MSTORE PUSH1 0x2 DUP1 SLOAD PUSH1 0x1 PUSH1 0x1 PUSH1 0xA0 SHL SUB NOT SWAP1 DUP2 AND DUP9 DUP5 AND OR SWAP1 SWAP2 SSTORE PUSH1 0x3 DUP1 SLOAD SWAP1 SWAP2 AND SWAP2 DUP7 AND SWAP2 SWAP1 SWAP2 OR SWAP1 SSTORE PUSH2 0x139 DUP4 PUSH2 0x3DD JUMP JUMPDEST PUSH2 0x142 DUP3 PUSH2 0x3DD JUMP JUMPDEST PUSH2 0x14B DUP2 PUSH2 0x3DD JUMP JUMPDEST DUP3 PUSH1 0x5 PUSH0 DUP1 PUSH1 0xFF SWAP1 DUP2 AND DUP3 MSTORE PUSH1 0x20 DUP1 DUP4 ADD SWAP4 SWAP1 SWAP4 MSTORE PUSH1 0x40 SWAP2 DUP3 ADD PUSH0 SWAP1 DUP2 KECCAK256 DUP6 MLOAD DUP2 SSTORE SWAP4 DUP6 ADD MLOAD PUSH1 0x1 SWAP5 DUP6 ADD DUP1 SLOAD SWAP5 DUP8 ADD MLOAD PUSH1 0x60 DUP9 ADD MLOAD PUSH1 0x80 DUP10 ADD MLOAD PUSH1 0xA0 SWAP1 SWAP10 ADD MLOAD ISZERO ISZERO PUSH12 0x10000000000000000000000 MUL PUSH1 0xFF PUSH1 0x58 SHL NOT SWAP10 SWAP1 SWAP7 AND PUSH11 0x100000000000000000000 MUL PUSH1 0xFF PUSH1 0x50 SHL NOT PUSH4 0xFFFFFFFF SWAP3 DUP4 AND PUSH7 0x1000000000000 MUL AND PUSH5 0xFFFFFFFFFF PUSH1 0x30 SHL NOT SWAP3 SWAP1 SWAP4 AND PUSH3 0x10000 MUL PUSH6 0xFFFFFFFFFFFF NOT SWAP1 SWAP9 AND PUSH2 0xFFFF SWAP1 SWAP6 AND SWAP5 SWAP1 SWAP5 OR SWAP7 SWAP1 SWAP7 OR SWAP6 SWAP1 SWAP6 AND SWAP5 SWAP1 SWAP5 OR OR SWAP5 SWAP1 SWAP5 AND OR SWAP1 SSTORE DUP4 SWAP2 PUSH1 0x5 SWAP2 PUSH1 0xFF SWAP1 DUP2 AND DUP3 MSTORE PUSH1 0x20 DUP1 DUP4 ADD SWAP4 SWAP1 SWAP4 MSTORE PUSH1 0x40 SWAP2 DUP3 ADD PUSH0 SWAP1 DUP2 KECCAK256 DUP6 MLOAD DUP2 SSTORE SWAP4 DUP6 ADD MLOAD PUSH1 0x1 SWAP1 SWAP5 ADD DUP1 SLOAD SWAP4 DUP7 ADD MLOAD PUSH1 0x60 DUP8 ADD MLOAD PUSH1 0x80 DUP9 ADD MLOAD PUSH1 0xA0 SWAP1 SWAP9 ADD MLOAD PUSH2 0xFFFF SWAP1 SWAP8 AND PUSH6 0xFFFFFFFFFFFF NOT SWAP1 SWAP7 AND SWAP6 SWAP1 SWAP6 OR PUSH3 0x10000 PUSH4 0xFFFFFFFF SWAP3 DUP4 AND MUL OR PUSH5 0xFFFFFFFFFF PUSH1 0x30 SHL NOT AND PUSH7 0x1000000000000 SWAP2 SWAP1 SWAP6 AND MUL PUSH1 0xFF PUSH1 0x50 SHL NOT AND SWAP4 SWAP1 SWAP4 OR PUSH11 0x100000000000000000000 SWAP6 SWAP1 SWAP3 AND SWAP5 SWAP1 SWAP5 MUL OR PUSH1 0xFF PUSH1 0x58 SHL NOT AND PUSH12 0x10000000000000000000000 SWAP3 ISZERO ISZERO SWAP3 SWAP1 SWAP3 MUL SWAP2 SWAP1 SWAP2 OR SWAP1 SSTORE DUP2 SWAP1 PUSH1 0x5 SWAP1 PUSH1 0x2 PUSH1 0xFF SWAP1 DUP2 AND DUP3 MSTORE PUSH1 0x20 DUP1 DUP4 ADD SWAP4 SWAP1 SWAP4 MSTORE PUSH1 0x40 SWAP2 DUP3 ADD PUSH0 KECCAK256 DUP5 MLOAD DUP2 SSTORE SWAP3 DUP5 ADD MLOAD PUSH1 0x1 SWAP1 SWAP4 ADD DUP1 SLOAD SWAP3 DUP6 ADD MLOAD PUSH1 0x60 DUP7 ADD MLOAD PUSH1 0x80 DUP8 ADD MLOAD PUSH1 0xA0 SWAP1 SWAP8 ADD MLOAD PUSH2 0xFFFF SWAP1 SWAP7 AND PUSH6 0xFFFFFFFFFFFF NOT SWAP1 SWAP6 AND SWAP5 SWAP1 SWAP5 OR PUSH3 0x10000 PUSH4 0xFFFFFFFF SWAP3 DUP4 AND MUL OR PUSH5 0xFFFFFFFFFF PUSH1 0x30 SHL NOT AND PUSH7 0x1000000000000 SWAP2 SWAP1 SWAP5 AND MUL PUSH1 0xFF PUSH1 0x50 SHL NOT AND SWAP3 SWAP1 SWAP3 OR PUSH11 0x100000000000000000000 SWAP5 SWAP1 SWAP2 AND SWAP4 SWAP1 SWAP4 MUL SWAP3 SWAP1 SWAP3 OR PUSH1 0xFF PUSH1 0x58 SHL NOT AND PUSH12 0x10000000000000000000000 SWAP2 ISZERO ISZERO SWAP2 SWAP1 SWAP2 MUL OR SWAP1 SSTORE POP PUSH2 0x6FF SWAP6 POP POP POP POP POP POP JUMP JUMPDEST PUSH0 DUP1 SLOAD PUSH1 0x1 PUSH1 0x1 PUSH1 0xA0 SHL SUB DUP4 DUP2 AND PUSH1 0x1 PUSH1 0x1 PUSH1 0xA0 SHL SUB NOT DUP4 AND DUP2 OR DUP5 SSTORE PUSH1 0x40 MLOAD SWAP2 SWAP1 SWAP3 AND SWAP3 DUP4 SWAP2 PUSH32 0x8BE0079C531659141344CD1FD0A4F28419497F9722A3DAAFE3B4186F6B6457E0 SWAP2 SWAP1 LOG3 POP POP JUMP JUMPDEST DUP1 PUSH1 0x20 ADD MLOAD PUSH2 0xFFFF AND PUSH2 0x3E8 EQ PUSH2 0x428 JUMPI PUSH1 0x40 MLOAD PUSH3 0x461BCD PUSH1 0xE5 SHL DUP2 MSTORE PUSH1 0x20 PUSH1 0x4 DUP3 ADD MSTORE PUSH1 0xF PUSH1 0x24 DUP3 ADD MSTORE PUSH15 0x666565206D75737420626520313025 PUSH1 0x88 SHL PUSH1 0x44 DUP3 ADD MSTORE PUSH1 0x64 ADD PUSH2 0x5E JUMP JUMPDEST PUSH1 0x3C DUP2 PUSH1 0x40 ADD MLOAD PUSH4 0xFFFFFFFF AND EQ PUSH2 0x477 JUMPI PUSH1 0x40 MLOAD PUSH3 0x461BCD PUSH1 0xE5 SHL DUP2 MSTORE PUSH1 0x20 PUSH1 0x4 DUP3 ADD MSTORE PUSH1 0x12 PUSH1 0x24 DUP3 ADD MSTORE PUSH18 0x6D696E4C6F636B206D757374206265203179 PUSH1 0x70 SHL PUSH1 0x44 DUP3 ADD MSTORE PUSH1 0x64 ADD PUSH2 0x5E JUMP JUMPDEST PUSH2 0x483 PUSH1 0x3C PUSH1 0x5 PUSH2 0x6D6 JUMP JUMPDEST DUP2 PUSH1 0x60 ADD MLOAD PUSH4 0xFFFFFFFF AND EQ PUSH2 0x4D0 JUMPI PUSH1 0x40 MLOAD PUSH3 0x461BCD PUSH1 0xE5 SHL DUP2 MSTORE PUSH1 0x20 PUSH1 0x4 DUP3 ADD MSTORE PUSH1 0x12 PUSH1 0x24 DUP3 ADD MSTORE PUSH18 0x6D61784C6F636B206D757374206265203579 PUSH1 0x70 SHL PUSH1 0x44 DUP3 ADD MSTORE PUSH1 0x64 ADD PUSH2 0x5E JUMP JUMPDEST DUP1 MLOAD PUSH2 0x509 JUMPI PUSH1 0x40 MLOAD PUSH3 0x461BCD PUSH1 0xE5 SHL DUP2 MSTORE PUSH1 0x20 PUSH1 0x4 DUP3 ADD MSTORE PUSH1 0x8 PUSH1 0x24 DUP3 ADD MSTORE PUSH8 0x6D696E5573643D3 PUSH1 0xC4 SHL PUSH1 0x44 DUP3 ADD MSTORE PUSH1 0x64 ADD PUSH2 0x5E JUMP JUMPDEST DUP1 PUSH1 0xA0 ADD MLOAD PUSH2 0x54A JUMPI PUSH1 0x40 MLOAD PUSH3 0x461BCD PUSH1 0xE5 SHL DUP2 MSTORE PUSH1 0x20 PUSH1 0x4 DUP3 ADD MSTORE PUSH1 0xD PUSH1 0x24 DUP3 ADD MSTORE PUSH13 0x34B730B1BA34BB32903A34B2B9 PUSH1 0x99 SHL PUSH1 0x44 DUP3 ADD MSTORE PUSH1 0x64 ADD PUSH2 0x5E JUMP JUMPDEST POP JUMP JUMPDEST DUP1 MLOAD PUSH1 0x1 PUSH1 0x1 PUSH1 0xA0 SHL SUB DUP2 AND DUP2 EQ PUSH2 0x563 JUMPI PUSH0 PUSH0 REVERT JUMPDEST SWAP2 SWAP1 POP JUMP JUMPDEST DUP1 MLOAD PUSH2 0xFFFF DUP2 AND DUP2 EQ PUSH2 0x563 JUMPI PUSH0 PUSH0 REVERT JUMPDEST DUP1 MLOAD PUSH4 0xFFFFFFFF DUP2 AND DUP2 EQ PUSH2 0x563 JUMPI PUSH0 PUSH0 REVERT JUMPDEST DUP1 MLOAD PUSH1 0xFF DUP2 AND DUP2 EQ PUSH2 0x563 JUMPI PUSH0 PUSH0 REVERT JUMPDEST DUP1 MLOAD DUP1 ISZERO ISZERO DUP2 EQ PUSH2 0x563 JUMPI PUSH0 PUSH0 REVERT JUMPDEST PUSH0 PUSH1 0xC0 DUP3 DUP5 SUB SLT ISZERO PUSH2 0x5BB JUMPI PUSH0 PUSH0 REVERT JUMPDEST PUSH1 0x40 MLOAD PUSH1 0xC0 DUP2 ADD PUSH1 0x1 PUSH1 0x1 PUSH1 0x40 SHL SUB DUP2 GT DUP3 DUP3 LT OR ISZERO PUSH2 0x5E9 JUMPI PUSH4 0x4E487B71 PUSH1 0xE0 SHL PUSH0 MSTORE PUSH1 0x41 PUSH1 0x4 MSTORE PUSH1 0x24 PUSH0 REVERT JUMPDEST PUSH1 0x40 MSTORE DUP3 MLOAD DUP2 MSTORE SWAP1 POP DUP1 PUSH2 0x5FF PUSH1 0x20 DUP5 ADD PUSH2 0x568 JUMP JUMPDEST PUSH1 0x20 DUP3 ADD MSTORE PUSH2 0x610 PUSH1 0x40 DUP5 ADD PUSH2 0x579 JUMP JUMPDEST PUSH1 0x40 DUP3 ADD MSTORE PUSH2 0x621 PUSH1 0x60 DUP5 ADD PUSH2 0x579 JUMP JUMPDEST PUSH1 0x60 DUP3 ADD MSTORE PUSH2 0x632 PUSH1 0x80 DUP5 ADD PUSH2 0x58C JUMP JUMPDEST PUSH1 0x80 DUP3 ADD MSTORE PUSH2 0x643 PUSH1 0xA0 DUP5 ADD PUSH2 0x59C JUMP JUMPDEST PUSH1 0xA0 DUP3 ADD MSTORE POP SWAP3 SWAP2 POP POP JUMP JUMPDEST PUSH0 PUSH0 PUSH0 PUSH0 PUSH0 PUSH0 PUSH0 PUSH2 0x2C0 DUP9 DUP11 SUB SLT ISZERO PUSH2 0x666 JUMPI PUSH0 PUSH0 REVERT JUMPDEST PUSH2 0x66F DUP9 PUSH2 0x54D JUMP JUMPDEST SWAP7 POP PUSH2 0x67D PUSH1 0x20 DUP10 ADD PUSH2 0x54D JUMP JUMPDEST SWAP6 POP PUSH2 0x68B PUSH1 0x40 DUP10 ADD PUSH2 0x54D JUMP JUMPDEST SWAP5 POP PUSH2 0x699 PUSH1 0x60 DUP10 ADD PUSH2 0x54D JUMP JUMPDEST SWAP4 POP PUSH2 0x6A8 DUP10 PUSH1 0x80 DUP11 ADD PUSH2 0x5AB JUMP JUMPDEST SWAP3 POP PUSH2 0x6B8 DUP10 PUSH2 0x140 DUP11 ADD PUSH2 0x5AB JUMP JUMPDEST SWAP2 POP PUSH2 0x6C8 DUP10 PUSH2 0x200 DUP11 ADD PUSH2 0x5AB JUMP JUMPDEST SWAP1 POP SWAP3 SWAP6 SWAP9 SWAP2 SWAP5 SWAP8 POP SWAP3 SWAP6 POP JUMP JUMPDEST DUP1 DUP3 MUL DUP2 ISZERO DUP3 DUP3 DIV DUP5 EQ OR PUSH2 0x6F9 JUMPI PUSH4 0x4E487B71 PUSH1 0xE0 SHL PUSH0 MSTORE PUSH1 0x11 PUSH1 0x4 MSTORE PUSH1 0x24 PUSH0 REVERT JUMPDEST SWAP3 SWAP2 POP POP JUMP JUMPDEST PUSH1 0x80 MLOAD PUSH1 0xA0 MLOAD PUSH2 0x32F5 PUSH2 0x790 PUSH0 CODECOPY PUSH0 DUP2 DUP2 PUSH2 0x367 ADD MSTORE DUP2 DUP2 PUSH2 0x9EC ADD MSTORE DUP2 DUP2 PUSH2 0xABF ADD MSTORE DUP2 DUP2 PUSH2 0xAF9 ADD MSTORE DUP2 DUP2 PUSH2 0xB28 ADD MSTORE DUP2 DUP2 PUSH2 0x15FB ADD MSTORE DUP2 DUP2 PUSH2 0x16BE ADD MSTORE DUP2 DUP2 PUSH2 0x177C ADD MSTORE DUP2 DUP2 PUSH2 0x17B6 ADD MSTORE PUSH2 0x17E5 ADD MSTORE PUSH0 DUP2 DUP2 PUSH2 0x51F ADD MSTORE DUP2 DUP2 PUSH2 0xB49 ADD MSTORE DUP2 DUP2 PUSH2 0xB8F ADD MSTORE DUP2 DUP2 PUSH2 0xC7F ADD MSTORE DUP2 DUP2 PUSH2 0x109A ADD MSTORE DUP2 DUP2 PUSH2 0x1806 ADD MSTORE DUP2 DUP2 PUSH2 0x184C ADD MSTORE PUSH2 0x193C ADD MSTORE PUSH2 0x32F5 PUSH0 RETURN INVALID PUSH1 0x80 PUSH1 0x40 MSTORE CALLVALUE DUP1 ISZERO PUSH2 0xF JUMPI PUSH0 PUSH0 REVERT JUMPDEST POP PUSH1 0x4 CALLDATASIZE LT PUSH2 0x26B JUMPI PUSH0 CALLDATALOAD PUSH1 0xE0 SHR DUP1 PUSH4 0x7879E84B GT PUSH2 0x14B JUMPI DUP1 PUSH4 0xC0D78655 GT PUSH2 0xBF JUMPI DUP1 PUSH4 0xD21CACDF GT PUSH2 0x84 JUMPI DUP1 PUSH4 0xD21CACDF EQ PUSH2 0x6F6 JUMPI DUP1 PUSH4 0xEF35BF54 EQ PUSH2 0x71E JUMPI DUP1 PUSH4 0xF2FDE38B EQ PUSH2 0x732 JUMPI DUP1 PUSH4 0xF5E89CAA EQ PUSH2 0x745 JUMPI DUP1 PUSH4 0xF8764CEC EQ PUSH2 0x2C6 JUMPI DUP1 PUSH4 0xF887EA40 EQ PUSH2 0x74D JUMPI PUSH0 PUSH0 REVERT JUMPDEST DUP1 PUSH4 0xC0D78655 EQ PUSH2 0x5EE JUMPI DUP1 PUSH4 0xC415B95C EQ PUSH2 0x601 JUMPI DUP1 PUSH4 0xC6B61E4C EQ PUSH2 0x614 JUMPI DUP1 PUSH4 0xC9E18B18 EQ PUSH2 0x655 JUMPI DUP1 PUSH4 0xD1D79974 EQ PUSH2 0x65E JUMPI PUSH0 PUSH0 REVERT JUMPDEST DUP1 PUSH4 0x9163F0BD GT PUSH2 0x110 JUMPI DUP1 PUSH4 0x9163F0BD EQ PUSH2 0x586 JUMPI DUP1 PUSH4 0x916E1C57 EQ PUSH2 0x599 JUMPI DUP1 PUSH4 0xA42DCE80 EQ PUSH2 0x5A2 JUMPI DUP1 PUSH4 0xA4E090C5 EQ PUSH2 0x5B5 JUMPI DUP1 PUSH4 0xAE0B51DF EQ PUSH2 0x5C8 JUMPI DUP1 PUSH4 0xB26C71A8 EQ PUSH2 0x5DB JUMPI PUSH0 PUSH0 REVERT JUMPDEST DUP1 PUSH4 0x7879E84B EQ PUSH2 0x51A JUMPI DUP1 PUSH4 0x7A4E4ECF EQ PUSH2 0x541 JUMPI DUP1 PUSH4 0x7EB73388 EQ PUSH2 0x554 JUMPI DUP1 PUSH4 0x8456CB59 EQ PUSH2 0x56E JUMPI DUP1 PUSH4 0x8DA5CB5B EQ PUSH2 0x576 JUMPI PUSH0 PUSH0 REVERT JUMPDEST DUP1 PUSH4 0x3F67AEFC GT PUSH2 0x1E2 JUMPI DUP1 PUSH4 0x65A5D5F0 GT PUSH2 0x1A7 JUMPI DUP1 PUSH4 0x65A5D5F0 EQ PUSH2 0x449 JUMPI DUP1 PUSH4 0x6F9A8153 EQ PUSH2 0x451 JUMPI DUP1 PUSH4 0x715018A6 EQ PUSH2 0x45A JUMPI DUP1 PUSH4 0x719F3089 EQ PUSH2 0x462 JUMPI DUP1 PUSH4 0x745F2A04 EQ PUSH2 0x482 JUMPI DUP1 PUSH4 0x778B7D0A EQ PUSH2 0x4AF JUMPI PUSH0 PUSH0 REVERT JUMPDEST DUP1 PUSH4 0x3F67AEFC EQ PUSH2 0x3F6 JUMPI DUP1 PUSH4 0x4B081966 EQ PUSH2 0x3FF JUMPI DUP1 PUSH4 0x4E1595B3 EQ PUSH2 0x412 JUMPI DUP1 PUSH4 0x5C975ABB EQ PUSH2 0x425 JUMPI DUP1 PUSH4 0x6289030B EQ PUSH2 0x436 JUMPI PUSH0 PUSH0 REVERT JUMPDEST DUP1 PUSH4 0x24DD80AE GT PUSH2 0x233 JUMPI DUP1 PUSH4 0x24DD80AE EQ PUSH2 0x302 JUMPI DUP1 PUSH4 0x2BB4B0CA EQ PUSH2 0x33C JUMPI DUP1 PUSH4 0x2E1A7D4D EQ PUSH2 0x34F JUMPI DUP1 PUSH4 0x2F48AB7D EQ PUSH2 0x362 JUMPI DUP1 PUSH4 0x35C06A32 EQ PUSH2 0x3A1 JUMPI DUP1 PUSH4 0x3F4BA83A EQ PUSH2 0x3EE JUMPI PUSH0 PUSH0 REVERT JUMPDEST DUP1 PUSH4 0x120AA877 EQ PUSH2 0x26F JUMPI DUP1 PUSH4 0x141C7B52 EQ PUSH2 0x2B1 JUMPI DUP1 PUSH4 0x16D3BFBB EQ PUSH2 0x2C6 JUMPI DUP1 PUSH4 0x1B635DB5 EQ PUSH2 0x2DC JUMPI DUP1 PUSH4 0x214BF8B6 EQ PUSH2 0x2EF JUMPI JUMPDEST PUSH0 PUSH0 REVERT JUMPDEST PUSH2 0x29C PUSH2 0x27D CALLDATASIZE PUSH1 0x4 PUSH2 0x2C28 JUMP JUMPDEST PUSH1 0xB PUSH1 0x20 SWAP1 DUP2 MSTORE PUSH0 SWAP3 DUP4 MSTORE PUSH1 0x40 DUP1 DUP5 KECCAK256 SWAP1 SWAP2 MSTORE SWAP1 DUP3 MSTORE SWAP1 KECCAK256 SLOAD PUSH1 0xFF AND DUP2 JUMP JUMPDEST PUSH1 0x40 MLOAD SWAP1 ISZERO ISZERO DUP2 MSTORE PUSH1 0x20 ADD JUMPDEST PUSH1 0x40 MLOAD DUP1 SWAP2 SUB SWAP1 RETURN JUMPDEST PUSH2 0x2C4 PUSH2 0x2BF CALLDATASIZE PUSH1 0x4 PUSH2 0x2C52 JUMP JUMPDEST PUSH2 0x760 JUMP JUMPDEST STOP JUMPDEST PUSH2 0x2CE PUSH1 0x3C DUP2 JUMP JUMPDEST PUSH1 0x40 MLOAD SWAP1 DUP2 MSTORE PUSH1 0x20 ADD PUSH2 0x2A8 JUMP JUMPDEST PUSH2 0x2C4 PUSH2 0x2EA CALLDATASIZE PUSH1 0x4 PUSH2 0x2C9E JUMP JUMPDEST PUSH2 0x8F7 JUMP JUMPDEST PUSH2 0x2C4 PUSH2 0x2FD CALLDATASIZE PUSH1 0x4 PUSH2 0x2CDC JUMP JUMPDEST PUSH2 0x9BD JUMP JUMPDEST PUSH2 0x327 PUSH2 0x310 CALLDATASIZE PUSH1 0x4 PUSH2 0x2CFC JUMP JUMPDEST PUSH1 0x8 PUSH1 0x20 MSTORE PUSH0 SWAP1 DUP2 MSTORE PUSH1 0x40 SWAP1 KECCAK256 SLOAD PUSH4 0xFFFFFFFF AND DUP2 JUMP JUMPDEST PUSH1 0x40 MLOAD PUSH4 0xFFFFFFFF SWAP1 SWAP2 AND DUP2 MSTORE PUSH1 0x20 ADD PUSH2 0x2A8 JUMP JUMPDEST PUSH2 0x2C4 PUSH2 0x34A CALLDATASIZE PUSH1 0x4 PUSH2 0x2D15 JUMP JUMPDEST PUSH2 0xD44 JUMP JUMPDEST PUSH2 0x2C4 PUSH2 0x35D CALLDATASIZE PUSH1 0x4 PUSH2 0x2D94 JUMP JUMPDEST PUSH2 0xF62 JUMP JUMPDEST PUSH2 0x389 PUSH32 0x0 DUP2 JUMP JUMPDEST PUSH1 0x40 MLOAD PUSH1 0x1 PUSH1 0x1 PUSH1 0xA0 SHL SUB SWAP1 SWAP2 AND DUP2 MSTORE PUSH1 0x20 ADD PUSH2 0x2A8 JUMP JUMPDEST PUSH2 0x3B4 PUSH2 0x3AF CALLDATASIZE PUSH1 0x4 PUSH2 0x2DAB JUMP JUMPDEST PUSH2 0x1108 JUMP JUMPDEST PUSH1 0x40 DUP1 MLOAD SWAP6 DUP7 MSTORE PUSH8 0xFFFFFFFFFFFFFFFF SWAP5 DUP6 AND PUSH1 0x20 DUP8 ADD MSTORE SWAP3 SWAP1 SWAP4 AND SWAP2 DUP5 ADD SWAP2 SWAP1 SWAP2 MSTORE PUSH1 0xFF AND PUSH1 0x60 DUP4 ADD MSTORE ISZERO ISZERO PUSH1 0x80 DUP3 ADD MSTORE PUSH1 0xA0 ADD PUSH2 0x2A8 JUMP JUMPDEST PUSH2 0x2C4 PUSH2 0x1169 JUMP JUMPDEST PUSH2 0x2CE PUSH1 0xD SLOAD DUP2 JUMP JUMPDEST PUSH2 0x29C PUSH2 0x40D CALLDATASIZE PUSH1 0x4 PUSH2 0x2DD3 JUMP JUMPDEST PUSH2 0x117B JUMP JUMPDEST PUSH2 0x2C4 PUSH2 0x420 CALLDATASIZE PUSH1 0x4 PUSH2 0x2DAB JUMP JUMPDEST PUSH2 0x11B8 JUMP JUMPDEST PUSH0 SLOAD PUSH1 0x1 PUSH1 0xA0 SHL SWAP1 DIV PUSH1 0xFF AND PUSH2 0x29C JUMP JUMPDEST PUSH2 0x2C4 PUSH2 0x444 CALLDATASIZE PUSH1 0x4 PUSH2 0x2DAB JUMP JUMPDEST PUSH2 0x1210 JUMP JUMPDEST PUSH2 0x2CE PUSH2 0x129F JUMP JUMPDEST PUSH2 0x2CE PUSH1 0xC SLOAD DUP2 JUMP JUMPDEST PUSH2 0x2C4 PUSH2 0x12AE JUMP JUMPDEST PUSH2 0x475 PUSH2 0x470 CALLDATASIZE PUSH1 0x4 PUSH2 0x2CFC JUMP JUMPDEST PUSH2 0x12BF JUMP JUMPDEST PUSH1 0x40 MLOAD PUSH2 0x2A8 SWAP2 SWAP1 PUSH2 0x2DFE JUMP JUMPDEST PUSH2 0x29C PUSH2 0x490 CALLDATASIZE PUSH1 0x4 PUSH2 0x2C28 JUMP JUMPDEST PUSH1 0xF PUSH1 0x20 SWAP1 DUP2 MSTORE PUSH0 SWAP3 DUP4 MSTORE PUSH1 0x40 DUP1 DUP5 KECCAK256 SWAP1 SWAP2 MSTORE SWAP1 DUP3 MSTORE SWAP1 KECCAK256 SLOAD PUSH1 0xFF AND DUP2 JUMP JUMPDEST PUSH2 0x4F0 PUSH2 0x4BD CALLDATASIZE PUSH1 0x4 PUSH2 0x2D94 JUMP JUMPDEST PUSH1 0xE PUSH1 0x20 MSTORE PUSH0 SWAP1 DUP2 MSTORE PUSH1 0x40 SWAP1 KECCAK256 DUP1 SLOAD PUSH1 0x1 DUP3 ADD SLOAD PUSH1 0x2 DUP4 ADD SLOAD PUSH1 0x3 SWAP1 SWAP4 ADD SLOAD SWAP2 SWAP3 PUSH1 0x1 PUSH1 0x1 PUSH1 0xA0 SHL SUB SWAP1 SWAP2 AND SWAP2 PUSH1 0xFF AND DUP5 JUMP JUMPDEST PUSH1 0x40 DUP1 MLOAD SWAP5 DUP6 MSTORE PUSH1 0x1 PUSH1 0x1 PUSH1 0xA0 SHL SUB SWAP1 SWAP4 AND PUSH1 0x20 DUP6 ADD MSTORE SWAP2 DUP4 ADD MSTORE ISZERO ISZERO PUSH1 0x60 DUP3 ADD MSTORE PUSH1 0x80 ADD PUSH2 0x2A8 JUMP JUMPDEST PUSH2 0x389 PUSH32 0x0 DUP2 JUMP JUMPDEST PUSH2 0x2C4 PUSH2 0x54F CALLDATASIZE PUSH1 0x4 PUSH2 0x2DAB JUMP JUMPDEST PUSH2 0x137C JUMP JUMPDEST PUSH2 0x55C PUSH1 0x5 DUP2 JUMP JUMPDEST PUSH1 0x40 MLOAD PUSH1 0xFF SWAP1 SWAP2 AND DUP2 MSTORE PUSH1 0x20 ADD PUSH2 0x2A8 JUMP JUMPDEST PUSH2 0x2C4 PUSH2 0x13D3 JUMP JUMPDEST PUSH0 SLOAD PUSH1 0x1 PUSH1 0x1 PUSH1 0xA0 SHL SUB AND PUSH2 0x389 JUMP JUMPDEST PUSH2 0x2C4 PUSH2 0x594 CALLDATASIZE PUSH1 0x4 PUSH2 0x2EA1 JUMP JUMPDEST PUSH2 0x13E3 JUMP JUMPDEST PUSH2 0x2CE PUSH1 0x9 SLOAD DUP2 JUMP JUMPDEST PUSH2 0x2C4 PUSH2 0x5B0 CALLDATASIZE PUSH1 0x4 PUSH2 0x2CFC JUMP JUMPDEST PUSH2 0x1443 JUMP JUMPDEST PUSH2 0x2C4 PUSH2 0x5C3 CALLDATASIZE PUSH1 0x4 PUSH2 0x2EBC JUMP JUMPDEST PUSH2 0x14D3 JUMP JUMPDEST PUSH2 0x2C4 PUSH2 0x5D6 CALLDATASIZE PUSH1 0x4 PUSH2 0x2D15 JUMP JUMPDEST PUSH2 0x1B69 JUMP JUMPDEST PUSH2 0x2C4 PUSH2 0x5E9 CALLDATASIZE PUSH1 0x4 PUSH2 0x2C52 JUMP JUMPDEST PUSH2 0x1E1A JUMP JUMPDEST PUSH2 0x2C4 PUSH2 0x5FC CALLDATASIZE PUSH1 0x4 PUSH2 0x2CFC JUMP JUMPDEST PUSH2 0x1FF0 JUMP JUMPDEST PUSH1 0x3 SLOAD PUSH2 0x389 SWAP1 PUSH1 0x1 PUSH1 0x1 PUSH1 0xA0 SHL SUB AND DUP2 JUMP JUMPDEST PUSH2 0x4F0 PUSH2 0x622 CALLDATASIZE PUSH1 0x4 PUSH2 0x2D94 JUMP JUMPDEST PUSH1 0xA PUSH1 0x20 MSTORE PUSH0 SWAP1 DUP2 MSTORE PUSH1 0x40 SWAP1 KECCAK256 DUP1 SLOAD PUSH1 0x1 DUP3 ADD SLOAD PUSH1 0x2 DUP4 ADD SLOAD PUSH1 0x3 SWAP1 SWAP4 ADD SLOAD SWAP2 SWAP3 PUSH1 0x1 PUSH1 0x1 PUSH1 0xA0 SHL SUB SWAP1 SWAP2 AND SWAP2 PUSH1 0xFF AND DUP5 JUMP JUMPDEST PUSH2 0x2CE PUSH1 0x4 SLOAD DUP2 JUMP JUMPDEST PUSH2 0x6B7 PUSH2 0x66C CALLDATASIZE PUSH1 0x4 PUSH2 0x2F14 JUMP JUMPDEST PUSH1 0x5 PUSH1 0x20 MSTORE PUSH0 SWAP1 DUP2 MSTORE PUSH1 0x40 SWAP1 KECCAK256 DUP1 SLOAD PUSH1 0x1 SWAP1 SWAP2 ADD SLOAD PUSH2 0xFFFF DUP2 AND SWAP1 PUSH4 0xFFFFFFFF PUSH3 0x10000 DUP3 DIV DUP2 AND SWAP2 PUSH1 0x1 PUSH1 0x30 SHL DUP2 DIV SWAP1 SWAP2 AND SWAP1 PUSH1 0xFF PUSH1 0x1 PUSH1 0x50 SHL DUP3 DIV DUP2 AND SWAP2 PUSH1 0x1 PUSH1 0x58 SHL SWAP1 DIV AND DUP7 JUMP JUMPDEST PUSH1 0x40 DUP1 MLOAD SWAP7 DUP8 MSTORE PUSH2 0xFFFF SWAP1 SWAP6 AND PUSH1 0x20 DUP8 ADD MSTORE PUSH4 0xFFFFFFFF SWAP4 DUP5 AND SWAP5 DUP7 ADD SWAP5 SWAP1 SWAP5 MSTORE SWAP2 AND PUSH1 0x60 DUP5 ADD MSTORE PUSH1 0xFF AND PUSH1 0x80 DUP4 ADD MSTORE ISZERO ISZERO PUSH1 0xA0 DUP3 ADD MSTORE PUSH1 0xC0 ADD PUSH2 0x2A8 JUMP JUMPDEST PUSH2 0x389 PUSH2 0x704 CALLDATASIZE PUSH1 0x4 PUSH2 0x2CFC JUMP JUMPDEST PUSH1 0x7 PUSH1 0x20 MSTORE PUSH0 SWAP1 DUP2 MSTORE PUSH1 0x40 SWAP1 KECCAK256 SLOAD PUSH1 0x1 PUSH1 0x1 PUSH1 0xA0 SHL SUB AND DUP2 JUMP JUMPDEST PUSH1 0x3 SLOAD PUSH2 0x29C SWAP1 PUSH1 0x1 PUSH1 0xA0 SHL SWAP1 DIV PUSH1 0xFF AND DUP2 JUMP JUMPDEST PUSH2 0x2C4 PUSH2 0x740 CALLDATASIZE PUSH1 0x4 PUSH2 0x2CFC JUMP JUMPDEST PUSH2 0x2080 JUMP JUMPDEST PUSH1 0xC SLOAD PUSH2 0x2CE JUMP JUMPDEST PUSH1 0x2 SLOAD PUSH2 0x389 SWAP1 PUSH1 0x1 PUSH1 0x1 PUSH1 0xA0 SHL SUB AND DUP2 JUMP JUMPDEST PUSH2 0x768 PUSH2 0x20BA JUMP JUMPDEST DUP3 ISZERO DUP1 ISZERO SWAP1 PUSH2 0x77F JUMPI POP PUSH1 0x1 PUSH1 0x1 PUSH1 0xA0 SHL SUB DUP3 AND ISZERO ISZERO JUMPDEST DUP1 ISZERO PUSH2 0x78A JUMPI POP PUSH0 DUP2 GT JUMPDEST PUSH2 0x7C7 JUMPI PUSH1 0x40 MLOAD PUSH3 0x461BCD PUSH1 0xE5 SHL DUP2 MSTORE PUSH1 0x20 PUSH1 0x4 DUP3 ADD MSTORE PUSH1 0x9 PUSH1 0x24 DUP3 ADD MSTORE PUSH9 0xC4C2C840CAE0DEC6D PUSH1 0xBB SHL PUSH1 0x44 DUP3 ADD MSTORE PUSH1 0x64 ADD JUMPDEST PUSH1 0x40 MLOAD DUP1 SWAP2 SUB SWAP1 REVERT JUMPDEST DUP1 PUSH1 0xC SLOAD LT ISZERO PUSH2 0x811 JUMPI PUSH1 0x40 MLOAD PUSH3 0x461BCD PUSH1 0xE5 SHL DUP2 MSTORE PUSH1 0x20 PUSH1 0x4 DUP3 ADD MSTORE PUSH1 0x15 PUSH1 0x24 DUP3 ADD MSTORE PUSH21 0x1A5B9CDD59999A58DA595B9D08159254081C1BDBDB PUSH1 0x5A SHL PUSH1 0x44 DUP3 ADD MSTORE PUSH1 0x64 ADD PUSH2 0x7BE JUMP JUMPDEST PUSH1 0x40 DUP1 MLOAD PUSH1 0x80 DUP2 ADD DUP3 MSTORE DUP5 DUP2 MSTORE PUSH1 0x1 PUSH1 0x1 PUSH1 0xA0 SHL SUB DUP5 DUP2 AND PUSH1 0x20 DUP1 DUP5 ADD SWAP2 DUP3 MSTORE DUP4 DUP6 ADD DUP7 DUP2 MSTORE PUSH1 0x1 PUSH1 0x60 DUP7 ADD DUP2 DUP2 MSTORE PUSH1 0xD SLOAD PUSH0 SWAP1 DUP2 MSTORE PUSH1 0xE SWAP1 SWAP5 MSTORE SWAP7 DUP4 KECCAK256 SWAP6 MLOAD DUP7 SSTORE SWAP3 MLOAD SWAP3 DUP6 ADD DUP1 SLOAD PUSH1 0x1 PUSH1 0x1 PUSH1 0xA0 SHL SUB NOT AND SWAP4 SWAP1 SWAP5 AND SWAP3 SWAP1 SWAP3 OR SWAP1 SWAP3 SSTORE MLOAD PUSH1 0x2 DUP4 ADD SSTORE SWAP2 MLOAD PUSH1 0x3 SWAP1 SWAP2 ADD DUP1 SLOAD PUSH1 0xFF NOT AND SWAP2 ISZERO ISZERO SWAP2 SWAP1 SWAP2 OR SWAP1 SSTORE PUSH1 0xC DUP1 SLOAD DUP4 SWAP3 SWAP1 PUSH2 0x89D SWAP1 DUP5 SWAP1 PUSH2 0x2F43 JUMP JUMPDEST SWAP1 SWAP2 SSTORE POP POP PUSH1 0xD SLOAD PUSH1 0x40 DUP1 MLOAD DUP6 DUP2 MSTORE PUSH1 0x20 DUP2 ADD DUP5 SWAP1 MSTORE PUSH32 0x4A5F24B675C9D32605B03740C01ECCD588D896164975755F7B77633C1D311CDE SWAP2 ADD PUSH1 0x40 MLOAD DUP1 SWAP2 SUB SWAP1 LOG2 PUSH1 0xD DUP1 SLOAD SWAP1 PUSH0 PUSH2 0x8ED DUP4 PUSH2 0x2F56 JUMP JUMPDEST SWAP2 SWAP1 POP SSTORE POP POP POP POP JUMP JUMPDEST PUSH2 0x8FF PUSH2 0x20BA JUMP JUMPDEST PUSH1 0x2 NOT PUSH1 0xFF DUP4 AND ADD PUSH2 0x947 JUMPI PUSH1 0x40 MLOAD PUSH3 0x461BCD PUSH1 0xE5 SHL DUP2 MSTORE PUSH1 0x20 PUSH1 0x4 DUP3 ADD MSTORE PUSH1 0x11 PUSH1 0x24 DUP3 ADD MSTORE PUSH17 0x637573746F6D2069732064796E616D6963 PUSH1 0x78 SHL PUSH1 0x44 DUP3 ADD MSTORE PUSH1 0x64 ADD PUSH2 0x7BE JUMP JUMPDEST PUSH2 0x95E PUSH2 0x959 CALLDATASIZE DUP4 SWAP1 SUB DUP4 ADD DUP4 PUSH2 0x2FA4 JUMP JUMPDEST PUSH2 0x20E6 JUMP JUMPDEST PUSH1 0xFF DUP3 AND PUSH0 SWAP1 DUP2 MSTORE PUSH1 0x5 PUSH1 0x20 MSTORE PUSH1 0x40 SWAP1 KECCAK256 DUP2 SWAP1 PUSH2 0x97B DUP3 DUP3 PUSH2 0x3060 JUMP JUMPDEST SWAP1 POP POP DUP2 PUSH1 0xFF AND PUSH32 0xB301D171FA8A7242AFC80588CF687E5E64658FFCD9AAFF289FAD202FE7F880A1 DUP3 PUSH1 0x40 MLOAD PUSH2 0x9B1 SWAP2 SWAP1 PUSH2 0x313E JUMP JUMPDEST PUSH1 0x40 MLOAD DUP1 SWAP2 SUB SWAP1 LOG2 POP POP JUMP JUMPDEST PUSH2 0x9C5 PUSH2 0x20BA JUMP JUMPDEST PUSH2 0x9CD PUSH2 0x2253 JUMP JUMPDEST PUSH2 0x9D5 PUSH2 0x227D JUMP JUMPDEST PUSH1 0x40 MLOAD PUSH4 0x70A08231 PUSH1 0xE0 SHL DUP2 MSTORE ADDRESS PUSH1 0x4 DUP3 ADD MSTORE PUSH0 SWAP1 PUSH32 0x0 PUSH1 0x1 PUSH1 0x1 PUSH1 0xA0 SHL SUB AND SWAP1 PUSH4 0x70A08231 SWAP1 PUSH1 0x24 ADD PUSH1 0x20 PUSH1 0x40 MLOAD DUP1 DUP4 SUB DUP2 DUP7 GAS STATICCALL ISZERO DUP1 ISZERO PUSH2 0xA39 JUMPI RETURNDATASIZE PUSH0 PUSH0 RETURNDATACOPY RETURNDATASIZE PUSH0 REVERT JUMPDEST POP POP POP POP PUSH1 0x40 MLOAD RETURNDATASIZE PUSH1 0x1F NOT PUSH1 0x1F DUP3 ADD AND DUP3 ADD DUP1 PUSH1 0x40 MSTORE POP DUP2 ADD SWAP1 PUSH2 0xA5D SWAP2 SWAP1 PUSH2 0x31C0 JUMP JUMPDEST SWAP1 POP PUSH0 DUP2 PUSH1 0x4 SLOAD GT PUSH2 0xA71 JUMPI PUSH1 0x4 SLOAD PUSH2 0xA73 JUMP JUMPDEST DUP2 JUMPDEST SWAP1 POP PUSH0 DUP2 GT PUSH2 0xAAE JUMPI PUSH1 0x40 MLOAD PUSH3 0x461BCD PUSH1 0xE5 SHL DUP2 MSTORE PUSH1 0x20 PUSH1 0x4 DUP3 ADD MSTORE PUSH1 0x7 PUSH1 0x24 DUP3 ADD MSTORE PUSH7 0x6E6F2066656573 PUSH1 0xC8 SHL PUSH1 0x44 DUP3 ADD MSTORE PUSH1 0x64 ADD PUSH2 0x7BE JUMP JUMPDEST PUSH1 0x2 SLOAD PUSH2 0xAE8 SWAP1 PUSH1 0x1 PUSH1 0x1 PUSH1 0xA0 SHL SUB PUSH32 0x0 DUP2 AND SWAP2 AND PUSH0 PUSH2 0x22A7 JUMP JUMPDEST PUSH1 0x2 SLOAD PUSH2 0xB22 SWAP1 PUSH1 0x1 PUSH1 0x1 PUSH1 0xA0 SHL SUB PUSH32 0x0 DUP2 AND SWAP2 AND DUP4 PUSH2 0x22A7 JUMP JUMPDEST PUSH0 PUSH2 0xB6D PUSH32 0x0 PUSH32 0x0 PUSH2 0x2364 JUMP JUMPDEST PUSH1 0x40 MLOAD PUSH4 0x70A08231 PUSH1 0xE0 SHL DUP2 MSTORE ADDRESS PUSH1 0x4 DUP3 ADD MSTORE SWAP1 SWAP2 POP PUSH0 SWAP1 PUSH1 0x1 PUSH1 0x1 PUSH1 0xA0 SHL SUB PUSH32 0x0 AND SWAP1 PUSH4 0x70A08231 SWAP1 PUSH1 0x24 ADD PUSH1 0x20 PUSH1 0x40 MLOAD DUP1 DUP4 SUB DUP2 DUP7 GAS STATICCALL ISZERO DUP1 ISZERO PUSH2 0xBD4 JUMPI RETURNDATASIZE PUSH0 PUSH0 RETURNDATACOPY RETURNDATASIZE PUSH0 REVERT JUMPDEST POP POP POP POP PUSH1 0x40 MLOAD RETURNDATASIZE PUSH1 0x1F NOT PUSH1 0x1F DUP3 ADD AND DUP3 ADD DUP1 PUSH1 0x40 MSTORE POP DUP2 ADD SWAP1 PUSH2 0xBF8 SWAP2 SWAP1 PUSH2 0x31C0 JUMP JUMPDEST PUSH1 0x2 SLOAD PUSH1 0x40 MLOAD PUSH4 0x5C11D795 PUSH1 0xE0 SHL DUP2 MSTORE SWAP2 SWAP3 POP PUSH1 0x1 PUSH1 0x1 PUSH1 0xA0 SHL SUB AND SWAP1 PUSH4 0x5C11D795 SWAP1 PUSH2 0xC31 SWAP1 DUP7 SWAP1 DUP11 SWAP1 DUP8 SWAP1 ADDRESS SWAP1 DUP13 SWAP1 PUSH1 0x4 ADD PUSH2 0x31D7 JUMP JUMPDEST PUSH0 PUSH1 0x40 MLOAD DUP1 DUP4 SUB DUP2 PUSH0 DUP8 DUP1 EXTCODESIZE ISZERO DUP1 ISZERO PUSH2 0xC48 JUMPI PUSH0 PUSH0 REVERT JUMPDEST POP GAS CALL ISZERO DUP1 ISZERO PUSH2 0xC5A JUMPI RETURNDATASIZE PUSH0 PUSH0 RETURNDATACOPY RETURNDATASIZE PUSH0 REVERT JUMPDEST POP POP PUSH1 0x40 MLOAD PUSH4 0x70A08231 PUSH1 0xE0 SHL DUP2 MSTORE ADDRESS PUSH1 0x4 DUP3 ADD MSTORE PUSH0 SWAP3 POP DUP4 SWAP2 POP PUSH1 0x1 PUSH1 0x1 PUSH1 0xA0 SHL SUB PUSH32 0x0 AND SWAP1 PUSH4 0x70A08231 SWAP1 PUSH1 0x24 ADD PUSH1 0x20 PUSH1 0x40 MLOAD DUP1 DUP4 SUB DUP2 DUP7 GAS STATICCALL ISZERO DUP1 ISZERO PUSH2 0xCC4 JUMPI RETURNDATASIZE PUSH0 PUSH0 RETURNDATACOPY RETURNDATASIZE PUSH0 REVERT JUMPDEST POP POP POP POP PUSH1 0x40 MLOAD RETURNDATASIZE PUSH1 0x1F NOT PUSH1 0x1F DUP3 ADD AND DUP3 ADD DUP1 PUSH1 0x40 MSTORE POP DUP2 ADD SWAP1 PUSH2 0xCE8 SWAP2 SWAP1 PUSH2 0x31C0 JUMP JUMPDEST PUSH2 0xCF2 SWAP2 SWAP1 PUSH2 0x2F43 JUMP JUMPDEST PUSH0 PUSH1 0x4 SSTORE PUSH1 0x40 DUP1 MLOAD DUP7 DUP2 MSTORE PUSH1 0x20 DUP2 ADD DUP4 SWAP1 MSTORE SWAP2 SWAP3 POP PUSH32 0x440FF3AE555E6E78856C05BC2EEA45928789919497AD6B48A9F5AA065094E286 SWAP2 ADD PUSH1 0x40 MLOAD DUP1 SWAP2 SUB SWAP1 LOG1 POP POP POP POP POP PUSH2 0xD40 PUSH1 0x1 DUP1 SSTORE JUMP JUMPDEST POP POP JUMP JUMPDEST PUSH2 0xD4C PUSH2 0x227D JUMP JUMPDEST PUSH0 DUP5 DUP2 MSTORE PUSH1 0xE PUSH1 0x20 SWAP1 DUP2 MSTORE PUSH1 0x40 SWAP2 DUP3 SWAP1 KECCAK256 DUP3 MLOAD PUSH1 0x80 DUP2 ADD DUP5 MSTORE DUP2 SLOAD DUP2 MSTORE PUSH1 0x1 DUP3 ADD SLOAD PUSH1 0x1 PUSH1 0x1 PUSH1 0xA0 SHL SUB AND SWAP3 DUP2 ADD SWAP3 SWAP1 SWAP3 MSTORE PUSH1 0x2 DUP2 ADD SLOAD SWAP3 DUP3 ADD SWAP3 SWAP1 SWAP3 MSTORE PUSH1 0x3 SWAP1 SWAP2 ADD SLOAD PUSH1 0xFF AND ISZERO ISZERO PUSH1 0x60 DUP3 ADD DUP2 SWAP1 MSTORE PUSH2 0xDD3 JUMPI PUSH1 0x40 MLOAD PUSH3 0x461BCD PUSH1 0xE5 SHL DUP2 MSTORE PUSH1 0x20 PUSH1 0x4 DUP3 ADD MSTORE PUSH1 0x8 PUSH1 0x24 DUP3 ADD MSTORE PUSH8 0x696E616374697665 PUSH1 0xC0 SHL PUSH1 0x44 DUP3 ADD MSTORE PUSH1 0x64 ADD PUSH2 0x7BE JUMP JUMPDEST PUSH0 DUP6 DUP2 MSTORE PUSH1 0xF PUSH1 0x20 SWAP1 DUP2 MSTORE PUSH1 0x40 DUP1 DUP4 KECCAK256 CALLER DUP5 MSTORE SWAP1 SWAP2 MSTORE SWAP1 KECCAK256 SLOAD PUSH1 0xFF AND ISZERO PUSH2 0xE26 JUMPI PUSH1 0x40 MLOAD PUSH3 0x461BCD PUSH1 0xE5 SHL DUP2 MSTORE PUSH1 0x20 PUSH1 0x4 DUP3 ADD MSTORE PUSH1 0x7 PUSH1 0x24 DUP3 ADD MSTORE PUSH7 0x18DB185A5B5959 PUSH1 0xCA SHL PUSH1 0x44 DUP3 ADD MSTORE PUSH1 0x64 ADD PUSH2 0x7BE JUMP JUMPDEST PUSH1 0x40 MLOAD PUSH12 0xFFFFFFFFFFFFFFFFFFFFFFFF NOT CALLER PUSH1 0x60 SHL AND PUSH1 0x20 DUP3 ADD MSTORE PUSH1 0x34 DUP2 ADD DUP6 SWAP1 MSTORE PUSH0 SWAP1 PUSH1 0x54 ADD PUSH1 0x40 MLOAD PUSH1 0x20 DUP2 DUP4 SUB SUB DUP2 MSTORE SWAP1 PUSH1 0x40 MSTORE DUP1 MLOAD SWAP1 PUSH1 0x20 ADD KECCAK256 SWAP1 POP PUSH2 0xEA4 DUP5 DUP5 DUP1 DUP1 PUSH1 0x20 MUL PUSH1 0x20 ADD PUSH1 0x40 MLOAD SWAP1 DUP2 ADD PUSH1 0x40 MSTORE DUP1 SWAP4 SWAP3 SWAP2 SWAP1 DUP2 DUP2 MSTORE PUSH1 0x20 ADD DUP4 DUP4 PUSH1 0x20 MUL DUP1 DUP3 DUP5 CALLDATACOPY PUSH0 SWAP3 ADD SWAP2 SWAP1 SWAP2 MSTORE POP POP DUP6 MLOAD SWAP2 POP DUP5 SWAP1 POP PUSH2 0x23F1 JUMP JUMPDEST PUSH2 0xEDC JUMPI PUSH1 0x40 MLOAD PUSH3 0x461BCD PUSH1 0xE5 SHL DUP2 MSTORE PUSH1 0x20 PUSH1 0x4 DUP3 ADD MSTORE PUSH1 0x9 PUSH1 0x24 DUP3 ADD MSTORE PUSH9 0x3130B210383937B7B3 PUSH1 0xB9 SHL PUSH1 0x44 DUP3 ADD MSTORE PUSH1 0x64 ADD PUSH2 0x7BE JUMP JUMPDEST PUSH0 DUP7 DUP2 MSTORE PUSH1 0xF PUSH1 0x20 SWAP1 DUP2 MSTORE PUSH1 0x40 DUP1 DUP4 KECCAK256 CALLER DUP1 DUP6 MSTORE SWAP1 DUP4 MSTORE SWAP3 KECCAK256 DUP1 SLOAD PUSH1 0xFF NOT AND PUSH1 0x1 OR SWAP1 SSTORE DUP4 ADD MLOAD PUSH2 0xF1A SWAP2 PUSH1 0x1 PUSH1 0x1 PUSH1 0xA0 SHL SUB SWAP2 SWAP1 SWAP2 AND SWAP1 DUP8 PUSH2 0x2406 JUMP JUMPDEST PUSH1 0x40 MLOAD DUP6 DUP2 MSTORE CALLER SWAP1 DUP8 SWAP1 PUSH32 0xDADACCCF388DF5ADA42008EF082096F37B84F589657B7E4D4F9AC4FAB76C284E SWAP1 PUSH1 0x20 ADD PUSH1 0x40 MLOAD DUP1 SWAP2 SUB SWAP1 LOG3 POP POP PUSH2 0xF5C PUSH1 0x1 DUP1 SSTORE JUMP JUMPDEST POP POP POP POP JUMP JUMPDEST PUSH2 0xF6A PUSH2 0x227D JUMP JUMPDEST CALLER PUSH0 SWAP1 DUP2 MSTORE PUSH1 0x6 PUSH1 0x20 MSTORE PUSH1 0x40 SWAP1 KECCAK256 SLOAD DUP2 LT PUSH2 0xFB0 JUMPI PUSH1 0x40 MLOAD PUSH3 0x461BCD PUSH1 0xE5 SHL DUP2 MSTORE PUSH1 0x20 PUSH1 0x4 DUP3 ADD MSTORE PUSH1 0x6 PUSH1 0x24 DUP3 ADD MSTORE PUSH6 0x189859081A59 PUSH1 0xD2 SHL PUSH1 0x44 DUP3 ADD MSTORE PUSH1 0x64 ADD PUSH2 0x7BE JUMP JUMPDEST CALLER PUSH0 SWAP1 DUP2 MSTORE PUSH1 0x6 PUSH1 0x20 MSTORE PUSH1 0x40 DUP2 KECCAK256 DUP1 SLOAD DUP4 SWAP1 DUP2 LT PUSH2 0xFD0 JUMPI PUSH2 0xFD0 PUSH2 0x3247 JUMP JUMPDEST SWAP1 PUSH0 MSTORE PUSH1 0x20 PUSH0 KECCAK256 SWAP1 PUSH1 0x2 MUL ADD SWAP1 POP DUP1 PUSH1 0x1 ADD PUSH1 0x11 SWAP1 SLOAD SWAP1 PUSH2 0x100 EXP SWAP1 DIV PUSH1 0xFF AND ISZERO PUSH2 0x1027 JUMPI PUSH1 0x40 MLOAD PUSH3 0x461BCD PUSH1 0xE5 SHL DUP2 MSTORE PUSH1 0x20 PUSH1 0x4 DUP3 ADD MSTORE PUSH1 0x7 PUSH1 0x24 DUP3 ADD MSTORE PUSH7 0x616C7265616479 PUSH1 0xC8 SHL PUSH1 0x44 DUP3 ADD MSTORE PUSH1 0x64 ADD PUSH2 0x7BE JUMP JUMPDEST PUSH1 0x1 DUP2 ADD SLOAD PUSH1 0x1 PUSH1 0x40 SHL SWAP1 DIV PUSH8 0xFFFFFFFFFFFFFFFF AND TIMESTAMP LT ISZERO PUSH2 0x1075 JUMPI PUSH1 0x40 MLOAD PUSH3 0x461BCD PUSH1 0xE5 SHL DUP2 MSTORE PUSH1 0x20 PUSH1 0x4 DUP3 ADD MSTORE PUSH1 0x6 PUSH1 0x24 DUP3 ADD MSTORE PUSH6 0x1B1BD8DAD959 PUSH1 0xD2 SHL PUSH1 0x44 DUP3 ADD MSTORE PUSH1 0x64 ADD PUSH2 0x7BE JUMP JUMPDEST PUSH1 0x1 DUP2 ADD DUP1 SLOAD PUSH1 0xFF PUSH1 0x88 SHL NOT AND PUSH1 0x1 PUSH1 0x88 SHL OR SWAP1 SSTORE DUP1 SLOAD PUSH2 0x10C2 SWAP1 PUSH1 0x1 PUSH1 0x1 PUSH1 0xA0 SHL SUB PUSH32 0x0 AND SWAP1 CALLER SWAP1 PUSH2 0x2406 JUMP JUMPDEST DUP1 SLOAD PUSH1 0x40 MLOAD SWAP1 DUP2 MSTORE DUP3 SWAP1 CALLER SWAP1 PUSH32 0x92CCF450A286A957AF52509BC1C9939D1A6A481783E142E41E2499F0BB66EBC6 SWAP1 PUSH1 0x20 ADD PUSH1 0x40 MLOAD DUP1 SWAP2 SUB SWAP1 LOG3 POP PUSH2 0x1105 PUSH1 0x1 DUP1 SSTORE JUMP JUMPDEST POP JUMP JUMPDEST PUSH1 0x6 PUSH1 0x20 MSTORE DUP2 PUSH0 MSTORE PUSH1 0x40 PUSH0 KECCAK256 DUP2 DUP2 SLOAD DUP2 LT PUSH2 0x1121 JUMPI PUSH0 DUP1 REVERT JUMPDEST PUSH0 SWAP2 DUP3 MSTORE PUSH1 0x20 SWAP1 SWAP2 KECCAK256 PUSH1 0x2 SWAP1 SWAP2 MUL ADD DUP1 SLOAD PUSH1 0x1 SWAP1 SWAP2 ADD SLOAD SWAP1 SWAP3 POP PUSH8 0xFFFFFFFFFFFFFFFF DUP1 DUP3 AND SWAP3 POP PUSH1 0x1 PUSH1 0x40 SHL DUP3 DIV AND SWAP1 PUSH1 0xFF PUSH1 0x1 PUSH1 0x80 SHL DUP3 DIV DUP2 AND SWAP2 PUSH1 0x1 PUSH1 0x88 SHL SWAP1 DIV AND DUP6 JUMP JUMPDEST PUSH2 0x1171 PUSH2 0x20BA JUMP JUMPDEST PUSH2 0x1179 PUSH2 0x243C JUMP JUMPDEST JUMP JUMPDEST PUSH0 PUSH0 PUSH2 0x1187 DUP5 DUP5 PUSH2 0x2490 JUMP JUMPDEST PUSH1 0x1 PUSH1 0x1 PUSH1 0xA0 SHL SUB DUP7 AND PUSH0 SWAP1 DUP2 MSTORE PUSH1 0x8 PUSH1 0x20 MSTORE PUSH1 0x40 SWAP1 KECCAK256 SLOAD PUSH1 0xFF SWAP1 SWAP2 AND PUSH4 0xFFFFFFFF SWAP1 SWAP2 AND LT ISZERO SWAP2 POP POP SWAP4 SWAP3 POP POP POP JUMP JUMPDEST PUSH2 0x11C0 PUSH2 0x20BA JUMP JUMPDEST PUSH2 0x11D5 PUSH1 0x1 PUSH1 0x1 PUSH1 0xA0 SHL SUB DUP4 AND CALLER ADDRESS DUP5 PUSH2 0x24DB JUMP JUMPDEST DUP2 PUSH1 0x1 PUSH1 0x1 PUSH1 0xA0 SHL SUB AND PUSH32 0x7F6BC5EE0338914CE9AC8966422F46D02E1847D6C44DB0AC259A1F08C0063577 DUP3 PUSH1 0x40 MLOAD PUSH2 0x9B1 SWAP2 DUP2 MSTORE PUSH1 0x20 ADD SWAP1 JUMP JUMPDEST PUSH2 0x1218 PUSH2 0x20BA JUMP JUMPDEST PUSH2 0x122D PUSH1 0x1 PUSH1 0x1 PUSH1 0xA0 SHL SUB DUP4 AND CALLER ADDRESS DUP5 PUSH2 0x24DB JUMP JUMPDEST DUP1 PUSH1 0xC PUSH0 DUP3 DUP3 SLOAD PUSH2 0x123E SWAP2 SWAP1 PUSH2 0x325B JUMP JUMPDEST SWAP1 SWAP2 SSTORE POP POP PUSH1 0x40 MLOAD PUSH32 0xF3ED9D9C5AFEE346389C0BD81BA01BCC44F4578F236926785DDE83761445BB76 SWAP1 PUSH2 0x1293 SWAP1 DUP4 DUP2 MSTORE PUSH1 0x40 PUSH1 0x20 DUP3 ADD DUP2 SWAP1 MSTORE PUSH1 0x6 SWAP1 DUP3 ADD MSTORE PUSH6 0x1B585B9D585B PUSH1 0xD2 SHL PUSH1 0x60 DUP3 ADD MSTORE PUSH1 0x80 ADD SWAP1 JUMP JUMPDEST PUSH1 0x40 MLOAD DUP1 SWAP2 SUB SWAP1 LOG1 POP POP JUMP JUMPDEST PUSH2 0x12AB PUSH1 0x3C PUSH1 0x5 PUSH2 0x326E JUMP JUMPDEST DUP2 JUMP JUMPDEST PUSH2 0x12B6 PUSH2 0x20BA JUMP JUMPDEST PUSH2 0x1179 PUSH0 PUSH2 0x2514 JUMP JUMPDEST PUSH1 0x1 PUSH1 0x1 PUSH1 0xA0 SHL SUB DUP2 AND PUSH0 SWAP1 DUP2 MSTORE PUSH1 0x6 PUSH1 0x20 SWAP1 DUP2 MSTORE PUSH1 0x40 DUP1 DUP4 KECCAK256 DUP1 SLOAD DUP3 MLOAD DUP2 DUP6 MUL DUP2 ADD DUP6 ADD SWAP1 SWAP4 MSTORE DUP1 DUP4 MSTORE PUSH1 0x60 SWAP5 SWAP3 SWAP4 SWAP2 SWAP3 SWAP1 SWAP2 DUP5 ADD JUMPDEST DUP3 DUP3 LT ISZERO PUSH2 0x1371 JUMPI PUSH0 DUP5 DUP2 MSTORE PUSH1 0x20 SWAP1 DUP2 SWAP1 KECCAK256 PUSH1 0x40 DUP1 MLOAD PUSH1 0xA0 DUP2 ADD DUP3 MSTORE PUSH1 0x2 DUP7 MUL SWAP1 SWAP3 ADD DUP1 SLOAD DUP4 MSTORE PUSH1 0x1 SWAP1 DUP2 ADD SLOAD PUSH8 0xFFFFFFFFFFFFFFFF DUP1 DUP3 AND DUP6 DUP8 ADD MSTORE PUSH1 0x1 PUSH1 0x40 SHL DUP3 DIV AND SWAP3 DUP5 ADD SWAP3 SWAP1 SWAP3 MSTORE PUSH1 0xFF PUSH1 0x1 PUSH1 0x80 SHL DUP4 DIV DUP2 AND PUSH1 0x60 DUP6 ADD MSTORE PUSH1 0x1 PUSH1 0x88 SHL SWAP1 SWAP3 DIV SWAP1 SWAP2 AND ISZERO ISZERO PUSH1 0x80 DUP4 ADD MSTORE SWAP1 DUP4 MSTORE SWAP1 SWAP3 ADD SWAP2 ADD PUSH2 0x12F6 JUMP JUMPDEST POP POP POP POP SWAP1 POP SWAP2 SWAP1 POP JUMP JUMPDEST PUSH2 0x1384 PUSH2 0x20BA JUMP JUMPDEST PUSH2 0x1398 PUSH1 0x1 PUSH1 0x1 PUSH1 0xA0 SHL SUB DUP4 AND CALLER DUP4 PUSH2 0x2406 JUMP JUMPDEST DUP2 PUSH1 0x1 PUSH1 0x1 PUSH1 0xA0 SHL SUB AND PUSH32 0x542FA6BFEE3B4746210FBDD1D83F9E49B65ADDE3639F8D8F165DD18347938AF2 DUP3 PUSH1 0x40 MLOAD PUSH2 0x9B1 SWAP2 DUP2 MSTORE PUSH1 0x20 ADD SWAP1 JUMP JUMPDEST PUSH2 0x13DB PUSH2 0x20BA JUMP JUMPDEST PUSH2 0x1179 PUSH2 0x2563 JUMP JUMPDEST PUSH2 0x13EB PUSH2 0x20BA JUMP JUMPDEST PUSH1 0x3 DUP1 SLOAD DUP3 ISZERO ISZERO PUSH1 0x1 PUSH1 0xA0 SHL MUL PUSH1 0xFF PUSH1 0xA0 SHL NOT SWAP1 SWAP2 AND OR SWAP1 SSTORE PUSH1 0x40 MLOAD PUSH32 0x29FB9DCC174EA2EF95877FBA980F5048FE239C4CB8860D5744DABC16138CDD44 SWAP1 PUSH2 0x1438 SWAP1 DUP4 ISZERO ISZERO DUP2 MSTORE PUSH1 0x20 ADD SWAP1 JUMP JUMPDEST PUSH1 0x40 MLOAD DUP1 SWAP2 SUB SWAP1 LOG1 POP JUMP JUMPDEST PUSH2 0x144B PUSH2 0x20BA JUMP JUMPDEST PUSH1 0x1 PUSH1 0x1 PUSH1 0xA0 SHL SUB DUP2 AND PUSH2 0x148A JUMPI PUSH1 0x40 MLOAD PUSH3 0x461BCD PUSH1 0xE5 SHL DUP2 MSTORE PUSH1 0x4 ADD PUSH2 0x7BE SWAP1 PUSH1 0x20 DUP1 DUP3 MSTORE PUSH1 0x4 SWAP1 DUP3 ADD MSTORE PUSH4 0x7A65726F PUSH1 0xE0 SHL PUSH1 0x40 DUP3 ADD MSTORE PUSH1 0x60 ADD SWAP1 JUMP JUMPDEST PUSH1 0x3 DUP1 SLOAD PUSH1 0x1 PUSH1 0x1 PUSH1 0xA0 SHL SUB NOT AND PUSH1 0x1 PUSH1 0x1 PUSH1 0xA0 SHL SUB DUP4 AND SWAP1 DUP2 OR SWAP1 SWAP2 SSTORE PUSH1 0x40 MLOAD PUSH32 0xE5693914D19C789BDEE50A362998C0BC8D035A835F9871DA5D51152F0582C34F SWAP1 PUSH0 SWAP1 LOG2 POP JUMP JUMPDEST PUSH2 0x14DB PUSH2 0x2253 JUMP JUMPDEST PUSH2 0x14E3 PUSH2 0x227D JUMP JUMPDEST PUSH0 DUP7 GT PUSH2 0x151D JUMPI PUSH1 0x40 MLOAD PUSH3 0x461BCD PUSH1 0xE5 SHL DUP2 MSTORE PUSH1 0x20 PUSH1 0x4 DUP3 ADD MSTORE PUSH1 0x8 PUSH1 0x24 DUP3 ADD MSTORE PUSH8 0x616D6F756E743D3 PUSH1 0xC4 SHL PUSH1 0x44 DUP3 ADD MSTORE PUSH1 0x64 ADD PUSH2 0x7BE JUMP JUMPDEST PUSH1 0x3 PUSH1 0xFF DUP5 AND GT ISZERO PUSH2 0x155B JUMPI PUSH1 0x40 MLOAD PUSH3 0x461BCD PUSH1 0xE5 SHL DUP2 MSTORE PUSH1 0x20 PUSH1 0x4 DUP3 ADD MSTORE PUSH1 0x7 PUSH1 0x24 DUP3 ADD MSTORE PUSH7 0x62616420706B67 PUSH1 0xC8 SHL PUSH1 0x44 DUP3 ADD MSTORE PUSH1 0x64 ADD PUSH2 0x7BE JUMP JUMPDEST PUSH0 PUSH2 0x1566 DUP5 DUP9 PUSH2 0x25A5 JUMP JUMPDEST SWAP1 POP DUP1 PUSH1 0xA0 ADD MLOAD PUSH2 0x15A9 JUMPI PUSH1 0x40 MLOAD PUSH3 0x461BCD PUSH1 0xE5 SHL DUP2 MSTORE PUSH1 0x20 PUSH1 0x4 DUP3 ADD MSTORE PUSH1 0xD PUSH1 0x24 DUP3 ADD MSTORE PUSH13 0x7469657220696E616374697665 PUSH1 0x98 SHL PUSH1 0x44 DUP3 ADD MSTORE PUSH1 0x64 ADD PUSH2 0x7BE JUMP JUMPDEST PUSH2 0x15B3 DUP6 DUP3 PUSH2 0x2926 JUMP JUMPDEST PUSH2 0x15EE JUMPI PUSH1 0x40 MLOAD PUSH3 0x461BCD PUSH1 0xE5 SHL DUP2 MSTORE PUSH1 0x20 PUSH1 0x4 DUP3 ADD MSTORE PUSH1 0xC PUSH1 0x24 DUP3 ADD MSTORE PUSH12 0x3130B210323AB930BA34B7B7 PUSH1 0xA1 SHL PUSH1 0x44 DUP3 ADD MSTORE PUSH1 0x64 ADD PUSH2 0x7BE JUMP JUMPDEST PUSH2 0x1623 PUSH1 0x1 PUSH1 0x1 PUSH1 0xA0 SHL SUB PUSH32 0x0 AND CALLER ADDRESS DUP11 PUSH2 0x24DB JUMP JUMPDEST PUSH0 PUSH2 0x2710 DUP3 PUSH1 0x20 ADD MLOAD PUSH2 0xFFFF AND DUP10 PUSH2 0x163B SWAP2 SWAP1 PUSH2 0x326E JUMP JUMPDEST PUSH2 0x1645 SWAP2 SWAP1 PUSH2 0x3299 JUMP JUMPDEST SWAP1 POP DUP1 ISZERO PUSH2 0x171D JUMPI PUSH1 0x3 SLOAD PUSH1 0x1 PUSH1 0xA0 SHL SWAP1 DIV PUSH1 0xFF AND ISZERO PUSH2 0x16AD JUMPI DUP1 PUSH1 0x4 PUSH0 DUP3 DUP3 SLOAD PUSH2 0x1670 SWAP2 SWAP1 PUSH2 0x325B JUMP JUMPDEST SWAP1 SWAP2 SSTORE POP POP PUSH1 0x40 MLOAD DUP2 DUP2 MSTORE PUSH32 0x389FAF23DB47C020BF2BF8713822897A6A877592B613F1F3FC0A2A245380D469 SWAP1 PUSH1 0x20 ADD PUSH1 0x40 MLOAD DUP1 SWAP2 SUB SWAP1 LOG1 PUSH2 0x16E7 JUMP JUMPDEST PUSH1 0x3 SLOAD PUSH2 0x16E7 SWAP1 PUSH1 0x1 PUSH1 0x1 PUSH1 0xA0 SHL SUB PUSH32 0x0 DUP2 AND SWAP2 AND DUP4 PUSH2 0x2406 JUMP JUMPDEST PUSH1 0x40 MLOAD DUP2 DUP2 MSTORE CALLER SWAP1 PUSH32 0x6C5EFEFF5C320943D265DC4E5F1AF95AD523555CE0C1957E367DDA5514572DF SWAP1 PUSH1 0x20 ADD PUSH1 0x40 MLOAD DUP1 SWAP2 SUB SWAP1 LOG2 JUMPDEST PUSH0 PUSH2 0x1728 DUP3 DUP11 PUSH2 0x2F43 JUMP JUMPDEST SWAP1 POP PUSH0 DUP2 GT PUSH2 0x176B JUMPI PUSH1 0x40 MLOAD PUSH3 0x461BCD PUSH1 0xE5 SHL DUP2 MSTORE PUSH1 0x20 PUSH1 0x4 DUP3 ADD MSTORE PUSH1 0xF PUSH1 0x24 DUP3 ADD MSTORE PUSH15 0x6E6F7468696E6720746F207377617 PUSH1 0x8C SHL PUSH1 0x44 DUP3 ADD MSTORE PUSH1 0x64 ADD PUSH2 0x7BE JUMP JUMPDEST PUSH1 0x2 SLOAD PUSH2 0x17A5 SWAP1 PUSH1 0x1 PUSH1 0x1 PUSH1 0xA0 SHL SUB PUSH32 0x0 DUP2 AND SWAP2 AND PUSH0 PUSH2 0x22A7 JUMP JUMPDEST PUSH1 0x2 SLOAD PUSH2 0x17DF SWAP1 PUSH1 0x1 PUSH1 0x1 PUSH1 0xA0 SHL SUB PUSH32 0x0 DUP2 AND SWAP2 AND DUP4 PUSH2 0x22A7 JUMP JUMPDEST PUSH0 PUSH2 0x182A PUSH32 0x0 PUSH32 0x0 PUSH2 0x2364 JUMP JUMPDEST PUSH1 0x40 MLOAD PUSH4 0x70A08231 PUSH1 0xE0 SHL DUP2 MSTORE ADDRESS PUSH1 0x4 DUP3 ADD MSTORE SWAP1 SWAP2 POP PUSH0 SWAP1 PUSH1 0x1 PUSH1 0x1 PUSH1 0xA0 SHL SUB PUSH32 0x0 AND SWAP1 PUSH4 0x70A08231 SWAP1 PUSH1 0x24 ADD PUSH1 0x20 PUSH1 0x40 MLOAD DUP1 DUP4 SUB DUP2 DUP7 GAS STATICCALL ISZERO DUP1 ISZERO PUSH2 0x1891 JUMPI RETURNDATASIZE PUSH0 PUSH0 RETURNDATACOPY RETURNDATASIZE PUSH0 REVERT JUMPDEST POP POP POP POP PUSH1 0x40 MLOAD RETURNDATASIZE PUSH1 0x1F NOT PUSH1 0x1F DUP3 ADD AND DUP3 ADD DUP1 PUSH1 0x40 MSTORE POP DUP2 ADD SWAP1 PUSH2 0x18B5 SWAP2 SWAP1 PUSH2 0x31C0 JUMP JUMPDEST PUSH1 0x2 SLOAD PUSH1 0x40 MLOAD PUSH4 0x5C11D795 PUSH1 0xE0 SHL DUP2 MSTORE SWAP2 SWAP3 POP PUSH1 0x1 PUSH1 0x1 PUSH1 0xA0 SHL SUB AND SWAP1 PUSH4 0x5C11D795 SWAP1 PUSH2 0x18EE SWAP1 DUP7 SWAP1 DUP15 SWAP1 DUP8 SWAP1 ADDRESS SWAP1 DUP14 SWAP1 PUSH1 0x4 ADD PUSH2 0x31D7 JUMP JUMPDEST PUSH0 PUSH1 0x40 MLOAD DUP1 DUP4 SUB DUP2 PUSH0 DUP8 DUP1 EXTCODESIZE ISZERO DUP1 ISZERO PUSH2 0x1905 JUMPI PUSH0 PUSH0 REVERT JUMPDEST POP GAS CALL ISZERO DUP1 ISZERO PUSH2 0x1917 JUMPI RETURNDATASIZE PUSH0 PUSH0 RETURNDATACOPY RETURNDATASIZE PUSH0 REVERT JUMPDEST POP POP PUSH1 0x40 MLOAD PUSH4 0x70A08231 PUSH1 0xE0 SHL DUP2 MSTORE ADDRESS PUSH1 0x4 DUP3 ADD MSTORE PUSH0 SWAP3 POP DUP4 SWAP2 POP PUSH1 0x1 PUSH1 0x1 PUSH1 0xA0 SHL SUB PUSH32 0x0 AND SWAP1 PUSH4 0x70A08231 SWAP1 PUSH1 0x24 ADD PUSH1 0x20 PUSH1 0x40 MLOAD DUP1 DUP4 SUB DUP2 DUP7 GAS STATICCALL ISZERO DUP1 ISZERO PUSH2 0x1981 JUMPI RETURNDATASIZE PUSH0 PUSH0 RETURNDATACOPY RETURNDATASIZE PUSH0 REVERT JUMPDEST POP POP POP POP PUSH1 0x40 MLOAD RETURNDATASIZE PUSH1 0x1F NOT PUSH1 0x1F DUP3 ADD AND DUP3 ADD DUP1 PUSH1 0x40 MSTORE POP DUP2 ADD SWAP1 PUSH2 0x19A5 SWAP2 SWAP1 PUSH2 0x31C0 JUMP JUMPDEST PUSH2 0x19AF SWAP2 SWAP1 PUSH2 0x2F43 JUMP JUMPDEST SWAP1 POP DUP11 DUP2 LT ISZERO DUP1 ISZERO PUSH2 0x19C0 JUMPI POP PUSH0 DUP2 GT JUMPDEST PUSH2 0x19FF JUMPI PUSH1 0x40 MLOAD PUSH3 0x461BCD PUSH1 0xE5 SHL DUP2 MSTORE PUSH1 0x20 PUSH1 0x4 DUP3 ADD MSTORE PUSH1 0x10 PUSH1 0x24 DUP3 ADD MSTORE PUSH16 0x1A5B9CDD59999A58DA595B9D081BDD5D PUSH1 0x82 SHL PUSH1 0x44 DUP3 ADD MSTORE PUSH1 0x64 ADD PUSH2 0x7BE JUMP JUMPDEST PUSH0 PUSH1 0x40 MLOAD DUP1 PUSH1 0xA0 ADD PUSH1 0x40 MSTORE DUP1 DUP4 DUP2 MSTORE PUSH1 0x20 ADD TIMESTAMP PUSH8 0xFFFFFFFFFFFFFFFF AND DUP2 MSTORE PUSH1 0x20 ADD DUP13 TIMESTAMP PUSH2 0x1A2D SWAP2 SWAP1 PUSH2 0x325B JUMP JUMPDEST PUSH8 0xFFFFFFFFFFFFFFFF SWAP1 DUP2 AND DUP3 MSTORE PUSH1 0xFF DUP1 DUP15 AND PUSH1 0x20 DUP1 DUP6 ADD SWAP2 SWAP1 SWAP2 MSTORE PUSH0 PUSH1 0x40 SWAP5 DUP6 ADD DUP2 SWAP1 MSTORE CALLER DUP1 DUP3 MSTORE PUSH1 0x6 DUP4 MSTORE DUP6 DUP3 KECCAK256 DUP1 SLOAD PUSH1 0x1 DUP2 DUP2 ADD DUP4 SSTORE DUP3 DUP6 MSTORE DUP6 DUP6 KECCAK256 DUP11 MLOAD PUSH1 0x2 SWAP1 SWAP4 MUL ADD SWAP2 DUP3 SSTORE SWAP5 DUP10 ADD MLOAD SWAP1 DUP6 ADD DUP1 SLOAD SWAP9 DUP11 ADD MLOAD PUSH1 0x60 DUP12 ADD MLOAD PUSH1 0x80 DUP13 ADD MLOAD ISZERO ISZERO PUSH1 0x1 PUSH1 0x88 SHL MUL PUSH1 0xFF PUSH1 0x88 SHL NOT SWAP2 SWAP1 SWAP10 AND PUSH1 0x1 PUSH1 0x80 SHL MUL AND PUSH2 0xFFFF PUSH1 0x80 SHL NOT SWAP2 DUP11 AND PUSH1 0x1 PUSH1 0x40 SHL MUL PUSH16 0xFFFFFFFFFFFFFFFFFFFFFFFFFFFFFFFF NOT SWAP1 SWAP12 AND SWAP4 SWAP1 SWAP10 AND SWAP3 SWAP1 SWAP3 OR SWAP9 SWAP1 SWAP9 OR AND SWAP6 SWAP1 SWAP6 OR SWAP4 SWAP1 SWAP4 OR SWAP1 SWAP5 SSTORE SWAP3 MSTORE SLOAD SWAP2 SWAP3 POP PUSH2 0x1AF3 SWAP2 PUSH2 0x2F43 JUMP JUMPDEST PUSH1 0x40 DUP3 DUP2 ADD MLOAD DUP2 MLOAD PUSH1 0xFF DUP15 AND DUP2 MSTORE PUSH1 0x20 DUP2 ADD DUP7 SWAP1 MSTORE PUSH8 0xFFFFFFFFFFFFFFFF SWAP1 SWAP2 AND DUP2 DUP4 ADD MSTORE SWAP1 MLOAD CALLER SWAP2 PUSH32 0x5E983011D4C7FB1A781260072CE1D9F1BEB0485F07D36EA56F3C546B0C7B5BF7 SWAP2 SWAP1 DUP2 SWAP1 SUB PUSH1 0x60 ADD SWAP1 LOG3 PUSH2 0x1B51 CALLER DUP11 PUSH2 0x29A0 JUMP JUMPDEST POP POP POP POP POP POP POP PUSH2 0x1B61 PUSH1 0x1 DUP1 SSTORE JUMP JUMPDEST POP POP POP POP POP POP JUMP JUMPDEST PUSH2 0x1B71 PUSH2 0x227D JUMP JUMPDEST PUSH0 DUP5 DUP2 MSTORE PUSH1 0xA PUSH1 0x20 SWAP1 DUP2 MSTORE PUSH1 0x40 SWAP2 DUP3 SWAP1 KECCAK256 DUP3 MLOAD PUSH1 0x80 DUP2 ADD DUP5 MSTORE DUP2 SLOAD DUP2 MSTORE PUSH1 0x1 DUP3 ADD SLOAD PUSH1 0x1 PUSH1 0x1 PUSH1 0xA0 SHL SUB AND SWAP3 DUP2 ADD SWAP3 SWAP1 SWAP3 MSTORE PUSH1 0x2 DUP2 ADD SLOAD SWAP3 DUP3 ADD SWAP3 SWAP1 SWAP3 MSTORE PUSH1 0x3 SWAP1 SWAP2 ADD SLOAD PUSH1 0xFF AND ISZERO ISZERO PUSH1 0x60 DUP3 ADD DUP2 SWAP1 MSTORE PUSH2 0x1BF8 JUMPI PUSH1 0x40 MLOAD PUSH3 0x461BCD PUSH1 0xE5 SHL DUP2 MSTORE PUSH1 0x20 PUSH1 0x4 DUP3 ADD MSTORE PUSH1 0x8 PUSH1 0x24 DUP3 ADD MSTORE PUSH8 0x696E616374697665 PUSH1 0xC0 SHL PUSH1 0x44 DUP3 ADD MSTORE PUSH1 0x64 ADD PUSH2 0x7BE JUMP JUMPDEST PUSH0 DUP6 DUP2 MSTORE PUSH1 0xB PUSH1 0x20 SWAP1 DUP2 MSTORE PUSH1 0x40 DUP1 DUP4 KECCAK256 CALLER DUP5 MSTORE SWAP1 SWAP2 MSTORE SWAP1 KECCAK256 SLOAD PUSH1 0xFF AND ISZERO PUSH2 0x1C4B JUMPI PUSH1 0x40 MLOAD PUSH3 0x461BCD PUSH1 0xE5 SHL DUP2 MSTORE PUSH1 0x20 PUSH1 0x4 DUP3 ADD MSTORE PUSH1 0x7 PUSH1 0x24 DUP3 ADD MSTORE PUSH7 0x18DB185A5B5959 PUSH1 0xCA SHL PUSH1 0x44 DUP3 ADD MSTORE PUSH1 0x64 ADD PUSH2 0x7BE JUMP JUMPDEST PUSH1 0x40 MLOAD PUSH12 0xFFFFFFFFFFFFFFFFFFFFFFFF NOT CALLER PUSH1 0x60 SHL AND PUSH1 0x20 DUP3 ADD MSTORE PUSH1 0x34 DUP2 ADD DUP6 SWAP1 MSTORE PUSH0 SWAP1 PUSH1 0x54 ADD PUSH1 0x40 MLOAD PUSH1 0x20 DUP2 DUP4 SUB SUB DUP2 MSTORE SWAP1 PUSH1 0x40 MSTORE DUP1 MLOAD SWAP1 PUSH1 0x20 ADD KECCAK256 SWAP1 POP PUSH2 0x1CC9 DUP5 DUP5 DUP1 DUP1 PUSH1 0x20 MUL PUSH1 0x20 ADD PUSH1 0x40 MLOAD SWAP1 DUP2 ADD PUSH1 0x40 MSTORE DUP1 SWAP4 SWAP3 SWAP2 SWAP1 DUP2 DUP2 MSTORE PUSH1 0x20 ADD DUP4 DUP4 PUSH1 0x20 MUL DUP1 DUP3 DUP5 CALLDATACOPY PUSH0 SWAP3 ADD SWAP2 SWAP1 SWAP2 MSTORE POP POP DUP6 MLOAD SWAP2 POP DUP5 SWAP1 POP PUSH2 0x23F1 JUMP JUMPDEST PUSH2 0x1D01 JUMPI PUSH1 0x40 MLOAD PUSH3 0x461BCD PUSH1 0xE5 SHL DUP2 MSTORE PUSH1 0x20 PUSH1 0x4 DUP3 ADD MSTORE PUSH1 0x9 PUSH1 0x24 DUP3 ADD MSTORE PUSH9 0x3130B210383937B7B3 PUSH1 0xB9 SHL PUSH1 0x44 DUP3 ADD MSTORE PUSH1 0x64 ADD PUSH2 0x7BE JUMP JUMPDEST PUSH0 DUP7 DUP2 MSTORE PUSH1 0xB PUSH1 0x20 SWAP1 DUP2 MSTORE PUSH1 0x40 DUP1 DUP4 KECCAK256 CALLER DUP5 MSTORE SWAP1 SWAP2 MSTORE DUP2 KECCAK256 DUP1 SLOAD PUSH1 0xFF NOT AND PUSH1 0x1 OR SWAP1 SSTORE PUSH2 0x2710 PUSH2 0x1D33 DUP8 PUSH2 0x1F4 PUSH2 0x326E JUMP JUMPDEST PUSH2 0x1D3D SWAP2 SWAP1 PUSH2 0x3299 JUMP JUMPDEST SWAP1 POP PUSH0 PUSH2 0x1D4A DUP3 DUP9 PUSH2 0x2F43 JUMP JUMPDEST SWAP1 POP DUP2 PUSH1 0xC PUSH0 DUP3 DUP3 SLOAD PUSH2 0x1D5D SWAP2 SWAP1 PUSH2 0x325B JUMP JUMPDEST SWAP1 SWAP2 SSTORE POP POP PUSH1 0x40 MLOAD PUSH32 0xF3ED9D9C5AFEE346389C0BD81BA01BCC44F4578F236926785DDE83761445BB76 SWAP1 PUSH2 0x1DB5 SWAP1 DUP5 DUP2 MSTORE PUSH1 0x40 PUSH1 0x20 DUP3 ADD DUP2 SWAP1 MSTORE PUSH1 0x9 SWAP1 DUP3 ADD MSTORE PUSH9 0x636C61696D5F666565 PUSH1 0xB8 SHL PUSH1 0x60 DUP3 ADD MSTORE PUSH1 0x80 ADD SWAP1 JUMP JUMPDEST PUSH1 0x40 MLOAD DUP1 SWAP2 SUB SWAP1 LOG1 PUSH1 0x20 DUP5 ADD MLOAD PUSH2 0x1DD6 SWAP1 PUSH1 0x1 PUSH1 0x1 PUSH1 0xA0 SHL SUB AND CALLER DUP4 PUSH2 0x2406 JUMP JUMPDEST PUSH1 0x40 MLOAD DUP2 DUP2 MSTORE CALLER SWAP1 DUP10 SWAP1 PUSH32 0x24B5EFA61DD1CFC659205A97FB8ED868F3CB8C81922BAB2B96423E5DE1DE2CB7 SWAP1 PUSH1 0x20 ADD PUSH1 0x40 MLOAD DUP1 SWAP2 SUB SWAP1 LOG3 POP POP POP POP PUSH2 0xF5C PUSH1 0x1 DUP1 SSTORE JUMP JUMPDEST PUSH2 0x1E22 PUSH2 0x20BA JUMP JUMPDEST DUP3 ISZERO DUP1 ISZERO SWAP1 PUSH2 0x1E39 JUMPI POP PUSH1 0x1 PUSH1 0x1 PUSH1 0xA0 SHL SUB DUP3 AND ISZERO ISZERO JUMPDEST DUP1 ISZERO PUSH2 0x1E44 JUMPI POP PUSH0 DUP2 GT JUMPDEST PUSH2 0x1E7C JUMPI PUSH1 0x40 MLOAD PUSH3 0x461BCD PUSH1 0xE5 SHL DUP2 MSTORE PUSH1 0x20 PUSH1 0x4 DUP3 ADD MSTORE PUSH1 0x9 PUSH1 0x24 DUP3 ADD MSTORE PUSH9 0xC4C2C840CAE0DEC6D PUSH1 0xBB SHL PUSH1 0x44 DUP3 ADD MSTORE PUSH1 0x64 ADD PUSH2 0x7BE JUMP JUMPDEST PUSH1 0x40 MLOAD PUSH4 0x70A08231 PUSH1 0xE0 SHL DUP2 MSTORE ADDRESS PUSH1 0x4 DUP3 ADD MSTORE DUP2 SWAP1 PUSH1 0x1 PUSH1 0x1 PUSH1 0xA0 SHL SUB DUP5 AND SWAP1 PUSH4 0x70A08231 SWAP1 PUSH1 0x24 ADD PUSH1 0x20 PUSH1 0x40 MLOAD DUP1 DUP4 SUB DUP2 DUP7 GAS STATICCALL ISZERO DUP1 ISZERO PUSH2 0x1EC0 JUMPI RETURNDATASIZE PUSH0 PUSH0 RETURNDATACOPY RETURNDATASIZE PUSH0 REVERT JUMPDEST POP POP POP POP PUSH1 0x40 MLOAD RETURNDATASIZE PUSH1 0x1F NOT PUSH1 0x1F DUP3 ADD AND DUP3 ADD DUP1 PUSH1 0x40 MSTORE POP DUP2 ADD SWAP1 PUSH2 0x1EE4 SWAP2 SWAP1 PUSH2 0x31C0 JUMP JUMPDEST LT ISZERO PUSH2 0x1F26 JUMPI PUSH1 0x40 MLOAD PUSH3 0x461BCD PUSH1 0xE5 SHL DUP2 MSTORE PUSH1 0x20 PUSH1 0x4 DUP3 ADD MSTORE PUSH1 0x11 PUSH1 0x24 DUP3 ADD MSTORE PUSH17 0x1A5B9CDD59999A58DA595B9D081C1BDBDB PUSH1 0x7A SHL PUSH1 0x44 DUP3 ADD MSTORE PUSH1 0x64 ADD PUSH2 0x7BE JUMP JUMPDEST PUSH1 0x40 DUP1 MLOAD PUSH1 0x80 DUP2 ADD DUP3 MSTORE DUP5 DUP2 MSTORE PUSH1 0x1 PUSH1 0x1 PUSH1 0xA0 SHL SUB DUP5 DUP2 AND PUSH1 0x20 DUP1 DUP5 ADD DUP3 DUP2 MSTORE DUP5 DUP7 ADD DUP8 DUP2 MSTORE PUSH1 0x1 PUSH1 0x60 DUP1 DUP9 ADD DUP3 DUP2 MSTORE PUSH1 0x9 DUP1 SLOAD PUSH0 SWAP1 DUP2 MSTORE PUSH1 0xA DUP9 MSTORE DUP12 SWAP1 KECCAK256 SWAP10 MLOAD DUP11 SSTORE SWAP5 MLOAD SWAP3 DUP10 ADD DUP1 SLOAD PUSH1 0x1 PUSH1 0x1 PUSH1 0xA0 SHL SUB NOT AND SWAP4 SWAP1 SWAP9 AND SWAP3 SWAP1 SWAP3 OR SWAP1 SWAP7 SSTORE SWAP1 MLOAD PUSH1 0x2 DUP8 ADD SSTORE MLOAD PUSH1 0x3 SWAP1 SWAP6 ADD DUP1 SLOAD PUSH1 0xFF NOT AND SWAP6 ISZERO ISZERO SWAP6 SWAP1 SWAP6 OR SWAP1 SWAP5 SSTORE SWAP3 SLOAD DUP5 MLOAD DUP9 DUP2 MSTORE SWAP4 DUP5 ADD SWAP2 SWAP1 SWAP2 MSTORE SWAP3 DUP3 ADD DUP5 SWAP1 MSTORE PUSH32 0x94CC642E29340067A18C6745EA1EFE16776ADD971D3B78B17AECA5C0CC6AA2F1 SWAP2 ADD PUSH1 0x40 MLOAD DUP1 SWAP2 SUB SWAP1 LOG2 PUSH1 0x9 DUP1 SLOAD SWAP1 PUSH0 PUSH2 0x8ED DUP4 PUSH2 0x2F56 JUMP JUMPDEST PUSH2 0x1FF8 PUSH2 0x20BA JUMP JUMPDEST PUSH1 0x1 PUSH1 0x1 PUSH1 0xA0 SHL SUB DUP2 AND PUSH2 0x2037 JUMPI PUSH1 0x40 MLOAD PUSH3 0x461BCD PUSH1 0xE5 SHL DUP2 MSTORE PUSH1 0x4 ADD PUSH2 0x7BE SWAP1 PUSH1 0x20 DUP1 DUP3 MSTORE PUSH1 0x4 SWAP1 DUP3 ADD MSTORE PUSH4 0x7A65726F PUSH1 0xE0 SHL PUSH1 0x40 DUP3 ADD MSTORE PUSH1 0x60 ADD SWAP1 JUMP JUMPDEST PUSH1 0x2 DUP1 SLOAD PUSH1 0x1 PUSH1 0x1 PUSH1 0xA0 SHL SUB NOT AND PUSH1 0x1 PUSH1 0x1 PUSH1 0xA0 SHL SUB DUP4 AND SWAP1 DUP2 OR SWAP1 SWAP2 SSTORE PUSH1 0x40 MLOAD PUSH32 0x7AED1D3E8155A07CCF395E44EA3109A0E2D6C9B29BBBE9F142D9790596F4DC80 SWAP1 PUSH0 SWAP1 LOG2 POP JUMP JUMPDEST PUSH2 0x2088 PUSH2 0x20BA JUMP JUMPDEST PUSH1 0x1 PUSH1 0x1 PUSH1 0xA0 SHL SUB DUP2 AND PUSH2 0x20B1 JUMPI PUSH1 0x40 MLOAD PUSH4 0x1E4FBDF7 PUSH1 0xE0 SHL DUP2 MSTORE PUSH0 PUSH1 0x4 DUP3 ADD MSTORE PUSH1 0x24 ADD PUSH2 0x7BE JUMP JUMPDEST PUSH2 0x1105 DUP2 PUSH2 0x2514 JUMP JUMPDEST PUSH0 SLOAD PUSH1 0x1 PUSH1 0x1 PUSH1 0xA0 SHL SUB AND CALLER EQ PUSH2 0x1179 JUMPI PUSH1 0x40 MLOAD PUSH4 0x118CDAA7 PUSH1 0xE0 SHL DUP2 MSTORE CALLER PUSH1 0x4 DUP3 ADD MSTORE PUSH1 0x24 ADD PUSH2 0x7BE JUMP JUMPDEST DUP1 PUSH1 0x20 ADD MLOAD PUSH2 0xFFFF AND PUSH2 0x3E8 EQ PUSH2 0x2131 JUMPI PUSH1 0x40 MLOAD PUSH3 0x461BCD PUSH1 0xE5 SHL DUP2 MSTORE PUSH1 0x20 PUSH1 0x4 DUP3 ADD MSTORE PUSH1 0xF PUSH1 0x24 DUP3 ADD MSTORE PUSH15 0x666565206D75737420626520313025 PUSH1 0x88 SHL PUSH1 0x44 DUP3 ADD MSTORE PUSH1 0x64 ADD PUSH2 0x7BE JUMP JUMPDEST PUSH1 0x3C DUP2 PUSH1 0x40 ADD MLOAD PUSH4 0xFFFFFFFF AND EQ PUSH2 0x2180 JUMPI PUSH1 0x40 MLOAD PUSH3 0x461BCD PUSH1 0xE5 SHL DUP2 MSTORE PUSH1 0x20 PUSH1 0x4 DUP3 ADD MSTORE PUSH1 0x12 PUSH1 0x24 DUP3 ADD MSTORE PUSH18 0x6D696E4C6F636B206D757374206265203179 PUSH1 0x70 SHL PUSH1 0x44 DUP3 ADD MSTORE PUSH1 0x64 ADD PUSH2 0x7BE JUMP JUMPDEST PUSH2 0x218C PUSH1 0x3C PUSH1 0x5 PUSH2 0x326E JUMP JUMPDEST DUP2 PUSH1 0x60 ADD MLOAD PUSH4 0xFFFFFFFF AND EQ PUSH2 0x21D9 JUMPI PUSH1 0x40 MLOAD PUSH3 0x461BCD PUSH1 0xE5 SHL DUP2 MSTORE PUSH1 0x20 PUSH1 0x4 DUP3 ADD MSTORE PUSH1 0x12 PUSH1 0x24 DUP3 ADD MSTORE PUSH18 0x6D61784C6F636B206D757374206265203579 PUSH1 0x70 SHL PUSH1 0x44 DUP3 ADD MSTORE PUSH1 0x64 ADD PUSH2 0x7BE JUMP JUMPDEST DUP1 MLOAD PUSH2 0x2212 JUMPI PUSH1 0x40 MLOAD PUSH3 0x461BCD PUSH1 0xE5 SHL DUP2 MSTORE PUSH1 0x20 PUSH1 0x4 DUP3 ADD MSTORE PUSH1 0x8 PUSH1 0x24 DUP3 ADD MSTORE PUSH8 0x6D696E5573643D3 PUSH1 0xC4 SHL PUSH1 0x44 DUP3 ADD MSTORE PUSH1 0x64 ADD PUSH2 0x7BE JUMP JUMPDEST DUP1 PUSH1 0xA0 ADD MLOAD PUSH2 0x1105 JUMPI PUSH1 0x40 MLOAD PUSH3 0x461BCD PUSH1 0xE5 SHL DUP2 MSTORE PUSH1 0x20 PUSH1 0x4 DUP3 ADD MSTORE PUSH1 0xD PUSH1 0x24 DUP3 ADD MSTORE PUSH13 0x34B730B1BA34BB32903A34B2B9 PUSH1 0x99 SHL PUSH1 0x44 DUP3 ADD MSTORE PUSH1 0x64 ADD PUSH2 0x7BE JUMP JUMPDEST PUSH0 SLOAD PUSH1 0x1 PUSH1 0xA0 SHL SWAP1 DIV PUSH1 0xFF AND ISZERO PUSH2 0x1179 JUMPI PUSH1 0x40 MLOAD PUSH4 0xD93C0665 PUSH1 0xE0 SHL DUP2 MSTORE PUSH1 0x4 ADD PUSH1 0x40 MLOAD DUP1 SWAP2 SUB SWAP1 REVERT JUMPDEST PUSH1 0x2 PUSH1 0x1 SLOAD SUB PUSH2 0x22A0 JUMPI PUSH1 0x40 MLOAD PUSH4 0x3EE5AEB5 PUSH1 0xE0 SHL DUP2 MSTORE PUSH1 0x4 ADD PUSH1 0x40 MLOAD DUP1 SWAP2 SUB SWAP1 REVERT JUMPDEST PUSH1 0x2 PUSH1 0x1 SSTORE JUMP JUMPDEST PUSH1 0x40 DUP1 MLOAD PUSH1 0x1 PUSH1 0x1 PUSH1 0xA0 SHL SUB DUP5 AND PUSH1 0x24 DUP3 ADD MSTORE PUSH1 0x44 DUP1 DUP3 ADD DUP5 SWAP1 MSTORE DUP3 MLOAD DUP1 DUP4 SUB SWAP1 SWAP2 ADD DUP2 MSTORE PUSH1 0x64 SWAP1 SWAP2 ADD SWAP1 SWAP2 MSTORE PUSH1 0x20 DUP2 ADD DUP1 MLOAD PUSH1 0x1 PUSH1 0x1 PUSH1 0xE0 SHL SUB AND PUSH4 0x95EA7B3 PUSH1 0xE0 SHL OR SWAP1 MSTORE PUSH2 0x22F8 DUP5 DUP3 PUSH2 0x2ABE JUMP JUMPDEST PUSH2 0xF5C JUMPI PUSH1 0x40 MLOAD PUSH1 0x1 PUSH1 0x1 PUSH1 0xA0 SHL SUB DUP5 DUP2 AND PUSH1 0x24 DUP4 ADD MSTORE PUSH0 PUSH1 0x44 DUP4 ADD MSTORE PUSH2 0x235A SWAP2 DUP7 SWAP2 DUP3 AND SWAP1 PUSH4 0x95EA7B3 SWAP1 PUSH1 0x64 ADD JUMPDEST PUSH1 0x40 MLOAD PUSH1 0x20 DUP2 DUP4 SUB SUB DUP2 MSTORE SWAP1 PUSH1 0x40 MSTORE SWAP2 POP PUSH1 0xE0 SHL PUSH1 0x20 DUP3 ADD DUP1 MLOAD PUSH1 0x1 PUSH1 0x1 PUSH1 0xE0 SHL SUB DUP4 DUP2 DUP4 AND OR DUP4 MSTORE POP POP POP POP PUSH2 0x2B07 JUMP JUMPDEST PUSH2 0xF5C DUP5 DUP3 PUSH2 0x2B07 JUMP JUMPDEST PUSH1 0x40 DUP1 MLOAD PUSH1 0x2 DUP1 DUP3 MSTORE PUSH1 0x60 DUP1 DUP4 ADD DUP5 MSTORE SWAP3 PUSH1 0x20 DUP4 ADD SWAP1 DUP1 CALLDATASIZE DUP4 CALLDATACOPY ADD SWAP1 POP POP SWAP1 POP DUP3 DUP2 PUSH0 DUP2 MLOAD DUP2 LT PUSH2 0x2397 JUMPI PUSH2 0x2397 PUSH2 0x3247 JUMP JUMPDEST PUSH1 0x20 MUL PUSH1 0x20 ADD ADD SWAP1 PUSH1 0x1 PUSH1 0x1 PUSH1 0xA0 SHL SUB AND SWAP1 DUP2 PUSH1 0x1 PUSH1 0x1 PUSH1 0xA0 SHL SUB AND DUP2 MSTORE POP POP DUP2 DUP2 PUSH1 0x1 DUP2 MLOAD DUP2 LT PUSH2 0x23CB JUMPI PUSH2 0x23CB PUSH2 0x3247 JUMP JUMPDEST PUSH1 0x20 MUL PUSH1 0x20 ADD ADD SWAP1 PUSH1 0x1 PUSH1 0x1 PUSH1 0xA0 SHL SUB AND SWAP1 DUP2 PUSH1 0x1 PUSH1 0x1 PUSH1 0xA0 SHL SUB AND DUP2 MSTORE POP POP SWAP3 SWAP2 POP POP JUMP JUMPDEST PUSH0 DUP3 PUSH2 0x23FD DUP6 DUP5 PUSH2 0x2B73 JUMP JUMPDEST EQ SWAP5 SWAP4 POP POP POP POP JUMP JUMPDEST PUSH1 0x40 MLOAD PUSH1 0x1 PUSH1 0x1 PUSH1 0xA0 SHL SUB DUP4 DUP2 AND PUSH1 0x24 DUP4 ADD MSTORE PUSH1 0x44 DUP3 ADD DUP4 SWAP1 MSTORE PUSH2 0x2437 SWAP2 DUP6 SWAP2 DUP3 AND SWAP1 PUSH4 0xA9059CBB SWAP1 PUSH1 0x64 ADD PUSH2 0x2328 JUMP JUMPDEST POP POP POP JUMP JUMPDEST PUSH2 0x2444 PUSH2 0x2BB5 JUMP JUMPDEST PUSH0 DUP1 SLOAD PUSH1 0xFF PUSH1 0xA0 SHL NOT AND SWAP1 SSTORE PUSH32 0x5DB9EE0A495BF2E6FF9C91A7834C1BA4FDD244A5E8AA4E537BD38AEAE4B073AA CALLER JUMPDEST PUSH1 0x40 MLOAD PUSH1 0x1 PUSH1 0x1 PUSH1 0xA0 SHL SUB SWAP1 SWAP2 AND DUP2 MSTORE PUSH1 0x20 ADD PUSH1 0x40 MLOAD DUP1 SWAP2 SUB SWAP1 LOG1 JUMP JUMPDEST PUSH0 PUSH1 0x2 NOT PUSH1 0xFF DUP5 AND ADD PUSH2 0x24B5 JUMPI PUSH0 PUSH2 0x24A8 DUP5 DUP5 PUSH2 0x25A5 JUMP JUMPDEST PUSH1 0x80 ADD MLOAD SWAP2 POP PUSH2 0x24D5 SWAP1 POP JUMP JUMPDEST POP PUSH1 0xFF DUP1 DUP4 AND PUSH0 SWAP1 DUP2 MSTORE PUSH1 0x5 PUSH1 0x20 MSTORE PUSH1 0x40 SWAP1 KECCAK256 PUSH1 0x1 ADD SLOAD PUSH1 0x1 PUSH1 0x50 SHL SWAP1 DIV AND JUMPDEST SWAP3 SWAP2 POP POP JUMP JUMPDEST PUSH1 0x40 MLOAD PUSH1 0x1 PUSH1 0x1 PUSH1 0xA0 SHL SUB DUP5 DUP2 AND PUSH1 0x24 DUP4 ADD MSTORE DUP4 DUP2 AND PUSH1 0x44 DUP4 ADD MSTORE PUSH1 0x64 DUP3 ADD DUP4 SWAP1 MSTORE PUSH2 0xF5C SWAP2 DUP7 SWAP2 DUP3 AND SWAP1 PUSH4 0x23B872DD SWAP1 PUSH1 0x84 ADD PUSH2 0x2328 JUMP JUMPDEST PUSH0 DUP1 SLOAD PUSH1 0x1 PUSH1 0x1 PUSH1 0xA0 SHL SUB DUP4 DUP2 AND PUSH1 0x1 PUSH1 0x1 PUSH1 0xA0 SHL SUB NOT DUP4 AND DUP2 OR DUP5 SSTORE PUSH1 0x40 MLOAD SWAP2 SWAP1 SWAP3 AND SWAP3 DUP4 SWAP2 PUSH32 0x8BE0079C531659141344CD1FD0A4F28419497F9722A3DAAFE3B4186F6B6457E0 SWAP2 SWAP1 LOG3 POP POP JUMP JUMPDEST PUSH2 0x256B PUSH2 0x2253 JUMP JUMPDEST PUSH0 DUP1 SLOAD PUSH1 0xFF PUSH1 0xA0 SHL NOT AND PUSH1 0x1 PUSH1 0xA0 SHL OR SWAP1 SSTORE PUSH32 0x62E78CEA01BEE320CD4E420270B5EA74000D11B0C9F74754EBDBFC544B05A258 PUSH2 0x2473 CALLER SWAP1 JUMP JUMPDEST PUSH1 0x40 DUP1 MLOAD PUSH1 0xC0 DUP2 ADD DUP3 MSTORE PUSH0 DUP1 DUP3 MSTORE PUSH1 0x20 DUP3 ADD DUP2 SWAP1 MSTORE SWAP2 DUP2 ADD DUP3 SWAP1 MSTORE PUSH1 0x60 DUP2 ADD DUP3 SWAP1 MSTORE PUSH1 0x80 DUP2 ADD DUP3 SWAP1 MSTORE PUSH1 0xA0 DUP2 ADD SWAP2 SWAP1 SWAP2 MSTORE PUSH1 0x2 NOT PUSH1 0xFF DUP5 AND ADD PUSH2 0x282F JUMPI PUSH0 PUSH1 0x5 DUP2 DUP1 PUSH1 0xFF SWAP1 DUP2 AND DUP3 MSTORE PUSH1 0x20 DUP1 DUP4 ADD SWAP4 SWAP1 SWAP4 MSTORE PUSH1 0x40 SWAP2 DUP3 ADD PUSH0 SWAP1 DUP2 KECCAK256 DUP4 MLOAD PUSH1 0xC0 DUP2 ADD DUP6 MSTORE DUP2 SLOAD DUP2 MSTORE PUSH1 0x1 SWAP2 DUP3 ADD SLOAD PUSH2 0xFFFF DUP2 AND SWAP7 DUP3 ADD SWAP7 SWAP1 SWAP7 MSTORE PUSH4 0xFFFFFFFF PUSH3 0x10000 DUP8 DIV DUP2 AND SWAP6 DUP3 ADD SWAP6 SWAP1 SWAP6 MSTORE PUSH1 0x1 PUSH1 0x30 SHL DUP7 DIV SWAP1 SWAP5 AND PUSH1 0x60 DUP6 ADD MSTORE PUSH1 0x1 PUSH1 0x50 SHL DUP6 DIV DUP4 AND PUSH1 0x80 DUP6 ADD MSTORE PUSH1 0x1 PUSH1 0x58 SHL SWAP1 SWAP5 DIV SWAP1 SWAP2 AND ISZERO ISZERO PUSH1 0xA0 DUP4 ADD MSTORE SWAP1 SWAP3 POP SWAP1 PUSH1 0x5 SWAP1 DUP3 SWAP1 PUSH1 0xFF SWAP1 DUP2 AND DUP3 MSTORE PUSH1 0x20 DUP1 DUP4 ADD SWAP4 SWAP1 SWAP4 MSTORE PUSH1 0x40 SWAP2 DUP3 ADD PUSH0 SWAP1 DUP2 KECCAK256 DUP4 MLOAD PUSH1 0xC0 DUP2 ADD DUP6 MSTORE DUP2 SLOAD DUP2 MSTORE PUSH1 0x1 SWAP1 SWAP2 ADD SLOAD PUSH2 0xFFFF DUP2 AND SWAP6 DUP3 ADD SWAP6 SWAP1 SWAP6 MSTORE PUSH4 0xFFFFFFFF PUSH3 0x10000 DUP7 DIV DUP2 AND SWAP5 DUP3 ADD SWAP5 SWAP1 SWAP5 MSTORE PUSH1 0x1 PUSH1 0x30 SHL DUP6 DIV SWAP1 SWAP4 AND PUSH1 0x60 DUP5 ADD MSTORE PUSH1 0x1 PUSH1 0x50 SHL DUP5 DIV DUP3 AND PUSH1 0x80 DUP5 ADD MSTORE PUSH1 0x1 PUSH1 0x58 SHL SWAP1 SWAP4 DIV AND ISZERO ISZERO PUSH1 0xA0 DUP3 ADD MSTORE SWAP2 POP PUSH1 0x5 DUP2 PUSH1 0x2 PUSH1 0xFF SWAP1 DUP2 AND DUP3 MSTORE PUSH1 0x20 DUP1 DUP4 ADD SWAP4 SWAP1 SWAP4 MSTORE PUSH1 0x40 SWAP2 DUP3 ADD PUSH0 KECCAK256 DUP3 MLOAD PUSH1 0xC0 DUP2 ADD DUP5 MSTORE DUP2 SLOAD DUP2 MSTORE PUSH1 0x1 SWAP1 SWAP2 ADD SLOAD PUSH2 0xFFFF DUP2 AND SWAP5 DUP3 ADD SWAP5 SWAP1 SWAP5 MSTORE PUSH4 0xFFFFFFFF PUSH3 0x10000 DUP6 DIV DUP2 AND SWAP4 DUP3 ADD SWAP4 SWAP1 SWAP4 MSTORE PUSH1 0x1 PUSH1 0x30 SHL DUP5 DIV SWAP1 SWAP3 AND PUSH1 0x60 DUP4 ADD MSTORE PUSH1 0x1 PUSH1 0x50 SHL DUP4 DIV DUP2 AND PUSH1 0x80 DUP4 ADD MSTORE PUSH1 0x1 PUSH1 0x58 SHL SWAP1 SWAP3 DIV SWAP1 SWAP2 AND ISZERO ISZERO PUSH1 0xA0 DUP1 DUP4 ADD SWAP2 SWAP1 SWAP2 MSTORE DUP5 ADD MLOAD SWAP1 SWAP2 POP DUP1 ISZERO PUSH2 0x2778 JUMPI POP DUP2 PUSH1 0xA0 ADD MLOAD JUMPDEST DUP1 ISZERO PUSH2 0x2785 JUMPI POP DUP1 PUSH1 0xA0 ADD MLOAD JUMPDEST PUSH2 0x27C2 JUMPI PUSH1 0x40 MLOAD PUSH3 0x461BCD PUSH1 0xE5 SHL DUP2 MSTORE PUSH1 0x20 PUSH1 0x4 DUP3 ADD MSTORE PUSH1 0xE PUSH1 0x24 DUP3 ADD MSTORE PUSH14 0x746965727320696E616374697665 PUSH1 0x90 SHL PUSH1 0x44 DUP3 ADD MSTORE PUSH1 0x64 ADD PUSH2 0x7BE JUMP JUMPDEST DUP3 MLOAD DUP6 LT ISZERO PUSH2 0x2802 JUMPI PUSH1 0x40 MLOAD PUSH3 0x461BCD PUSH1 0xE5 SHL DUP2 MSTORE PUSH1 0x20 PUSH1 0x4 DUP3 ADD MSTORE PUSH1 0xC PUSH1 0x24 DUP3 ADD MSTORE PUSH12 0x31BAB9BA37B6901E1036B4B7 PUSH1 0xA1 SHL PUSH1 0x44 DUP3 ADD MSTORE PUSH1 0x64 ADD PUSH2 0x7BE JUMP JUMPDEST DUP1 MLOAD DUP6 GT ISZERO PUSH2 0x2813 JUMPI DUP1 SWAP4 POP PUSH2 0x2827 JUMP JUMPDEST DUP2 MLOAD DUP6 LT PUSH2 0x2823 JUMPI DUP2 SWAP4 POP PUSH2 0x2827 JUMP JUMPDEST DUP3 SWAP4 POP JUMPDEST POP POP POP PUSH2 0x24D5 JUMP JUMPDEST POP PUSH1 0xFF DUP1 DUP4 AND PUSH0 SWAP1 DUP2 MSTORE PUSH1 0x5 PUSH1 0x20 SWAP1 DUP2 MSTORE PUSH1 0x40 SWAP2 DUP3 SWAP1 KECCAK256 DUP3 MLOAD PUSH1 0xC0 DUP2 ADD DUP5 MSTORE DUP2 SLOAD DUP2 MSTORE PUSH1 0x1 SWAP1 SWAP2 ADD SLOAD PUSH2 0xFFFF DUP2 AND SWAP3 DUP3 ADD SWAP3 SWAP1 SWAP3 MSTORE PUSH4 0xFFFFFFFF PUSH3 0x10000 DUP4 DIV DUP2 AND SWAP4 DUP3 ADD SWAP4 SWAP1 SWAP4 MSTORE PUSH1 0x1 PUSH1 0x30 SHL DUP3 DIV SWAP1 SWAP3 AND PUSH1 0x60 DUP4 ADD MSTORE PUSH1 0x1 PUSH1 0x50 SHL DUP2 DIV DUP4 AND PUSH1 0x80 DUP4 ADD MSTORE PUSH1 0x1 PUSH1 0x58 SHL SWAP1 DIV SWAP1 SWAP2 AND ISZERO ISZERO PUSH1 0xA0 DUP3 ADD DUP2 SWAP1 MSTORE PUSH2 0x28E4 JUMPI PUSH1 0x40 MLOAD PUSH3 0x461BCD PUSH1 0xE5 SHL DUP2 MSTORE PUSH1 0x20 PUSH1 0x4 DUP3 ADD MSTORE PUSH1 0xD PUSH1 0x24 DUP3 ADD MSTORE PUSH13 0x7469657220696E616374697665 PUSH1 0x98 SHL PUSH1 0x44 DUP3 ADD MSTORE PUSH1 0x64 ADD PUSH2 0x7BE JUMP JUMPDEST DUP1 MLOAD DUP3 LT ISZERO PUSH2 0x2921 JUMPI PUSH1 0x40 MLOAD PUSH3 0x461BCD PUSH1 0xE5 SHL DUP2 MSTORE PUSH1 0x20 PUSH1 0x4 DUP3 ADD MSTORE PUSH1 0x9 PUSH1 0x24 DUP3 ADD MSTORE PUSH9 0x3132B637BB9036B4B7 PUSH1 0xB9 SHL PUSH1 0x44 DUP3 ADD MSTORE PUSH1 0x64 ADD PUSH2 0x7BE JUMP JUMPDEST PUSH2 0x24D5 JUMP JUMPDEST PUSH0 DUP2 PUSH1 0x40 ADD MLOAD PUSH4 0xFFFFFFFF AND DUP4 LT DUP1 PUSH2 0x2948 JUMPI POP DUP2 PUSH1 0x60 ADD MLOAD PUSH4 0xFFFFFFFF AND DUP4 GT JUMPDEST ISZERO PUSH2 0x2954 JUMPI POP PUSH0 PUSH2 0x24D5 JUMP JUMPDEST PUSH2 0x295F PUSH1 0x3C DUP5 PUSH2 0x32AC JUMP JUMPDEST ISZERO PUSH2 0x296B JUMPI POP PUSH0 PUSH2 0x24D5 JUMP JUMPDEST PUSH0 PUSH2 0x2977 PUSH1 0x3C DUP6 PUSH2 0x3299 JUMP JUMPDEST SWAP1 POP PUSH1 0x1 DUP2 LT DUP1 PUSH2 0x2988 JUMPI POP PUSH1 0x5 DUP2 GT JUMPDEST ISZERO PUSH2 0x2996 JUMPI PUSH0 SWAP2 POP POP PUSH2 0x24D5 JUMP JUMPDEST POP PUSH1 0x1 SWAP4 SWAP3 POP POP POP JUMP JUMPDEST PUSH1 0x1 PUSH1 0x1 PUSH1 0xA0 SHL SUB DUP3 DUP2 AND PUSH0 SWAP1 DUP2 MSTORE PUSH1 0x7 PUSH1 0x20 MSTORE PUSH1 0x40 SWAP1 KECCAK256 SLOAD AND ISZERO DUP1 ISZERO PUSH2 0x29CF JUMPI POP PUSH1 0x1 PUSH1 0x1 PUSH1 0xA0 SHL SUB DUP2 AND ISZERO ISZERO JUMPDEST DUP1 ISZERO PUSH2 0x29ED JUMPI POP DUP2 PUSH1 0x1 PUSH1 0x1 PUSH1 0xA0 SHL SUB AND DUP2 PUSH1 0x1 PUSH1 0x1 PUSH1 0xA0 SHL SUB AND EQ ISZERO JUMPDEST ISZERO PUSH2 0x2A45 JUMPI PUSH1 0x1 PUSH1 0x1 PUSH1 0xA0 SHL SUB DUP3 DUP2 AND PUSH0 DUP2 DUP2 MSTORE PUSH1 0x7 PUSH1 0x20 MSTORE PUSH1 0x40 DUP1 DUP3 KECCAK256 DUP1 SLOAD PUSH1 0x1 PUSH1 0x1 PUSH1 0xA0 SHL SUB NOT AND SWAP5 DUP7 AND SWAP5 DUP6 OR SWAP1 SSTORE MLOAD PUSH32 0x5F7165288EEF601591CF549E15FF19EF9060B7F71B9C115BE946FA1FE7EBF68A SWAP2 SWAP1 LOG3 JUMPDEST PUSH1 0x1 PUSH1 0x1 PUSH1 0xA0 SHL SUB DUP1 DUP4 AND PUSH0 SWAP1 DUP2 MSTORE PUSH1 0x7 PUSH1 0x20 MSTORE PUSH1 0x40 SWAP1 KECCAK256 SLOAD AND DUP1 ISZERO DUP1 ISZERO SWAP1 PUSH2 0x2A85 JUMPI POP PUSH1 0x1 PUSH1 0x1 PUSH1 0xA0 SHL SUB DUP4 AND PUSH0 SWAP1 DUP2 MSTORE PUSH1 0x6 PUSH1 0x20 MSTORE PUSH1 0x40 SWAP1 KECCAK256 SLOAD PUSH1 0x1 EQ JUMPDEST ISZERO PUSH2 0x2437 JUMPI PUSH1 0x1 PUSH1 0x1 PUSH1 0xA0 SHL SUB AND PUSH0 SWAP1 DUP2 MSTORE PUSH1 0x8 PUSH1 0x20 MSTORE PUSH1 0x40 SWAP1 KECCAK256 DUP1 SLOAD PUSH4 0xFFFFFFFF DUP1 DUP3 AND PUSH1 0x1 ADD AND PUSH4 0xFFFFFFFF NOT SWAP1 SWAP2 AND OR SWAP1 SSTORE POP POP JUMP JUMPDEST PUSH0 PUSH0 PUSH0 PUSH0 PUSH1 0x20 PUSH0 DUP7 MLOAD PUSH1 0x20 DUP9 ADD PUSH0 DUP11 GAS CALL SWAP3 POP RETURNDATASIZE SWAP2 POP PUSH0 MLOAD SWAP1 POP DUP3 DUP1 ISZERO PUSH2 0x2AFD JUMPI POP DUP2 ISZERO PUSH2 0x2AEF JUMPI DUP1 PUSH1 0x1 EQ PUSH2 0x2AFD JUMP JUMPDEST PUSH0 DUP7 PUSH1 0x1 PUSH1 0x1 PUSH1 0xA0 SHL SUB AND EXTCODESIZE GT JUMPDEST SWAP7 SWAP6 POP POP POP POP POP POP JUMP JUMPDEST PUSH0 PUSH0 PUSH1 0x20 PUSH0 DUP5 MLOAD PUSH1 0x20 DUP7 ADD PUSH0 DUP9 GAS CALL DUP1 PUSH2 0x2B26 JUMPI PUSH1 0x40 MLOAD RETURNDATASIZE PUSH0 DUP3 RETURNDATACOPY RETURNDATASIZE DUP2 REVERT JUMPDEST POP POP PUSH0 MLOAD RETURNDATASIZE SWAP2 POP DUP2 ISZERO PUSH2 0x2B3D JUMPI DUP1 PUSH1 0x1 EQ ISZERO PUSH2 0x2B4A JUMP JUMPDEST PUSH1 0x1 PUSH1 0x1 PUSH1 0xA0 SHL SUB DUP5 AND EXTCODESIZE ISZERO JUMPDEST ISZERO PUSH2 0xF5C JUMPI PUSH1 0x40 MLOAD PUSH4 0x5274AFE7 PUSH1 0xE0 SHL DUP2 MSTORE PUSH1 0x1 PUSH1 0x1 PUSH1 0xA0 SHL SUB DUP6 AND PUSH1 0x4 DUP3 ADD MSTORE PUSH1 0x24 ADD PUSH2 0x7BE JUMP JUMPDEST PUSH0 DUP2 DUP2 JUMPDEST DUP5 MLOAD DUP2 LT ISZERO PUSH2 0x2BAD JUMPI PUSH2 0x2BA3 DUP3 DUP7 DUP4 DUP2 MLOAD DUP2 LT PUSH2 0x2B96 JUMPI PUSH2 0x2B96 PUSH2 0x3247 JUMP JUMPDEST PUSH1 0x20 MUL PUSH1 0x20 ADD ADD MLOAD PUSH2 0x2BDE JUMP JUMPDEST SWAP2 POP PUSH1 0x1 ADD PUSH2 0x2B77 JUMP JUMPDEST POP SWAP4 SWAP3 POP POP POP JUMP JUMPDEST PUSH0 SLOAD PUSH1 0x1 PUSH1 0xA0 SHL SWAP1 DIV PUSH1 0xFF AND PUSH2 0x1179 JUMPI PUSH1 0x40 MLOAD PUSH4 0x8DFC202B PUSH1 0xE0 SHL DUP2 MSTORE PUSH1 0x4 ADD PUSH1 0x40 MLOAD DUP1 SWAP2 SUB SWAP1 REVERT JUMPDEST PUSH0 DUP2 DUP4 LT PUSH2 0x2BF8 JUMPI PUSH0 DUP3 DUP2 MSTORE PUSH1 0x20 DUP5 SWAP1 MSTORE PUSH1 0x40 SWAP1 KECCAK256 PUSH2 0x2C06 JUMP JUMPDEST PUSH0 DUP4 DUP2 MSTORE PUSH1 0x20 DUP4 SWAP1 MSTORE PUSH1 0x40 SWAP1 KECCAK256 JUMPDEST SWAP4 SWAP3 POP POP POP JUMP JUMPDEST DUP1 CALLDATALOAD PUSH1 0x1 PUSH1 0x1 PUSH1 0xA0 SHL SUB DUP2 AND DUP2 EQ PUSH2 0x2C23 JUMPI PUSH0 PUSH0 REVERT JUMPDEST SWAP2 SWAP1 POP JUMP JUMPDEST PUSH0 PUSH0 PUSH1 0x40 DUP4 DUP6 SUB SLT ISZERO PUSH2 0x2C39 JUMPI PUSH0 PUSH0 REVERT JUMPDEST DUP3 CALLDATALOAD SWAP2 POP PUSH2 0x2C49 PUSH1 0x20 DUP5 ADD PUSH2 0x2C0D JUMP JUMPDEST SWAP1 POP SWAP3 POP SWAP3 SWAP1 POP JUMP JUMPDEST PUSH0 PUSH0 PUSH0 PUSH1 0x60 DUP5 DUP7 SUB SLT ISZERO PUSH2 0x2C64 JUMPI PUSH0 PUSH0 REVERT JUMPDEST DUP4 CALLDATALOAD SWAP3 POP PUSH2 0x2C74 PUSH1 0x20 DUP6 ADD PUSH2 0x2C0D JUMP JUMPDEST SWAP3 SWAP6 SWAP3 SWAP5 POP POP POP PUSH1 0x40 SWAP2 SWAP1 SWAP2 ADD CALLDATALOAD SWAP1 JUMP JUMPDEST PUSH1 0xFF DUP2 AND DUP2 EQ PUSH2 0x1105 JUMPI PUSH0 PUSH0 REVERT JUMPDEST DUP1 CALLDATALOAD PUSH2 0x2C23 DUP2 PUSH2 0x2C85 JUMP JUMPDEST PUSH0 PUSH0 DUP3 DUP5 SUB PUSH1 0xE0 DUP2 SLT ISZERO PUSH2 0x2CB0 JUMPI PUSH0 PUSH0 REVERT JUMPDEST DUP4 CALLDATALOAD PUSH2 0x2CBB DUP2 PUSH2 0x2C85 JUMP JUMPDEST SWAP3 POP PUSH1 0xC0 PUSH1 0x1F NOT DUP3 ADD SLT ISZERO PUSH2 0x2CCE JUMPI PUSH0 PUSH0 REVERT JUMPDEST POP PUSH1 0x20 DUP4 ADD SWAP1 POP SWAP3 POP SWAP3 SWAP1 POP JUMP JUMPDEST PUSH0 PUSH0 PUSH1 0x40 DUP4 DUP6 SUB SLT ISZERO PUSH2 0x2CED JUMPI PUSH0 PUSH0 REVERT JUMPDEST POP POP DUP1 CALLDATALOAD SWAP3 PUSH1 0x20 SWAP1 SWAP2 ADD CALLDATALOAD SWAP2 POP JUMP JUMPDEST PUSH0 PUSH1 0x20 DUP3 DUP5 SUB SLT ISZERO PUSH2 0x2D0C JUMPI PUSH0 PUSH0 REVERT JUMPDEST PUSH2 0x2C06 DUP3 PUSH2 0x2C0D JUMP JUMPDEST PUSH0 PUSH0 PUSH0 PUSH0 PUSH1 0x60 DUP6 DUP8 SUB SLT ISZERO PUSH2 0x2D28 JUMPI PUSH0 PUSH0 REVERT JUMPDEST DUP5 CALLDATALOAD SWAP4 POP PUSH1 0x20 DUP6 ADD CALLDATALOAD SWAP3 POP PUSH1 0x40 DUP6 ADD CALLDATALOAD PUSH8 0xFFFFFFFFFFFFFFFF DUP2 GT ISZERO PUSH2 0x2D4C JUMPI PUSH0 PUSH0 REVERT JUMPDEST DUP6 ADD PUSH1 0x1F DUP2 ADD DUP8 SGT PUSH2 0x2D5C JUMPI PUSH0 PUSH0 REVERT JUMPDEST DUP1 CALLDATALOAD PUSH8 0xFFFFFFFFFFFFFFFF DUP2 GT ISZERO PUSH2 0x2D72 JUMPI PUSH0 PUSH0 REVERT JUMPDEST DUP8 PUSH1 0x20 DUP3 PUSH1 0x5 SHL DUP5 ADD ADD GT ISZERO PUSH2 0x2D86 JUMPI PUSH0 PUSH0 REVERT JUMPDEST SWAP5 SWAP8 SWAP4 SWAP7 POP PUSH1 0x20 ADD SWAP5 POP POP POP JUMP JUMPDEST PUSH0 PUSH1 0x20 DUP3 DUP5 SUB SLT ISZERO PUSH2 0x2DA4 JUMPI PUSH0 PUSH0 REVERT JUMPDEST POP CALLDATALOAD SWAP2 SWAP1 POP JUMP JUMPDEST PUSH0 PUSH0 PUSH1 0x40 DUP4 DUP6 SUB SLT ISZERO PUSH2 0x2DBC JUMPI PUSH0 PUSH0 REVERT JUMPDEST PUSH2 0x2DC5 DUP4 PUSH2 0x2C0D JUMP JUMPDEST SWAP5 PUSH1 0x20 SWAP4 SWAP1 SWAP4 ADD CALLDATALOAD SWAP4 POP POP POP JUMP JUMPDEST PUSH0 PUSH0 PUSH0 PUSH1 0x60 DUP5 DUP7 SUB SLT ISZERO PUSH2 0x2DE5 JUMPI PUSH0 PUSH0 REVERT JUMPDEST PUSH2 0x2DEE DUP5 PUSH2 0x2C0D JUMP JUMPDEST SWAP3 POP PUSH1 0x20 DUP5 ADD CALLDATALOAD PUSH2 0x2C74 DUP2 PUSH2 0x2C85 JUMP JUMPDEST PUSH1 0x20 DUP1 DUP3 MSTORE DUP3 MLOAD DUP3 DUP3 ADD DUP2 SWAP1 MSTORE PUSH0 SWAP2 DUP5 ADD SWAP1 PUSH1 0x40 DUP5 ADD SWAP1 DUP4 JUMPDEST DUP2 DUP2 LT ISZERO PUSH2 0x2E7E JUMPI DUP4 MLOAD DUP1 MLOAD DUP5 MSTORE PUSH8 0xFFFFFFFFFFFFFFFF PUSH1 0x20 DUP3 ADD MLOAD AND PUSH1 0x20 DUP6 ADD MSTORE PUSH8 0xFFFFFFFFFFFFFFFF PUSH1 0x40 DUP3 ADD MLOAD AND PUSH1 0x40 DUP6 ADD MSTORE PUSH1 0xFF PUSH1 0x60 DUP3 ADD MLOAD AND PUSH1 0x60 DUP6 ADD MSTORE PUSH1 0x80 DUP2 ADD MLOAD ISZERO ISZERO PUSH1 0x80 DUP6 ADD MSTORE POP PUSH1 0xA0 DUP4 ADD SWAP3 POP PUSH1 0x20 DUP5 ADD SWAP4 POP PUSH1 0x1 DUP2 ADD SWAP1 POP PUSH2 0x2E17 JUMP JUMPDEST POP SWAP1 SWAP6 SWAP5 POP POP POP POP POP JUMP JUMPDEST DUP1 ISZERO ISZERO DUP2 EQ PUSH2 0x1105 JUMPI PUSH0 PUSH0 REVERT JUMPDEST DUP1 CALLDATALOAD PUSH2 0x2C23 DUP2 PUSH2 0x2E89 JUMP JUMPDEST PUSH0 PUSH1 0x20 DUP3 DUP5 SUB SLT ISZERO PUSH2 0x2EB1 JUMPI PUSH0 PUSH0 REVERT JUMPDEST DUP2 CALLDATALOAD PUSH2 0x2C06 DUP2 PUSH2 0x2E89 JUMP JUMPDEST PUSH0 PUSH0 PUSH0 PUSH0 PUSH0 PUSH0 PUSH1 0xC0 DUP8 DUP10 SUB SLT ISZERO PUSH2 0x2ED1 JUMPI PUSH0 PUSH0 REVERT JUMPDEST DUP7 CALLDATALOAD SWAP6 POP PUSH1 0x20 DUP8 ADD CALLDATALOAD SWAP5 POP PUSH1 0x40 DUP8 ADD CALLDATALOAD SWAP4 POP PUSH1 0x60 DUP8 ADD CALLDATALOAD PUSH2 0x2EF1 DUP2 PUSH2 0x2C85 JUMP JUMPDEST SWAP3 POP PUSH2 0x2EFF PUSH1 0x80 DUP9 ADD PUSH2 0x2C0D JUMP JUMPDEST SWAP6 SWAP9 SWAP5 SWAP8 POP SWAP3 SWAP6 SWAP2 SWAP5 SWAP4 PUSH1 0xA0 SWAP1 SWAP3 ADD CALLDATALOAD SWAP3 POP POP JUMP JUMPDEST PUSH0 PUSH1 0x20 DUP3 DUP5 SUB SLT ISZERO PUSH2 0x2F24 JUMPI PUSH0 PUSH0 REVERT JUMPDEST DUP2 CALLDATALOAD PUSH2 0x2C06 DUP2 PUSH2 0x2C85 JUMP JUMPDEST PUSH4 0x4E487B71 PUSH1 0xE0 SHL PUSH0 MSTORE PUSH1 0x11 PUSH1 0x4 MSTORE PUSH1 0x24 PUSH0 REVERT JUMPDEST DUP2 DUP2 SUB DUP2 DUP2 GT ISZERO PUSH2 0x24D5 JUMPI PUSH2 0x24D5 PUSH2 0x2F2F JUMP JUMPDEST PUSH0 PUSH1 0x1 DUP3 ADD PUSH2 0x2F67 JUMPI PUSH2 0x2F67 PUSH2 0x2F2F JUMP JUMPDEST POP PUSH1 0x1 ADD SWAP1 JUMP JUMPDEST PUSH2 0xFFFF DUP2 AND DUP2 EQ PUSH2 0x1105 JUMPI PUSH0 PUSH0 REVERT JUMPDEST DUP1 CALLDATALOAD PUSH2 0x2C23 DUP2 PUSH2 0x2F6E JUMP JUMPDEST PUSH4 0xFFFFFFFF DUP2 AND DUP2 EQ PUSH2 0x1105 JUMPI PUSH0 PUSH0 REVERT JUMPDEST DUP1 CALLDATALOAD PUSH2 0x2C23 DUP2 PUSH2 0x2F88 JUMP JUMPDEST PUSH0 PUSH1 0xC0 DUP3 DUP5 SUB SLT DUP1 ISZERO PUSH2 0x2FB5 JUMPI PUSH0 PUSH0 REVERT JUMPDEST POP PUSH1 0x40 MLOAD PUSH1 0xC0 DUP2 ADD PUSH8 0xFFFFFFFFFFFFFFFF DUP2 GT DUP3 DUP3 LT OR ISZERO PUSH2 0x2FE5 JUMPI PUSH4 0x4E487B71 PUSH1 0xE0 SHL PUSH0 MSTORE PUSH1 0x41 PUSH1 0x4 MSTORE PUSH1 0x24 PUSH0 REVERT JUMPDEST PUSH1 0x40 MSTORE DUP3 CALLDATALOAD DUP2 MSTORE PUSH2 0x2FF8 PUSH1 0x20 DUP5 ADD PUSH2 0x2F7D JUMP JUMPDEST PUSH1 0x20 DUP3 ADD MSTORE PUSH2 0x3009 PUSH1 0x40 DUP5 ADD PUSH2 0x2F99 JUMP JUMPDEST PUSH1 0x40 DUP3 ADD MSTORE PUSH2 0x301A PUSH1 0x60 DUP5 ADD PUSH2 0x2F99 JUMP JUMPDEST PUSH1 0x60 DUP3 ADD MSTORE PUSH2 0x302B PUSH1 0x80 DUP5 ADD PUSH2 0x2C93 JUMP JUMPDEST PUSH1 0x80 DUP3 ADD MSTORE PUSH2 0x303C PUSH1 0xA0 DUP5 ADD PUSH2 0x2E96 JUMP JUMPDEST PUSH1 0xA0 DUP3 ADD MSTORE SWAP4 SWAP3 POP POP POP JUMP JUMPDEST PUSH0 DUP2 CALLDATALOAD PUSH2 0x24D5 DUP2 PUSH2 0x2C85 JUMP JUMPDEST PUSH0 DUP2 CALLDATALOAD PUSH2 0x24D5 DUP2 PUSH2 0x2E89 JUMP JUMPDEST DUP2 CALLDATALOAD DUP2 SSTORE PUSH1 0x1 DUP2 ADD PUSH1 0x20 DUP4 ADD CALLDATALOAD PUSH2 0x3076 DUP2 PUSH2 0x2F6E JUMP JUMPDEST PUSH2 0xFFFF DUP2 AND PUSH2 0xFFFF NOT DUP4 SLOAD AND OR DUP3 SSTORE POP PUSH1 0x40 DUP4 ADD CALLDATALOAD PUSH2 0x3094 DUP2 PUSH2 0x2F88 JUMP JUMPDEST DUP2 SLOAD PUSH6 0xFFFFFFFF0000 NOT AND PUSH1 0x10 SWAP2 SWAP1 SWAP2 SHL PUSH6 0xFFFFFFFF0000 AND OR DUP2 SSTORE PUSH0 PUSH1 0x60 DUP5 ADD CALLDATALOAD PUSH2 0x30BF DUP2 PUSH2 0x2F88 JUMP JUMPDEST DUP3 SLOAD PUSH10 0xFFFFFFFF000000000000 NOT AND PUSH1 0x30 SWAP2 SWAP1 SWAP2 SHL PUSH10 0xFFFFFFFF000000000000 AND OR DUP3 SSTORE POP PUSH2 0x3111 PUSH2 0x30F3 PUSH1 0x80 DUP6 ADD PUSH2 0x3048 JUMP JUMPDEST DUP3 DUP1 SLOAD PUSH1 0xFF PUSH1 0x50 SHL NOT AND PUSH1 0x50 SWAP3 SWAP1 SWAP3 SHL PUSH1 0xFF PUSH1 0x50 SHL AND SWAP2 SWAP1 SWAP2 OR SWAP1 SSTORE JUMP JUMPDEST PUSH2 0x2437 PUSH2 0x3120 PUSH1 0xA0 DUP6 ADD PUSH2 0x3054 JUMP JUMPDEST DUP3 DUP1 SLOAD PUSH1 0xFF PUSH1 0x58 SHL NOT AND SWAP2 ISZERO ISZERO PUSH1 0x58 SHL PUSH1 0xFF PUSH1 0x58 SHL AND SWAP2 SWAP1 SWAP2 OR SWAP1 SSTORE JUMP JUMPDEST DUP2 CALLDATALOAD DUP2 MSTORE PUSH1 0xC0 DUP2 ADD PUSH1 0x20 DUP4 ADD CALLDATALOAD PUSH2 0x3154 DUP2 PUSH2 0x2F6E JUMP JUMPDEST PUSH2 0xFFFF AND PUSH1 0x20 DUP4 ADD MSTORE PUSH1 0x40 DUP4 ADD CALLDATALOAD PUSH2 0x316B DUP2 PUSH2 0x2F88 JUMP JUMPDEST PUSH4 0xFFFFFFFF AND PUSH1 0x40 DUP4 ADD MSTORE PUSH1 0x60 DUP4 ADD CALLDATALOAD PUSH2 0x3184 DUP2 PUSH2 0x2F88 JUMP JUMPDEST PUSH4 0xFFFFFFFF AND PUSH1 0x60 DUP4 ADD MSTORE PUSH1 0x80 DUP4 ADD CALLDATALOAD PUSH2 0x319D DUP2 PUSH2 0x2C85 JUMP JUMPDEST PUSH1 0xFF AND PUSH1 0x80 DUP4 ADD MSTORE PUSH2 0x31B1 PUSH1 0xA0 DUP5 ADD PUSH2 0x2E96 JUMP JUMPDEST DUP1 ISZERO ISZERO PUSH1 0xA0 DUP5 ADD MSTORE POP SWAP3 SWAP2 POP POP JUMP JUMPDEST PUSH0 PUSH1 0x20 DUP3 DUP5 SUB SLT ISZERO PUSH2 0x31D0 JUMPI PUSH0 PUSH0 REVERT JUMPDEST POP MLOAD SWAP2 SWAP1 POP JUMP JUMPDEST PUSH0 PUSH1 0xA0 DUP3 ADD DUP8 DUP4 MSTORE DUP7 PUSH1 0x20 DUP5 ADD MSTORE PUSH1 0xA0 PUSH1 0x40 DUP5 ADD MSTORE DUP1 DUP7 MLOAD DUP1 DUP4 MSTORE PUSH1 0xC0 DUP6 ADD SWAP2 POP PUSH1 0x20 DUP9 ADD SWAP3 POP PUSH0 JUMPDEST DUP2 DUP2 LT ISZERO PUSH2 0x3227 JUMPI DUP4 MLOAD PUSH1 0x1 PUSH1 0x1 PUSH1 0xA0 SHL SUB AND DUP4 MSTORE PUSH1 0x20 SWAP4 DUP5 ADD SWAP4 SWAP1 SWAP3 ADD SWAP2 PUSH1 0x1 ADD PUSH2 0x3200 JUMP JUMPDEST POP POP PUSH1 0x1 PUSH1 0x1 PUSH1 0xA0 SHL SUB SWAP6 SWAP1 SWAP6 AND PUSH1 0x60 DUP5 ADD MSTORE POP POP PUSH1 0x80 ADD MSTORE SWAP4 SWAP3 POP POP POP JUMP JUMPDEST PUSH4 0x4E487B71 PUSH1 0xE0 SHL PUSH0 MSTORE PUSH1 0x32 PUSH1 0x4 MSTORE PUSH1 0x24 PUSH0 REVERT JUMPDEST DUP1 DUP3 ADD DUP1 DUP3 GT ISZERO PUSH2 0x24D5 JUMPI PUSH2 0x24D5 PUSH2 0x2F2F JUMP JUMPDEST DUP1 DUP3 MUL DUP2 ISZERO DUP3 DUP3 DIV DUP5 EQ OR PUSH2 0x24D5 JUMPI PUSH2 0x24D5 PUSH2 0x2F2F JUMP JUMPDEST PUSH4 0x4E487B71 PUSH1 0xE0 SHL PUSH0 MSTORE PUSH1 0x12 PUSH1 0x4 MSTORE PUSH1 0x24 PUSH0 REVERT JUMPDEST PUSH0 DUP3 PUSH2 0x32A7 JUMPI PUSH2 0x32A7 PUSH2 0x3285 JUMP JUMPDEST POP DIV SWAP1 JUMP JUMPDEST PUSH0 DUP3 PUSH2 0x32BA JUMPI PUSH2 0x32BA PUSH2 0x3285 JUMP JUMPDEST POP MOD SWAP1 JUMP INVALID LOG2 PUSH5 0x6970667358 0x22 SLT KECCAK256 0xBB SWAP16 CALLVALUE 0xD2 XOR DUP15 CALLDATACOPY 0xCC TIMESTAMP LOG1 0x22 CREATE2 DUP15 DUP7 DUP10 SMOD PUSH13 0x2375F1C4B6054F4939352C78F2 0xAD EOFCREATE 0x64 PUSH20 0x6F6C634300081F00330000000000000000000000 "
		},
		"gasEstimates": {
			"creation": {
				"codeDepositCost": "2609000",
				"executionCost": "infinite",
				"totalCost": "infinite"
			},
			"external": {
				"MAX_LOCK()": "339",
				"MAX_LOCK_YEARS()": "293",
				"MIN_LOCK()": "326",
				"ONE_YEAR()": "285",
				"buyAndLock(uint256,uint256,uint256,uint8,address,uint256)": "infinite",
				"claim(uint256,uint256,bytes32[])": "infinite",
				"claimVip(uint256,uint256,bytes32[])": "infinite",
				"claimed(uint256,address)": "2661",
				"convertFeesToPayout(uint256,uint256)": "infinite",
				"createRewardEpoch(bytes32,address,uint256)": "infinite",
				"createVipRewardEpoch(bytes32,address,uint256)": "152260",
				"directReferrals(address)": "2577",
				"epochs(uint256)": "8974",
				"epochsCount()": "2361",
				"feeCollector()": "2403",
				"fundRewardTokens(address,uint256)": "infinite",
				"fundVipRewardTokens(address,uint256)": "infinite",
				"getLocks(address)": "infinite",
				"getVipPoolBalance()": "2401",
				"isQualified(address,uint8,uint256)": "infinite",
				"locksOf(address,uint256)": "7197",
				"owner()": "2463",
				"pause()": "infinite",
				"paused()": "2420",
				"referrerOf(address)": "2599",
				"renounceOwnership()": "infinite",
				"rescue(address,uint256)": "infinite",
				"retainFeesInContract()": "2381",
				"router()": "2490",
				"setFeeCollector(address)": "27994",
				"setRetainFeesInContract(bool)": "27829",
				"setRouter(address)": "27950",
				"setTier(uint8,(uint256,uint16,uint32,uint32,uint8,bool))": "infinite",
				"tiers(uint8)": "4988",
				"transferOwnership(address)": "28417",
				"unpause()": "infinite",
				"usdt()": "infinite",
				"usdtFeesAccrued()": "2405",
				"vipClaimed(uint256,address)": "2747",
				"vipEpochs(uint256)": "9040",
				"vipEpochsCount()": "2340",
				"vipPoolBalance()": "2361",
				"withdraw(uint256)": "infinite",
				"yourToken()": "infinite"
			},
			"internal": {
				"_buildPath(address,address)": "infinite",
				"_checkTier(struct StakingLock.Tier memory)": "infinite",
				"_handleReferrer(address,address)": "56976",
				"_isValidDuration(uint256,struct StakingLock.Tier memory)": "infinite",
				"_referralsRequired(uint8,uint256)": "infinite",
				"_tierFor(uint8,uint256)": "infinite"
			}
		},
		"methodIdentifiers": {
			"MAX_LOCK()": "65a5d5f0",
			"MAX_LOCK_YEARS()": "7eb73388",
			"MIN_LOCK()": "f8764cec",
			"ONE_YEAR()": "16d3bfbb",
			"buyAndLock(uint256,uint256,uint256,uint8,address,uint256)": "a4e090c5",
			"claim(uint256,uint256,bytes32[])": "ae0b51df",
			"claimVip(uint256,uint256,bytes32[])": "2bb4b0ca",
			"claimed(uint256,address)": "120aa877",
			"convertFeesToPayout(uint256,uint256)": "214bf8b6",
			"createRewardEpoch(bytes32,address,uint256)": "b26c71a8",
			"createVipRewardEpoch(bytes32,address,uint256)": "141c7b52",
			"directReferrals(address)": "24dd80ae",
			"epochs(uint256)": "c6b61e4c",
			"epochsCount()": "916e1c57",
			"feeCollector()": "c415b95c",
			"fundRewardTokens(address,uint256)": "4e1595b3",
			"fundVipRewardTokens(address,uint256)": "6289030b",
			"getLocks(address)": "719f3089",
			"getVipPoolBalance()": "f5e89caa",
			"isQualified(address,uint8,uint256)": "4b081966",
			"locksOf(address,uint256)": "35c06a32",
			"owner()": "8da5cb5b",
			"pause()": "8456cb59",
			"paused()": "5c975abb",
			"referrerOf(address)": "d21cacdf",
			"renounceOwnership()": "715018a6",
			"rescue(address,uint256)": "7a4e4ecf",
			"retainFeesInContract()": "ef35bf54",
			"router()": "f887ea40",
			"setFeeCollector(address)": "a42dce80",
			"setRetainFeesInContract(bool)": "9163f0bd",
			"setRouter(address)": "c0d78655",
			"setTier(uint8,(uint256,uint16,uint32,uint32,uint8,bool))": "1b635db5",
			"tiers(uint8)": "d1d79974",
			"transferOwnership(address)": "f2fde38b",
			"unpause()": "3f4ba83a",
			"usdt()": "2f48ab7d",
			"usdtFeesAccrued()": "c9e18b18",
			"vipClaimed(uint256,address)": "745f2a04",
			"vipEpochs(uint256)": "778b7d0a",
			"vipEpochsCount()": "3f67aefc",
			"vipPoolBalance()": "6f9a8153",
			"withdraw(uint256)": "2e1a7d4d",
			"yourToken()": "7879e84b"
		}
	},
	"abi": [
		{
			"inputs": [
				{
					"internalType": "address",
					"name": "_yourToken",
					"type": "address"
				},
				{
					"internalType": "address",
					"name": "_usdt",
					"type": "address"
				},
				{
					"internalType": "address",
					"name": "_router",
					"type": "address"
				},
				{
					"internalType": "address",
					"name": "_feeCollector",
					"type": "address"
				},
				{
					"components": [
						{
							"internalType": "uint256",
							"name": "minUsd",
							"type": "uint256"
						},
						{
							"internalType": "uint16",
							"name": "feeBps",
							"type": "uint16"
						},
						{
							"internalType": "uint32",
							"name": "minLock",
							"type": "uint32"
						},
						{
							"internalType": "uint32",
							"name": "maxLock",
							"type": "uint32"
						},
						{
							"internalType": "uint8",
							"name": "referralReq",
							"type": "uint8"
						},
						{
							"internalType": "bool",
							"name": "active",
							"type": "bool"
						}
					],
					"internalType": "struct StakingLock.Tier",
					"name": "starter",
					"type": "tuple"
				},
				{
					"components": [
						{
							"internalType": "uint256",
							"name": "minUsd",
							"type": "uint256"
						},
						{
							"internalType": "uint16",
							"name": "feeBps",
							"type": "uint16"
						},
						{
							"internalType": "uint32",
							"name": "minLock",
							"type": "uint32"
						},
						{
							"internalType": "uint32",
							"name": "maxLock",
							"type": "uint32"
						},
						{
							"internalType": "uint8",
							"name": "referralReq",
							"type": "uint8"
						},
						{
							"internalType": "bool",
							"name": "active",
							"type": "bool"
						}
					],
					"internalType": "struct StakingLock.Tier",
					"name": "pro",
					"type": "tuple"
				},
				{
					"components": [
						{
							"internalType": "uint256",
							"name": "minUsd",
							"type": "uint256"
						},
						{
							"internalType": "uint16",
							"name": "feeBps",
							"type": "uint16"
						},
						{
							"internalType": "uint32",
							"name": "minLock",
							"type": "uint32"
						},
						{
							"internalType": "uint32",
							"name": "maxLock",
							"type": "uint32"
						},
						{
							"internalType": "uint8",
							"name": "referralReq",
							"type": "uint8"
						},
						{
							"internalType": "bool",
							"name": "active",
							"type": "bool"
						}
					],
					"internalType": "struct StakingLock.Tier",
					"name": "elite",
					"type": "tuple"
				}
			],
			"stateMutability": "nonpayable",
			"type": "constructor"
		},
		{
			"inputs": [],
			"name": "EnforcedPause",
			"type": "error"
		},
		{
			"inputs": [],
			"name": "ExpectedPause",
			"type": "error"
		},
		{
			"inputs": [
				{
					"internalType": "address",
					"name": "owner",
					"type": "address"
				}
			],
			"name": "OwnableInvalidOwner",
			"type": "error"
		},
		{
			"inputs": [
				{
					"internalType": "address",
					"name": "account",
					"type": "address"
				}
			],
			"name": "OwnableUnauthorizedAccount",
			"type": "error"
		},
		{
			"inputs": [],
			"name": "ReentrancyGuardReentrantCall",
			"type": "error"
		},
		{
			"inputs": [
				{
					"internalType": "address",
					"name": "token",
					"type": "address"
				}
			],
			"name": "SafeERC20FailedOperation",
			"type": "error"
		},
		{
			"anonymous": false,
			"inputs": [
				{
					"indexed": true,
					"internalType": "address",
					"name": "user",
					"type": "address"
				},
				{
					"indexed": false,
					"internalType": "uint256",
					"name": "usdAmount",
					"type": "uint256"
				}
			],
			"name": "FeeCollected",
			"type": "event"
		},
		{
			"anonymous": false,
			"inputs": [
				{
					"indexed": true,
					"internalType": "address",
					"name": "newCollector",
					"type": "address"
				}
			],
			"name": "FeeCollectorUpdated",
			"type": "event"
		},
		{
			"anonymous": false,
			"inputs": [
				{
					"indexed": false,
					"internalType": "uint256",
					"name": "amount",
					"type": "uint256"
				}
			],
			"name": "FeesAccrued",
			"type": "event"
		},
		{
			"anonymous": false,
			"inputs": [
				{
					"indexed": false,
					"internalType": "uint256",
					"name": "usdtIn",
					"type": "uint256"
				},
				{
					"indexed": false,
					"internalType": "uint256",
					"name": "tokenOut",
					"type": "uint256"
				}
			],
			"name": "FeesConverted",
			"type": "event"
		},
		{
			"anonymous": false,
			"inputs": [
				{
					"indexed": true,
					"internalType": "address",
					"name": "user",
					"type": "address"
				},
				{
					"indexed": true,
					"internalType": "uint256",
					"name": "lockId",
					"type": "uint256"
				},
				{
					"indexed": false,
					"internalType": "uint8",
					"name": "packageId",
					"type": "uint8"
				},
				{
					"indexed": false,
					"internalType": "uint256",
					"name": "tokenAmount",
					"type": "uint256"
				},
				{
					"indexed": false,
					"internalType": "uint64",
					"name": "end",
					"type": "uint64"
				}
			],
			"name": "Locked",
			"type": "event"
		},
		{
			"anonymous": false,
			"inputs": [
				{
					"indexed": true,
					"internalType": "address",
					"name": "previousOwner",
					"type": "address"
				},
				{
					"indexed": true,
					"internalType": "address",
					"name": "newOwner",
					"type": "address"
				}
			],
			"name": "OwnershipTransferred",
			"type": "event"
		},
		{
			"anonymous": false,
			"inputs": [
				{
					"indexed": false,
					"internalType": "address",
					"name": "account",
					"type": "address"
				}
			],
			"name": "Paused",
			"type": "event"
		},
		{
			"anonymous": false,
			"inputs": [
				{
					"indexed": true,
					"internalType": "address",
					"name": "user",
					"type": "address"
				},
				{
					"indexed": true,
					"internalType": "address",
					"name": "referrer",
					"type": "address"
				}
			],
			"name": "ReferrerSet",
			"type": "event"
		},
		{
			"anonymous": false,
			"inputs": [
				{
					"indexed": true,
					"internalType": "address",
					"name": "token",
					"type": "address"
				},
				{
					"indexed": false,
					"internalType": "uint256",
					"name": "amount",
					"type": "uint256"
				}
			],
			"name": "Rescue",
			"type": "event"
		},
		{
			"anonymous": false,
			"inputs": [
				{
					"indexed": false,
					"internalType": "bool",
					"name": "retainInContract",
					"type": "bool"
				}
			],
			"name": "RetainFeesUpdated",
			"type": "event"
		},
		{
			"anonymous": false,
			"inputs": [
				{
					"indexed": true,
					"internalType": "uint256",
					"name": "epochId",
					"type": "uint256"
				},
				{
					"indexed": true,
					"internalType": "address",
					"name": "user",
					"type": "address"
				},
				{
					"indexed": false,
					"internalType": "uint256",
					"name": "amount",
					"type": "uint256"
				}
			],
			"name": "RewardClaimed",
			"type": "event"
		},
		{
			"anonymous": false,
			"inputs": [
				{
					"indexed": true,
					"internalType": "uint256",
					"name": "epochId",
					"type": "uint256"
				},
				{
					"indexed": false,
					"internalType": "bytes32",
					"name": "merkleRoot",
					"type": "bytes32"
				},
				{
					"indexed": false,
					"internalType": "address",
					"name": "payoutToken",
					"type": "address"
				},
				{
					"indexed": false,
					"internalType": "uint256",
					"name": "total",
					"type": "uint256"
				}
			],
			"name": "RewardEpochCreated",
			"type": "event"
		},
		{
			"anonymous": false,
			"inputs": [
				{
					"indexed": true,
					"internalType": "address",
					"name": "token",
					"type": "address"
				},
				{
					"indexed": false,
					"internalType": "uint256",
					"name": "amount",
					"type": "uint256"
				}
			],
			"name": "RewardTokensFunded",
			"type": "event"
		},
		{
			"anonymous": false,
			"inputs": [
				{
					"indexed": true,
					"internalType": "address",
					"name": "newRouter",
					"type": "address"
				}
			],
			"name": "RouterUpdated",
			"type": "event"
		},
		{
			"anonymous": false,
			"inputs": [
				{
					"indexed": true,
					"internalType": "uint8",
					"name": "packageId",
					"type": "uint8"
				},
				{
					"components": [
						{
							"internalType": "uint256",
							"name": "minUsd",
							"type": "uint256"
						},
						{
							"internalType": "uint16",
							"name": "feeBps",
							"type": "uint16"
						},
						{
							"internalType": "uint32",
							"name": "minLock",
							"type": "uint32"
						},
						{
							"internalType": "uint32",
							"name": "maxLock",
							"type": "uint32"
						},
						{
							"internalType": "uint8",
							"name": "referralReq",
							"type": "uint8"
						},
						{
							"internalType": "bool",
							"name": "active",
							"type": "bool"
						}
					],
					"indexed": false,
					"internalType": "struct StakingLock.Tier",
					"name": "tier",
					"type": "tuple"
				}
			],
			"name": "TierUpdated",
			"type": "event"
		},
		{
			"anonymous": false,
			"inputs": [
				{
					"indexed": false,
					"internalType": "address",
					"name": "account",
					"type": "address"
				}
			],
			"name": "Unpaused",
			"type": "event"
		},
		{
			"anonymous": false,
			"inputs": [
				{
					"indexed": false,
					"internalType": "uint256",
					"name": "amount",
					"type": "uint256"
				},
				{
					"indexed": false,
					"internalType": "string",
					"name": "source",
					"type": "string"
				}
			],
			"name": "VipPoolFunded",
			"type": "event"
		},
		{
			"anonymous": false,
			"inputs": [
				{
					"indexed": true,
					"internalType": "uint256",
					"name": "epochId",
					"type": "uint256"
				},
				{
					"indexed": true,
					"internalType": "address",
					"name": "user",
					"type": "address"
				},
				{
					"indexed": false,
					"internalType": "uint256",
					"name": "amount",
					"type": "uint256"
				}
			],
			"name": "VipRewardClaimed",
			"type": "event"
		},
		{
			"anonymous": false,
			"inputs": [
				{
					"indexed": true,
					"internalType": "uint256",
					"name": "epochId",
					"type": "uint256"
				},
				{
					"indexed": false,
					"internalType": "bytes32",
					"name": "merkleRoot",
					"type": "bytes32"
				},
				{
					"indexed": false,
					"internalType": "uint256",
					"name": "total",
					"type": "uint256"
				}
			],
			"name": "VipRewardEpochCreated",
			"type": "event"
		},
		{
			"anonymous": false,
			"inputs": [
				{
					"indexed": true,
					"internalType": "address",
					"name": "user",
					"type": "address"
				},
				{
					"indexed": true,
					"internalType": "uint256",
					"name": "lockId",
					"type": "uint256"
				},
				{
					"indexed": false,
					"internalType": "uint256",
					"name": "tokenAmount",
					"type": "uint256"
				}
			],
			"name": "Withdrawn",
			"type": "event"
		},
		{
			"inputs": [],
			"name": "MAX_LOCK",
			"outputs": [
				{
					"internalType": "uint256",
					"name": "",
					"type": "uint256"
				}
			],
			"stateMutability": "view",
			"type": "function"
		},
		{
			"inputs": [],
			"name": "MAX_LOCK_YEARS",
			"outputs": [
				{
					"internalType": "uint8",
					"name": "",
					"type": "uint8"
				}
			],
			"stateMutability": "view",
			"type": "function"
		},
		{
			"inputs": [],
			"name": "MIN_LOCK",
			"outputs": [
				{
					"internalType": "uint256",
					"name": "",
					"type": "uint256"
				}
			],
			"stateMutability": "view",
			"type": "function"
		},
		{
			"inputs": [],
			"name": "ONE_YEAR",
			"outputs": [
				{
					"internalType": "uint256",
					"name": "",
					"type": "uint256"
				}
			],
			"stateMutability": "view",
			"type": "function"
		},
		{
			"inputs": [
				{
					"internalType": "uint256",
					"name": "amountUSDT",
					"type": "uint256"
				},
				{
					"internalType": "uint256",
					"name": "minTokensOut",
					"type": "uint256"
				},
				{
					"internalType": "uint256",
					"name": "duration",
					"type": "uint256"
				},
				{
					"internalType": "uint8",
					"name": "packageId",
					"type": "uint8"
				},
				{
					"internalType": "address",
					"name": "referrer",
					"type": "address"
				},
				{
					"internalType": "uint256",
					"name": "deadline",
					"type": "uint256"
				}
			],
			"name": "buyAndLock",
			"outputs": [],
			"stateMutability": "nonpayable",
			"type": "function"
		},
		{
			"inputs": [
				{
					"internalType": "uint256",
					"name": "epochId",
					"type": "uint256"
				},
				{
					"internalType": "uint256",
					"name": "amount",
					"type": "uint256"
				},
				{
					"internalType": "bytes32[]",
					"name": "proof",
					"type": "bytes32[]"
				}
			],
			"name": "claim",
			"outputs": [],
			"stateMutability": "nonpayable",
			"type": "function"
		},
		{
			"inputs": [
				{
					"internalType": "uint256",
					"name": "epochId",
					"type": "uint256"
				},
				{
					"internalType": "uint256",
					"name": "amount",
					"type": "uint256"
				},
				{
					"internalType": "bytes32[]",
					"name": "proof",
					"type": "bytes32[]"
				}
			],
			"name": "claimVip",
			"outputs": [],
			"stateMutability": "nonpayable",
			"type": "function"
		},
		{
			"inputs": [
				{
					"internalType": "uint256",
					"name": "",
					"type": "uint256"
				},
				{
					"internalType": "address",
					"name": "",
					"type": "address"
				}
			],
			"name": "claimed",
			"outputs": [
				{
					"internalType": "bool",
					"name": "",
					"type": "bool"
				}
			],
			"stateMutability": "view",
			"type": "function"
		},
		{
			"inputs": [
				{
					"internalType": "uint256",
					"name": "minOut",
					"type": "uint256"
				},
				{
					"internalType": "uint256",
					"name": "deadline",
					"type": "uint256"
				}
			],
			"name": "convertFeesToPayout",
			"outputs": [],
			"stateMutability": "nonpayable",
			"type": "function"
		},
		{
			"inputs": [
				{
					"internalType": "bytes32",
					"name": "merkleRoot",
					"type": "bytes32"
				},
				{
					"internalType": "address",
					"name": "payoutToken",
					"type": "address"
				},
				{
					"internalType": "uint256",
					"name": "total",
					"type": "uint256"
				}
			],
			"name": "createRewardEpoch",
			"outputs": [],
			"stateMutability": "nonpayable",
			"type": "function"
		},
		{
			"inputs": [
				{
					"internalType": "bytes32",
					"name": "merkleRoot",
					"type": "bytes32"
				},
				{
					"internalType": "address",
					"name": "payoutToken",
					"type": "address"
				},
				{
					"internalType": "uint256",
					"name": "total",
					"type": "uint256"
				}
			],
			"name": "createVipRewardEpoch",
			"outputs": [],
			"stateMutability": "nonpayable",
			"type": "function"
		},
		{
			"inputs": [
				{
					"internalType": "address",
					"name": "",
					"type": "address"
				}
			],
			"name": "directReferrals",
			"outputs": [
				{
					"internalType": "uint32",
					"name": "",
					"type": "uint32"
				}
			],
			"stateMutability": "view",
			"type": "function"
		},
		{
			"inputs": [
				{
					"internalType": "uint256",
					"name": "",
					"type": "uint256"
				}
			],
			"name": "epochs",
			"outputs": [
				{
					"internalType": "bytes32",
					"name": "root",
					"type": "bytes32"
				},
				{
					"internalType": "contract IERC20",
					"name": "payoutToken",
					"type": "address"
				},
				{
					"internalType": "uint256",
					"name": "total",
					"type": "uint256"
				},
				{
					"internalType": "bool",
					"name": "active",
					"type": "bool"
				}
			],
			"stateMutability": "view",
			"type": "function"
		},
		{
			"inputs": [],
			"name": "epochsCount",
			"outputs": [
				{
					"internalType": "uint256",
					"name": "",
					"type": "uint256"
				}
			],
			"stateMutability": "view",
			"type": "function"
		},
		{
			"inputs": [],
			"name": "feeCollector",
			"outputs": [
				{
					"internalType": "address",
					"name": "",
					"type": "address"
				}
			],
			"stateMutability": "view",
			"type": "function"
		},
		{
			"inputs": [
				{
					"internalType": "address",
					"name": "token",
					"type": "address"
				},
				{
					"internalType": "uint256",
					"name": "amount",
					"type": "uint256"
				}
			],
			"name": "fundRewardTokens",
			"outputs": [],
			"stateMutability": "nonpayable",
			"type": "function"
		},
		{
			"inputs": [
				{
					"internalType": "address",
					"name": "token",
					"type": "address"
				},
				{
					"internalType": "uint256",
					"name": "amount",
					"type": "uint256"
				}
			],
			"name": "fundVipRewardTokens",
			"outputs": [],
			"stateMutability": "nonpayable",
			"type": "function"
		},
		{
			"inputs": [
				{
					"internalType": "address",
					"name": "user",
					"type": "address"
				}
			],
			"name": "getLocks",
			"outputs": [
				{
					"components": [
						{
							"internalType": "uint256",
							"name": "amountToken",
							"type": "uint256"
						},
						{
							"internalType": "uint64",
							"name": "start",
							"type": "uint64"
						},
						{
							"internalType": "uint64",
							"name": "end",
							"type": "uint64"
						},
						{
							"internalType": "uint8",
							"name": "packageId",
							"type": "uint8"
						},
						{
							"internalType": "bool",
							"name": "withdrawn",
							"type": "bool"
						}
					],
					"internalType": "struct StakingLock.Lock[]",
					"name": "",
					"type": "tuple[]"
				}
			],
			"stateMutability": "view",
			"type": "function"
		},
		{
			"inputs": [],
			"name": "getVipPoolBalance",
			"outputs": [
				{
					"internalType": "uint256",
					"name": "",
					"type": "uint256"
				}
			],
			"stateMutability": "view",
			"type": "function"
		},
		{
			"inputs": [
				{
					"internalType": "address",
					"name": "user",
					"type": "address"
				},
				{
					"internalType": "uint8",
					"name": "packageId",
					"type": "uint8"
				},
				{
					"internalType": "uint256",
					"name": "amountUsd6",
					"type": "uint256"
				}
			],
			"name": "isQualified",
			"outputs": [
				{
					"internalType": "bool",
					"name": "",
					"type": "bool"
				}
			],
			"stateMutability": "view",
			"type": "function"
		},
		{
			"inputs": [
				{
					"internalType": "address",
					"name": "",
					"type": "address"
				},
				{
					"internalType": "uint256",
					"name": "",
					"type": "uint256"
				}
			],
			"name": "locksOf",
			"outputs": [
				{
					"internalType": "uint256",
					"name": "amountToken",
					"type": "uint256"
				},
				{
					"internalType": "uint64",
					"name": "start",
					"type": "uint64"
				},
				{
					"internalType": "uint64",
					"name": "end",
					"type": "uint64"
				},
				{
					"internalType": "uint8",
					"name": "packageId",
					"type": "uint8"
				},
				{
					"internalType": "bool",
					"name": "withdrawn",
					"type": "bool"
				}
			],
			"stateMutability": "view",
			"type": "function"
		},
		{
			"inputs": [],
			"name": "owner",
			"outputs": [
				{
					"internalType": "address",
					"name": "",
					"type": "address"
				}
			],
			"stateMutability": "view",
			"type": "function"
		},
		{
			"inputs": [],
			"name": "pause",
			"outputs": [],
			"stateMutability": "nonpayable",
			"type": "function"
		},
		{
			"inputs": [],
			"name": "paused",
			"outputs": [
				{
					"internalType": "bool",
					"name": "",
					"type": "bool"
				}
			],
			"stateMutability": "view",
			"type": "function"
		},
		{
			"inputs": [
				{
					"internalType": "address",
					"name": "",
					"type": "address"
				}
			],
			"name": "referrerOf",
			"outputs": [
				{
					"internalType": "address",
					"name": "",
					"type": "address"
				}
			],
			"stateMutability": "view",
			"type": "function"
		},
		{
			"inputs": [],
			"name": "renounceOwnership",
			"outputs": [],
			"stateMutability": "nonpayable",
			"type": "function"
		},
		{
			"inputs": [
				{
					"internalType": "address",
					"name": "token",
					"type": "address"
				},
				{
					"internalType": "uint256",
					"name": "amount",
					"type": "uint256"
				}
			],
			"name": "rescue",
			"outputs": [],
			"stateMutability": "nonpayable",
			"type": "function"
		},
		{
			"inputs": [],
			"name": "retainFeesInContract",
			"outputs": [
				{
					"internalType": "bool",
					"name": "",
					"type": "bool"
				}
			],
			"stateMutability": "view",
			"type": "function"
		},
		{
			"inputs": [],
			"name": "router",
			"outputs": [
				{
					"internalType": "contract IUniswapV2Router02",
					"name": "",
					"type": "address"
				}
			],
			"stateMutability": "view",
			"type": "function"
		},
		{
			"inputs": [
				{
					"internalType": "address",
					"name": "newCollector",
					"type": "address"
				}
			],
			"name": "setFeeCollector",
			"outputs": [],
			"stateMutability": "nonpayable",
			"type": "function"
		},
		{
			"inputs": [
				{
					"internalType": "bool",
					"name": "retain",
					"type": "bool"
				}
			],
			"name": "setRetainFeesInContract",
			"outputs": [],
			"stateMutability": "nonpayable",
			"type": "function"
		},
		{
			"inputs": [
				{
					"internalType": "address",
					"name": "newRouter",
					"type": "address"
				}
			],
			"name": "setRouter",
			"outputs": [],
			"stateMutability": "nonpayable",
			"type": "function"
		},
		{
			"inputs": [
				{
					"internalType": "uint8",
					"name": "packageId",
					"type": "uint8"
				},
				{
					"components": [
						{
							"internalType": "uint256",
							"name": "minUsd",
							"type": "uint256"
						},
						{
							"internalType": "uint16",
							"name": "feeBps",
							"type": "uint16"
						},
						{
							"internalType": "uint32",
							"name": "minLock",
							"type": "uint32"
						},
						{
							"internalType": "uint32",
							"name": "maxLock",
							"type": "uint32"
						},
						{
							"internalType": "uint8",
							"name": "referralReq",
							"type": "uint8"
						},
						{
							"internalType": "bool",
							"name": "active",
							"type": "bool"
						}
					],
					"internalType": "struct StakingLock.Tier",
					"name": "t",
					"type": "tuple"
				}
			],
			"name": "setTier",
			"outputs": [],
			"stateMutability": "nonpayable",
			"type": "function"
		},
		{
			"inputs": [
				{
					"internalType": "uint8",
					"name": "",
					"type": "uint8"
				}
			],
			"name": "tiers",
			"outputs": [
				{
					"internalType": "uint256",
					"name": "minUsd",
					"type": "uint256"
				},
				{
					"internalType": "uint16",
					"name": "feeBps",
					"type": "uint16"
				},
				{
					"internalType": "uint32",
					"name": "minLock",
					"type": "uint32"
				},
				{
					"internalType": "uint32",
					"name": "maxLock",
					"type": "uint32"
				},
				{
					"internalType": "uint8",
					"name": "referralReq",
					"type": "uint8"
				},
				{
					"internalType": "bool",
					"name": "active",
					"type": "bool"
				}
			],
			"stateMutability": "view",
			"type": "function"
		},
		{
			"inputs": [
				{
					"internalType": "address",
					"name": "newOwner",
					"type": "address"
				}
			],
			"name": "transferOwnership",
			"outputs": [],
			"stateMutability": "nonpayable",
			"type": "function"
		},
		{
			"inputs": [],
			"name": "unpause",
			"outputs": [],
			"stateMutability": "nonpayable",
			"type": "function"
		},
		{
			"inputs": [],
			"name": "usdt",
			"outputs": [
				{
					"internalType": "contract IERC20",
					"name": "",
					"type": "address"
				}
			],
			"stateMutability": "view",
			"type": "function"
		},
		{
			"inputs": [],
			"name": "usdtFeesAccrued",
			"outputs": [
				{
					"internalType": "uint256",
					"name": "",
					"type": "uint256"
				}
			],
			"stateMutability": "view",
			"type": "function"
		},
		{
			"inputs": [
				{
					"internalType": "uint256",
					"name": "",
					"type": "uint256"
				},
				{
					"internalType": "address",
					"name": "",
					"type": "address"
				}
			],
			"name": "vipClaimed",
			"outputs": [
				{
					"internalType": "bool",
					"name": "",
					"type": "bool"
				}
			],
			"stateMutability": "view",
			"type": "function"
		},
		{
			"inputs": [
				{
					"internalType": "uint256",
					"name": "",
					"type": "uint256"
				}
			],
			"name": "vipEpochs",
			"outputs": [
				{
					"internalType": "bytes32",
					"name": "root",
					"type": "bytes32"
				},
				{
					"internalType": "contract IERC20",
					"name": "payoutToken",
					"type": "address"
				},
				{
					"internalType": "uint256",
					"name": "total",
					"type": "uint256"
				},
				{
					"internalType": "bool",
					"name": "active",
					"type": "bool"
				}
			],
			"stateMutability": "view",
			"type": "function"
		},
		{
			"inputs": [],
			"name": "vipEpochsCount",
			"outputs": [
				{
					"internalType": "uint256",
					"name": "",
					"type": "uint256"
				}
			],
			"stateMutability": "view",
			"type": "function"
		},
		{
			"inputs": [],
			"name": "vipPoolBalance",
			"outputs": [
				{
					"internalType": "uint256",
					"name": "",
					"type": "uint256"
				}
			],
			"stateMutability": "view",
			"type": "function"
		},
		{
			"inputs": [
				{
					"internalType": "uint256",
					"name": "lockId",
					"type": "uint256"
				}
			],
			"name": "withdraw",
			"outputs": [],
			"stateMutability": "nonpayable",
			"type": "function"
		},
		{
			"inputs": [],
			"name": "yourToken",
			"outputs": [
				{
					"internalType": "contract IERC20",
					"name": "",
					"type": "address"
				}
			],
			"stateMutability": "view",
			"type": "function"
		}
	]
}